:0600000002008902071254
:01000B0032C2
:0100130032BA
:01001B0032B2
:0100230032AA
:01002B0032A2
:01003300329A
:01003B003292
:01004300328A
:03004B00020D277C
:01005300327A
:01005B003272
:01006300326A
:01006B003262
:01007300325A
:01007B003252
:0300830002092649
:0300F30002008682
:0300860002027300
:1000F60090F000E4F0E4A3F0E4A3F0E4A3F002033C
:10010600371217B7E50A605890F411740DF0E50A36
:1001160030E44A90F004E0FFB40100E433FF240920
:10012600FDE434F4FE8D828E83E07031A2A3B39297
:100136000092A390F000E02401F0A3E03400F0A3C5
:10014600E03400F0A3E03400F0C0071219B1D00784
:10015600EF2409F582E434F4F5837401F0750A009E
:1001660022753BC8753C2E753D80753A0075820038
:1001760002108590DF2FE4F090DF30F090DF31F051
:1001860090DF00740CF090DF01744EF090DF027483
:10019600FFF090DF037420F090DF04E4F090DF05B9
:1001A600F090DF06F090DF097421F090DF0A7465A5
:1001B600F090DF0B746AF090DF077406F090DF08AA
:1001C600E4F090DF0C74CAF090DF0D7483F090DFDA
:1001D6000E7404F090DF0F7423F090DF107411F0AA
:1001E60090DF117435F090DF127407F090DF13740E
:1001F6003FF090DF147418F090DF157416F090DF5E
:1002060016746CF090DF177443F090DF187440F0AA
:1002160090DF197491F090DF1A7456F090DF1B741A
:1002260010F090DF1C74E9F090DF1D742AF090DF67
:100236001EE4F090DF1F741FF090DF237481F090AE
:10024600DF247435F090DF257409F090DF2E7450AA
:10025600F0748EF090DF097422F090DF0A74B1F02A
:1002660090DF0B743BF022120CBE020CEA12026DF8
:1002760012289A120D4E120F7FD2A490012C120B47
:1002860099C2A490012C120B991203B21200F61215
:0C0296001373D2AF121C0912010780F88C
:102EC800494D4D4520534E4946462076302E310017
:1002A200122B18AC82AD83AEF0FFC004C005C006AD
:1002B200C0079037BD75F086743D1229F5AC82AD4A
:1002C20083AEF0FFE58124FCF581E4C0E0C0E07478
:1002D200D0C0E07441C0E08C828D838EF0EF122D8D
:1002E2009AAC82AD83AEF0FFE58124FCF5818C826D
:1002F2008D838EF0EF122B2BAC82AD83AEF090DFAC
:1003020009EEF08D0390DF0AEBF090DF0BECF022A8
:1003120075E10490DF3BE0FFBF01F890F40BE0F5DC
:10032200E190F40BE0FFBF04012290DF3BE0FFBF4E
:10033200010280ED2290F40BE0FFBF02012290DF68
:1003420013E054F0F0E0440FF090F40B7402F0026A
:1003520006B490F40BE0FFBF03012290DF13E054D8
:10036200F0F0E0FF440AF090F40B7403F075E1033F
:1003720090DF3BE0FFBF13F82290F40BE0FFBF04D5
:10038200012290DF13E054F0F0AF9174EF5FF5912A
:1003920075E10490DF3BE0FFBF01F8AF9B74FC5FA7
:1003A200F59BAFE974EF5FF5E990F40B7404F0226A
:1003B20090F40EE4F0E4A3F090F405E4F0E4A3F08A
:1003C20090F407E4F0E4A3F053C6C7759D00859E40
:1003D2009E439E0485A9A943B90190F40B7404F0CD
:1003E20075530075540075550490F00575F00012B0
:1003F2002AF9120179D2A87591D175E900750A001E
:10040200439A0175E10490DF3BE0FFBF01F8227ED1
:10041200007F00C3EE94DCEF9405502490DF3CE0B3
:10042200FD5450600490000122900032C007C006C3
:10043200120BC1D006D00774322EFEE43FFF80D3E8
:100442009000002285821185831290F410E4F090CE
:10045200DF02E0FD90DF3BE0FCBC1309A2A4B392F3
:100462000192A480EFC2A490F462E4F090F458E503
:100472000DF0E50EA3F090F45EE50FF0E510A3F0A9
:1004820090F45AE50BF0E50CA3F090F45CE50BC395
:10049200950FF0E50C9510A3F090F45CE0FBA3E05F
:1004A200FC850D53850E548B828C83C005122B7FE5
:1004B200AB82AC83D00590F460EB250BF0EC350CED
:1004C200A3F0E50B450C703F851182851283E0FB9A
:1004D2007C008B0B8C0C90DF04E0FA530203BA0011
:1004E200028014BA0102800302056E74012BF50B1F
:1004F200E43CF50C02056E0511E4B51102051290FB
:10050200DF02E50BF0806590DF04E0FC530403BCDE
:1005120000028028BC0155850B53850C547555018A
:10052200755600851182851283C005120B64D005B1
:10053200AC0B851182851283ECF08030E50D450EFF
:100542007004E50C602090F460E0FBA3E090DF0211
:10055200EBF090DF04E054FCF0E0FC4402F090F495
:10056200627401F0800690DF02E50BF0D2A890F4ED
:1005720063E0FC20E30302065B90DF04E0FC53042B
:1005820003BC010690F4107401F090F410E0FC2515
:1005920011F582E43512F583850B53850C54C005A1
:1005A200C004120E81AA82AB83D004D00590F463FA
:1005B200E0F9530104B90433EC2511F8E43512F9DA
:1005C20090F463E0FF74F05FF52E882A892B8A2C61
:1005D2008B2D88828983C005C004C003C002120E1D
:1005E200A8D002D003D004D0058031EC2511FEE45E
:1005F2003512FF90F463E0F974F059F5338E2F8FC2
:10060200308A318B328E828F83C005C004C003C012
:1006120002120EBDD002D003D004D005EC602290AD
:10062200F463E0FF5307F0BF500B851182851283FC
:100632007410F080248A07851182851283EFF0807E
:100642001890F463E0FF5307F0BF500890DF027484
:1006520010F0800590DF02EAF085110885120990FA
:10066200F456E4F0E4A3F075E1037E607FEA90DFE4
:100672003BE0FCBC130280121EBEFF011FEE4F6066
:1006820009A2A4B3920192A480E4D2A4EE4F700610
:1006920090F4127413F090DF3BE0FFBF1309A2A4A1
:1006A200B3920192A480EFC2A490DF02EDF07582B2
:1006B2000122D2A875530075540075550290F005B9
:1006C20075F000122AF990F405E4F0E4A3F090F436
:1006D20007E4F0E4A3F090F409E4F090F40A740162
:1006E200F090F004E4F0AF9B74FC5FF59BAFE9740B
:1006F200EF5FF5E975E10290DF3BE0FFBF0DF843E4
:1007020091102290F4647401F02290F464E4F022D7
:10071200C0E0C0F0C082C083C007C006C005C004EC
:10072200C003C002C001C000C0D075D00090F41157
:100732007411F0C28990DF3BE0FFBF0D028003021B
:10074200084FD2A490F451E0FF602790F452E0FEEB
:10075200A3E0FF90F452E024FFFCA3E034FFFD90FD
:10076200F452ECF0EDA3F0EF700890DF04E0FF54D8
:10077200FCF090F40B7402F090F004E025E0FEE44B
:100782002405FFEE34F0FE90F004E075F002A4249C
:1007920005FC74F435F0FD8C828D83E0FAA3E0FB56
:1007A20074012AF8E43BF98C828D83E8F0E9A3F026
:1007B200EA2FF582EB3EF583E5D9F090F004E0757F
:1007C200F002A42405F58274F435F0F583E0FEA36B
:1007D200E0FF54FE701A90F004E075F002A42405C4
:1007E200F58274F435F0F583E0FEA3E0FF4E701A53
:1007F20090F004E0FF75F002A42405F58274F4354C
:10080200F0F58374FFF07401A3F090F452E0FEA3BC
:10081200E0FF4E600302090B90F451E0FF70030207
:10082200090B90F454E0FEA3E0FF90F452EEF0EFD7
:10083200A3F090F452E0FEA3E090DF02EEF090DF2E
:1008420004E054FCF0E0FF4402F002090B90DF3BAD
:10085200E0FFBF1302800302090B90F462E0FF7015
:10086200030208E490F456E0FEA3E0FF90F45AE09D
:10087200FCA3E0FDEEB50443EFB5053F90F458E06C
:10088200FEA3E0FF4E603490F458E0FEA3E0FFBE0A
:10089200FF05BF0002801490F458E024FFFEA3E09D
:1008A20034FFFF90F458EEF0EFA3F090F45EE0FE18
:1008B200A3E0FF90F456EEF0EFA3F090F460E0FEB8
:1008C200A3E0FF90F460E024FFFCA3E034FFFD907E
:1008D200F460ECF0EDA3F0EF700890DF04E0FF5459
:1008E200FCF090F40B7403F090F456E0FEA3E0FFEA
:1008F20090F456E02401F0A3E03400F0EE2508F570
:1009020082EF3509F583E0F5D9D0D0D000D001D0FF
:1009120002D003D004D005D006D007D083D082D035
:10092200F0D0E032C021C0E0C0F0C082C083C00776
:10093200C006C005C004C003C002C001C000C0D0D0
:1009420075D0007F0090F4117410F0AE9B74FC5EC1
:10095200F59BE5E9420AE5E930E02090F40CE0FD80
:10096200A3E08D067D00AB9C7C0090F40EED4BF075
:10097200EE4CA3F0AEE974FE5EF5E9E5E954707061
:1009820003020B0190F40BE0FEBE030AAE0A748F61
:100992005EF50A020AFA90F004E0FEB40100E433C4
:1009A2002409F582E434F4F583E0FEBE01028003FB
:1009B200020ACC90F463E0FE20E103020AA290DF77
:1009C20004E0FE530603BE01027F0190F463E0FEE1
:1009D200530601BE016790F004E025E0FDE4240522
:1009E200FEED34F0FD8F037C00EB2EFEEC3DFD901E
:1009F200F004E0F929FAE42405F9EA34F0FAEB29E3
:100A0200F52AEC3AF52B90F004E075F002A42405E7
:100A1200F58274F435F0F583E0FBA3E0FC8F017AF4
:100A220000EBC399F52CEC9AF52D90F463E0FC747D
:100A3200F05CF52E8E828D83120EA8806390F004F6
:100A4200E025E0FDE42405FEED34F0FD8F037C009B
:100A5200EB2EFEEC3DFD90F004E0F929FAE42405CA
:100A6200F9EA34F0FAEB29F52FEC3AF53090F0047C
:100A7200E075F002A42405F58274F435F0F583E004
:100A8200FBA3E0FC7A00EBC39FF531EC9AF53290C0
:100A9200F463E0FF74F05FF5338E828D83120EBD36
:100AA20090F004E06401F090F004E0FF75F002A41D
:100AB2002405F58274F435F0F583E4F0E4A3F090B4
:100AC200F409E4F090F40AF0802C90F4127412F01D
:100AD200A2A4B3920292A490F004E0FF75F002A4E3
:100AE2002405F58274F435F0F583E4F0E4A3F0A272
:100AF200A4B3920292A4C2A4AFE974CF5FF5E9E570
:100B0200E930E61E90F4127410F0A2A4B39202929D
:100B1200A4120312A2A4B3920292A4AFE974BF5F1B
:100B2200F5E9E5E930E71E90F4127411F0A2A4B3DE
:100B3200920292A4120312A2A4B3920292A4AFE967
:100B4200747F5FF5E9D0D0D000D001D002D003D0BD
:100B520004D005D006D007D083D082D0F0D0E0D028
:100B62002132AE82AF83AC53AD548C028D031CBCD8
:100B7200FF011DEA4B601FE5552CFAE5563DFBEAE5
:100B82002EFAEB3FFBEC2EF582ED3FF583E0F98A7E
:070B9200828B83F080D42266
:10349B000000000000000000000000000000000021
:0434AB00000000001D
:100B9900AE82AF831EBEFF011FC3E49EE464808F53
:100BA900F063F08095F0500F7CB07D041CBCFF0110
:100BB9001DEC4D70F780DD22AE82E583CE25E0CEB7
:100BC90033FF1EBEFF011FC3E49EE464808FF06300
:100BD900F08095F040EC22AE82AF83D2A49003E876
:100BE900C007C006120B99C2A49001F4120B99D048
:100BF90006D0071513AD13ED20E754EE30E024902D
:100C09000019C007C006C005120B99D2A49002268C
:100C1900120B99C2A4900019120B99D005D006D0D5
:100C2900078022900113C007C006C005120B99D294
:100C3900A4900032120B99C2A4900113120B99D0FF
:100C490005D006D007EFC313CE13CEFF1D80A8C26F
:100C5900A49003E8020B99AD82AE83AFF0AA53AB1F
:100C690054AC55A856A957E8496046C000C0018D43
:100C7900828E838FF0122E65F98A828B838CF01213
:100C89002E65F8E9C398F558D001D000E5586010F1
:100C9900E558F5593395E0F55A855982855A8322E5
:100CA9000DBD00010E0ABA00010B18B8FF01198029
:100CB900B690000022AFBE74FB5FF5BEE5BE30E61C
:100CC900FBAFC674B85FF5C6E5C620E6FB43BE04B4
:100CD900E5BE30E6FB53C6C743E40C43E401D2B991
:100CE90022AF9A74DF5FF59AA2AFE433F452A812E7
:100CF9000F8B120F98120FBC758200121042C2841A
:100D090075820012104E121073753BD8753C2E7502
:100D19003D80753A00758200121085D28422C0E0A8
:100D2900C082C083C0D090F413E02401F0A3E03462
:100D390000F0A3E03400F0A3E03400F0D0D0D08379
:050D4900D082D0E03271
:102ED800494D4D4520534E4946462076302E310007
:100D4E001228C48582268526F005F07401800225BE
:100D5E00E0D5F0FBF527E52675F008A42439F52239
:100D6E0074F435F0F523852282852383A3A374DFE3
:100D7E00F0852282852383A3A3A374B1F0852282FA
:100D8E00852383A3A3A3A3A37410F08522828523B6
:100D9E0083A3A3A3A3A3A3E054E0441DF085228262
:100DAE00852383A3A3A3A3A3A3A3E0543F4440F0AE
:100DBE00852282852383A3A3A3A3A3A3A3E054FC2C
:100DCE004401F01228C48582288528F005F07401AC
:100DDE00800225E0D5F0FBF529E52875F008A4245E
:100DEE0039F52474F435F0F5258524828525837430
:100DFE00DFF0852482852583A374B2F08524828555
:100E0E002583A3A3A3A3A37410F085248285258331
:100E1E00A3A3A3A3A3A3E054E0441EF085248285DC
:100E2E002583A3A3A3A3A3A3A3E054CF4410F085CB
:100E3E002482852583A3A3A3A3A3A3A3E054FC44E8
:100E4E0001F022AE82AF83E5B330E3FB85228285CB
:100E5E0023838F05EDF0852282852383A37F00EE09
:100E6E00F0E52742D6E55345544401F5B3E5B330DA
:100E7E00E3FB22AE82AF83AC53AD54EC540F60153E
:100E8E008C028D030CBC00010DEA2EF582EB3FF5B2
:100E9E0083E4F080E68C828D8322852A53852B5441
:100EAE00852C55852D56755700852E58020ED285E8
:100EBE002F538530548531558532567557028533FB
:100ECE0058020ED285825985835AE5B330E3FBE58D
:100EDE005524F0FCE55634FFFD74505558FBE5578C
:100EEE0045584401FA74014557F9E4F55BF55CC3C6
:100EFE00E55B9555E55C9556400122C00285228240
:100F0E00852383E55B2559FEE55C355AFF8E008F00
:100F1E00028A00E8F0852282852383A3EEF08524E1
:100F2E0082852583A3A3E55B2553FEE55C3554FF3F
:100F3E008E008F028A00E8F0852482852583A3A384
:100F4E00A37F00EEF0E529452742D6D002EB600CD8
:100F5E00ECB55B08EDB55C0489B380028AB3E5B3EA
:100F6E0030E3FB7410255BF55BE4355CF55C020E3B
:010F7E00FD75
:0C00E2007534007535017536037537075D
:100F7F0090F418E4F0E4A3F02202000043F32843B6
:100F8F00FD1443FE0275FF182275860075C2AA75FF
:100F9F00C530228582C1E58630E1FBAF8674FD5FE7
:100FAF00F58622D282020FA2C282020FA2C29190B4
:100FBF000001120B99D291C2847582E2120FB7759C
:100FCF008224120FB7758281120FB7758260120FCC
:100FDF00B77582E6120FB7758200120FB775822FA1
:100FEF00120FB77582A1120FB77582AF120FB775B7
:100FFF0082A4120FB775820012104ED2842275820E
:10100F00AC120FB77582AE120FB77582A5020FB76C
:10101F00AF8274B02FF582120FB7740F5539F58266
:10102F00120FB7E539C4540FFF740F5F2410F58208
:10103F00020FB7AF82743F5F4440F582020FB7AF24
:10104F008274015F44A6F582020FB7753900121042
:10105F001F7F00758200C007120FB2D0070FBF8429
:10106F000040F0227F008F82C00712105AD0070F66
:10107F00BF090040F122AF82853B82853C83853DCD
:10108F00F0C007122D82AD82AE83D007EF24F75048
:10109F000122E53A75F006A4F5398F82C0051210CA
:1010AF001FD005AC3BAE3CAF3D8D031DEB60268CD6
:1010BF00828E838FF0122E65FBA3AC82AE838B8260
:1010CF00C007C006C005C004122821D004D005D027
:1010DF0006D00780D422AF82E4FBFCFDFEEF24F79D
:1010EF00500122E53E75F006A4F5398F82C006C087
:1010FF0005C004C00312101FD003D004D005D006C2
:10110F00754300E53F45404541454270030211AA32
:10111F008B538C548D558E5690000AE4F5F0122B9C
:10112F009CAB82AC83ADF0FE75530AE4F554F555D4
:10113F00F556853F828540838541F0E542C006C064
:10114F0005C004C00312290DA882A983AAF0FFD0FD
:10115F0003D004D005D006E82BFBE93CFCEA3DFDAB
:10116F00EF3EFE75530AE4F554F555F556853F826B
:10117F008540838541F0E542C006C005C004C00329
:10118F0012299085823F85834085F041F542D00337
:10119F00D004D005D0060543021112E543604D750A
:1011AF00530AE4F554F555F5568B828C838DF0EE8A
:1011BF00C006C005C004C00312290DA882743028D0
:1011CF00F582122821D003D004D005D00675530A1A
:1011DF00E4F554F555F5568B828C838DF0EE12297C
:1011EF0090AB82AC83ADF0FE154380AF22AF82E4AB
:1011FF00FDFEEF24F7500122E54475F006A4F53902
:10120F008F82C006C00512101FD005D0067F00E5E3
:10121F0045454660538D538E5490000AC007122BDC
:10122F007FAD82AE8375530A75540085458285461E
:10123F0083C006C005122C0AAB82AC83D005D00642
:10124F00EB2DFDEC3EFE75530A75540085458285E6
:10125F004683C006C0051228E4858245858346D0A3
:10126F0005D006D0070F80A7EF603775530A755466
:10127F00008D828E83C007C006C005122C0AAB8278
:10128F0074302BF582122821D005D00675530A75BC
:10129F0054008D828E831228E4AD82AE83D0071F57
:1012AF0080C622E582FF24F7500122E54775F0063C
:1012BF00A4F5398F8212101F7F048F061FEE60472F
:1012CF0074F05549C4540FFD7E00C3ED940AEE949B
:1012DF000050108D0474302CF582C007122821D0D5
:1012EF0007800C74372DF582C007122821D007E52F
:1012FF0049C454F0C548C4C5486548C54854F0C5ED
:10130F00486548F54980B322AF8253077FC3EF6426
:10131F008094A0404EEF24E0C2D575F00530E7046D
:10132F00B2D5F404A430D50AF42401C5F0F4340086
:10133F00C5F024E8FE742E35F0FF7D00ED2EF5820A
:10134F00E43FF583E493F582C007C006C005120F92
:10135F00B2D005D006D0070DBD050040DF75820065
:10136F00020FB22222AF8290DF0EE0FE53068FEF04
:10137F00C454F090DF0E4EF022E53875F003A4242C
:10138F00D2F582743035F0F583E493FDA3E493FE38
:10139F00A3E493FF8D828E838FF022AF8290DF0EB6
:1013AF00E0FE5306F874075F90DF0E4EF022858241
:1013BF004A85834B85F04CF54D7B007A00BA0400CB
:1013CF0040030214888AF005F0780179008006E85E
:1013DF0028F8E933F9D5F0F78853E9F5543395E058
:1013EF00F555F556854A82854B83854CF0E54DC002
:1013FF0002122B9C122B18AC82AD83AEF0FFC004EF
:10140F00C005C006C007900000E4F5F07441122932
:10141F00F5AC82AD83AEF0FFE58124FCF581C0040D
:10142F00C005C006C007905D4075F0C6744B122D05
:10143F009AAC82AD83AEF0FFE58124FCF581E4C068
:10144F00E0C0E07460C0E074C0C0E08C828D838E19
:10145F00F0EF122C57AC82AD83AEF0FFE58124FC88
:10146F00F5818C828D838EF0EF122E5DAB82D002D0
:10147F00BB040040040A0213CC90DF0CE0FF5307BB
:10148F000FEA030354C04207EBC454F090DF0C4F34
:10149F00F02290DF0CE0FFE4A2E7CF33CF33A2E7D7
:1014AF00CF33CF33CF54035307037E0090DF0CE0CD
:1014BF00FDE4CDC4540F6DCD540FCD6DCD53050349
:1014CF007C008D828C83A3A3A3A3C007C006122D1B
:1014DF0002AA82AB83ACF0FDC002C003C004C005FA
:1014EF00900000E4F5F074411229F5AA82AB83ACA9
:1014FF00F0FDE58124FCF581D006D0078FF005F0D3
:10150F00900001800BE5822582F582E58333F58318
:10151F00D5F0F2C005C004C003C002122D02A8828C
:10152F00A983AEF0FFD002D003D004D005C000C015
:10153F0001C006C0078A828B838CF0ED1229F5ACAF
:10154F0082AD83AEF0FFE58124FCF5818C828D8323
:10155F008EF0EF122D0EAE82AF838E538F547555D2
:10156F000075560090BA8075F08C7401022CB0850E
:10157F00824E85834F85F050F551780079007A00BF
:10158F007B0075520074F02552500302163A8552B3
:10159F00F005F07D017E008006ED2DFDEE33FED5CA
:1015AF00F0F78D53EEF5543395E0F555F556854E1E
:1015BF0082854F838550F0E551122990122B18AC7C
:1015CF0082AD83AEF0FFC004C005C006C0079030E7
:1015DF00E975F02574411229F5AC82AD83AEF0FFA9
:1015EF00E58124FCF581E4C0E07480C0E0747FC025
:1015FF00E074C3C0E08C828D838EF0EF122C57AC59
:10160F0082AD83AEF0FFE58124FCF5818C828D8362
:10161F008EF0EF122B2BA882A983AAF0FBE970069C
:10162F00EA7003EB6005055202159490DF0CE0FFA2
:10163F0074F05F90DF0C4552F090DF0DE8F02290D0
:10164F00DF0CE0FF53070F90DF0DE0FE8FF005F08A
:10165F007F017D008006EF2FFFED33FDD5F0F7ED15
:10166F003395E0FCFB7A0074012AFA8E53EAF554A5
:10167F003395E0F555F5568F828D838CF0EB122B59
:10168F009C122B18A882A983AAF0FEC000C001C02B
:10169F0002C006905D4075F0C6743D1229F5A88210
:1016AF00A983AAF0FEE58124FCF581888289838ACB
:1016BF00F0EE022B2B0538E53824FC50037538006B
:1016CF00E5382434F98782021374E53870057538CC
:1016DF000380021538E5382434F987820213741217
:1016EF002B18AC82AD83AEF0FFC004C005C006C09E
:1016FF00079030E975F025743B1229F5AC82AD8364
:10170F00AEF0FFE58124FCF5818C828D838EF0EFA6
:10171F00122B2BAC82AD83AEF08E0390DF09EBF072
:10172F008D0390DF0AEBF090DF0BECF02290DF09D6
:10173F00E0FF7E007D008D048E058F067F0090DF19
:10174F000AE0F8E4F9FAFBE82FFFE93EFEEA3DFD77
:10175F00EB3C8D048E058F067F0090DF0BE0F8E4E5
:10176F00F9FAFBE82FFFE93EFEEA3DFDEB3C8F82E5
:10177F008E838DF0122B18A882A983AAF0FBC000CC
:10178F00C001C002C003905D4075F0C674431229BA
:10179F00F5A882A983AAF0FBE58124FCF581888254
:1017AF0089838AF0EB022B2BC28490DF3BE0FF8F03
:1017BF00487549007547007582071212B2850A48AD
:1017CF0075490075470A7582071212B2D28422C278
:1017DF0084121073753BDE753C30753D80753A0091
:1017EF00758201121085753BE2753C30753D807531
:1017FF003A00758202121085753BE5753C30753DD8
:10180F0080753A00758203121085753BE9753C307F
:10181F00753D80753A00758204121085753BEE7523
:10182F003C30753D80753A00758205121085753B09
:10183F00F5753C30753D80753A007582061210853E
:10184F00753BFB753C30753D80753A06758201120C
:10185F00108512173CAC82AD83AEF0FF753E068C3F
:10186F003F8D408E418F427582011210E590DF0649
:10187F00E0FB8B487549007547067582021212B25C
:10188F0012138885823B85833C85F03D753A06753A
:10189F00820312108512164EAC82AD83AEF0FF7527
:1018AF003B06753C31753D80753A06758204C0075D
:1018BF00C006C005C004121085D004D005D006D0D4
:1018CF0007753E068C3F8D408E418F427582041204
:1018DF0010E5753B06753C31753D80753A0875828C
:1018EF00051210851214A1AC82AD83AEF0FF753BCB
:1018FF00FB753C30753D80753A08758205C007C091
:10190F0006C005C004121085D004D005D006D0073C
:10191F00753E088C3F8D408E418F427582051210A7
:10192F00E590DF0CE0FF8F4875490075470F758212
:10193F00041212B290DF0DE0FF8F48754900754712
:10194F000F7582051212B290DF0EE0FF8F487549B6
:10195F000075470F7582061212B290DF0EE0FF542A
:10196F0003601F90DF00E0FE7F0090DF01E07C004E
:10197F004FF548EC4EF5497547067582061212B2BF
:10198F008012753B0F753C31753D80753A06758237
:10199F0006121085D28422C284121073120167D2EC
:1019AF00842290F004E0FFB40100E433FF3395E0AC
:1019BF00EF2FFEE42405FFEE34F0FE90F004E0FD7F
:1019CF00B40100E433FDC2D575F002ED30E704B287
:1019DF00D5F404A430D50AF42401C5F0F43400C5BD
:1019EF00F02405F58274F435F0F583E0FCA3E09064
:1019FF00F438ECF0C284753B14753C31753D80753D
:101A0F003A00758203C007C006C004121085753BEB
:101A1F0014753C31753D80753A007582041210853E
:101A2F00753B14753C31753D80753A007582051212
:101A3F001085753B35753C31753D80753A00758263
:101A4F0001121085D0048C487549007547097582BD
:101A5F0001C0041212B2753B3E753C31753D807565
:101A6F003A0075820212108590F004E0FD8D4875E2
:101A7F0049007547067582021212B2753B45753CD7
:101A8F0031753D80753A0C75820212108590F00009
:101A9F00E0F9A3E0FAA3E0A3E089488A497547116A
:101AAF007582021212B2D004D006D007EC24E15096
:101ABF000690F438741EF0753900758203C007C0A4
:101ACF000612101FD006D0077D037C0090F438E07B
:101ADF00FB8B021BEA7003021C068F828E83E0FAD7
:101AEF0024E05040BA7F00503B758220C007C006EB
:101AFF00C005C004C003122821D003D004D005D0E4
:101B0F0006D0078F828E83E0F582C007C006C0051E
:101B1F00C004C003122821D003D004D005D006D0B2
:101B2F0007021BD78F828E83E054F0C4540FF97ACB
:101B3F0000C3E9940AEA940050208900743028F514
:101B4F0082C007C006C005C004C003122821D003FD
:101B5F00D004D005D006D007801C743729F582C079
:101B6F0007C006C005C004C003122821D003D0044B
:101B7F00D005D006D0078F828E83E0FA53020F8AEA
:101B8F00017A00C3E9940AEA940050208900743066
:101B9F0028F582C007C006C005C004C00312282163
:101BAF00D003D004D005D006D007801C743729F598
:101BBF0082C007C006C005C004C003122821D0038D
:101BCF00D004D005D006D0070C75F00AEC84E5F0F0
:101BDF00701D0D7539008D82C007C006C005C00489
:101BEF00C00312101FD003D004D005D006D0070FAA
:101BFF00BF00010E021AE0D2842290F417E0FFBF5B
:101C0F00013190F418E0FEA3E0FFC3EE942CEF94A3
:101C1F0001401590F418E4F0E4A3F090F417E4F009
:101C2F001219A61219B1800B90F41874012EF0E45A
:101C3F003FA3F090F418E4F0E4A3F012280DAF8264
:101C4F00BF0103022645BF020302203BBF0303026D
:101C5F001FFFBF0A0302225E8F06BE2003022677F4
:101C6F00BE2C0302231ABF3C0302219BBF3E03027B
:101C7F002127BE4103021D67BE4403021ECDBE4590
:101C8F0003021E7DBE4603021F6ABE47030225974D
:101C9F00BE4803022552BE4903022379BE4A0302FE
:101CAF00250DBE4B030224C8BE4C03022483BE4D38
:101CBF00030223C1BE4E03022447BE4F030222BCC0
:101CCF00BE5003022208BE5102803DBE5203021FC6
:101CDF001BBE5303021E17BE54030225CFBE55036E
:101CEF0002240DBE5603022609BE5703021DB5BEC0
:101CFF005A03021FBBBF5E030220CDBF8303022620
:101D0F0053BF87030220772275E10490DF3BE0FF8A
:101D1F00BF01F890DF0EE054F8F0E04405F090DFDB
:101D2F0000E0FF90DF0074102FF01217DE90F41711
:101D3F007401F090F418E4F0E4A3F0900032120B69
:101D4F009975E10190DF3BE0FFBF01F875E102906B
:101D5F00DF3BE0FFBF0DF82275E10490DF3BE0FFB2
:101D6F00BF01F890DF0EE054F8F0E04405F090DF8B
:101D7F0000E024F090DF00F01217DE90F4177401EA
:101D8F00F090F418E4F0E4A3F0900032120B997580
:101D9F00E10190DF3BE0FFBF01F875E10290DF3B0F
:101DAF00E0FFBF0DF82275E10490DF3BE0FFBF01BC
:101DBF00F890DF0EE054F8F0E04405F090DF00E01B
:101DCF00FF53070FBF0F02800990DF00E02401F0DF
:101DDF00800890DF00E0FF54F0F01217DE90F41748
:101DEF007401F090F418E4F0E4A3F0900032120BB9
:101DFF009975E10190DF3BE0FFBF01F875E10290BB
:101E0F00DF3BE0FFBF0DF82275E10490DF3BE0FF01
:101E1F00BF01F890DF0EE054F8F0E04405F090DFDA
:101E2F0000E0FF540F600B90DF00E01490DF00F034
:101E3F00800E90DF00E0FF74F05F90DF002409F068
:101E4F001217DE90F4177401F090F418E4F0E4A385
:101E5F00F0900032120B9975E10190DF3BE0FFBF6C
:101E6F0001F875E10290DF3BE0FFBF0DF82275E14D
:101E7F000490DF3BE0FFBF01F890DF0EE054F8F075
:101E8F00E04405F090DF01E0FF90DF0174102FF0C8
:101E9F001217DE90F4177401F090F418E4F0E4A335
:101EAF00F0900032120B9975E10190DF3BE0FFBF1C
:101EBF0001F875E10290DF3BE0FFBF0DF82275E1FD
:101ECF000490DF3BE0FFBF01F890DF0EE054F8F025
:101EDF00E04405F090DF01E024F090DF01F01217ED
:101EEF00DE90F4177401F090F418E4F0E4A3F0908E
:101EFF000032120B9975E10190DF3BE0FFBF01F853
:101F0F0075E10290DF3BE0FFBF0DF82275E1049011
:101F1F00DF3BE0FFBF01F890DF0EE054F8F0E04444
:101F2F0005F090DF01E090DF01E02401F01217DEF1
:101F3F0090F4177401F090F418E4F0E4A3F090001B
:101F4F0032120B9975E10190DF3BE0FFBF01F8758D
:101F5F00E10290DF3BE0FFBF0DF82275E10490DF57
:101F6F003BE0FFBF01F890DF0EE054F8F0E04405CE
:101F7F00F090DF01E090DF01E01490DF01F0121725
:101F8F00DE90F4177401F090F418E4F0E4A3F090ED
:101F9F000032120B9975E10190DF3BE0FFBF01F8B2
:101FAF0075E10290DF3BE0FFBF0DF82275E1049071
:101FBF00DF3BE0FFBF01F890DF0EE054F8F0E044A4
:101FCF0004F01217DE90F4177401F090F418E4F097
:101FDF00E4A3F0900032120B9975E10190DF3BE022
:101FEF00FFBF01F875E10290DF3BE0FFBF0DF82264
:101FFF0075E10490DF3BE0FFBF01F81216C4121722
:10200F00DE90F4177401F090F418E4F0E4A3F0906C
:10201F000032120B9975E10190DF3BE0FFBF01F831
:10202F0075E10290DF3BE0FFBF0DF82275E10490F0
:10203F00DF3BE0FFBF01F81216D91217DE90F4173D
:10204F007401F090F418E4F0E4A3F0900032120B56
:10205F009975E10190DF3BE0FFBF01F875E1029058
:10206F00DF3BE0FFBF0DF82275E10490DF3BE0FF9F
:10207F00BF01F890DF0CE0FE7F0074102EFEE43FEE
:10208F00FF6008EE2410FEEF34FFFF90DF0CEEF040
:10209F001217DE90F4177401F090F418E4F0E4A333
:1020AF00F0900032120B9975E10190DF3BE0FDBD1E
:1020BF0001F875E10290DF3BE0FDBD0DF82275E1FF
:1020CF000490DF3BE0FDBD01F890DF0CE0FDFE7FEB
:1020DF0000C3EE9410EF9400500474012FFFEE2410
:1020EF00F0FEEF34FF90DF0CEEF01217DE90F417D6
:1020FF007401F090F418E4F0E4A3F0900032120BA6
:10210F009975E10190DF3BE0FFBF01F875E10290A7
:10211F00DF3BE0FFBF0DF82275E10490DF3BE0FFEE
:10212F00BF01F890DF0DE0C4540FFFBF0F2490DF05
:10213F000CE0FF53070FBF0F00502390DF0CE09010
:10214F00DF0C04F090DF0DE0FF90DF0D74102FF027
:10215F00800C90DF0DE0FF90DF0D74102FF0121741
:10216F00DE90F4177401F090F418E4F0E4A3F0900B
:10217F000032120B9975E10190DF3BE0FFBF01F8D0
:10218F0075E10290DF3BE0FFBF0DF82275E104908F
:10219F00DF3BE0FFBF01F890DF0DE0C4540FFF708D
:1021AF001F90DF0CE0FF540F602190DF0CE01490C4
:1021BF00DF0CF090DF0DE0FF24F090DF0DF0800BCF
:1021CF0090DF0DE0FF24F090DF0DF01217DE90F49A
:1021DF00177401F090F418E4F0E4A3F090003212B9
:1021EF000B9975E10190DF3BE0FFBF01F875E1024C
:1021FF0090DF3BE0FFBF0DF82275E10490DF3BE07D
:10220F00FFBF01F890DF0BE02401F090DF0BE0FF40
:10221F00701590DF0AE02401F090DF0AE0FF7007ED
:10222F0090DF09E02401F01217DE90F4177401F02B
:10223F0090F418E4F0E4A3F075E10190DF3BE0FFC8
:10224F00BF01F875E10290DF3BE0FFBF0DF822758B
:10225F00E10490DF3BE0FFBF01F890DF0BE014904B
:10226F00DF0BF090DF0BE0FFBFFF1A90DF0AE014E7
:10227F0090DF0AF090DF0AE0FFBFFF0990DF09E06F
:10228F001490DF09F01217DE90F4177401F090F438
:10229F0018E4F0E4A3F075E10190DF3BE0FFBF012C
:1022AF00F875E10290DF3BE0FFBF0DF82275E10406
:1022BF0090DF3BE0FFBF01F890DF0BE0FFBFF000C6
:1022CF00401590DF0AE02401F090DF0AE0FF70076D
:1022DF0090DF09E02401F090DF0BE0FF90DF0B743B
:1022EF00102FF01217DE90F4177401F090F418E429
:1022FF00F0E4A3F075E10190DF3BE0FFBF01F8755B
:10230F00E10290DF3BE0FFBF0DF82275E10490DFA3
:10231F003BE0FFBF01F890DF0BE0FF24EF40199087
:10232F00DF0AE0FF700990DF09E01490DF09F090F9
:10233F00DF0AE01490DF0AF090DF0BE024F090DF6B
:10234F000BF01217DE90F4177401F090F418E4F00C
:10235F00E4A3F075E10190DF3BE0FFBF01F875E109
:10236F000290DF3BE0FFBF0DF82275E10490DF3BE9
:10237F00E0FFBF01F890DF0AE02401F090DF0AE0F0
:10238F00FF700790DF09E02401F01217DE90F417B9
:10239F007401F090F418E4F0E4A3F075E10190DF1C
:1023AF003BE0FFBF01F875E10290DF3BE0FFBF0D9F
:1023BF00F82275E10490DF3BE0FFBF01F890DF0AE0
:1023CF00E0FF700990DF09E01490DF09F090DF0A59
:1023DF00E01490DF0AF01217DE90F4177401F090FA
:1023EF00F418E4F0E4A3F075E10190DF3BE0FFBFE8
:1023FF0001F875E10290DF3BE0FFBF0DF82275E1B8
:10240F000490DF3BE0FFBF01F890DF09E02401F00B
:10241F001217DE90F4177401F090F418E4F0E4A3AF
:10242F00F075E10190DF3BE0FFBF01F875E102902D
:10243F00DF3BE0FFBF0DF82275E10490DF3BE0FFCB
:10244F00BF01F890DF09E01490DF09F01217DE905A
:10245F00F4177401F090F418E4F0E4A3F075E101BF
:10246F0090DF3BE0FFBF01F875E10290DF3BE0FF3B
:10247F00BF0DF82275E10490DF3BE0FFBF01F8903C
:10248F00DF097423F090DF0A7431F090DF0B743B97
:10249F00F01217DE90F4177401F090F418E4F0E4E2
:1024AF00A3F075E10190DF3BE0FFBF01F875E1029A
:1024BF0090DF3BE0FFBF0DF82275E10490DF3BE0BA
:1024CF00FFBF01F890DF097421F090DF0A7462F00A
:1024DF0090DF0B7476F01217DE90F4177401F09002
:1024EF00F418E4F0E4A3F075E10190DF3BE0FFBFE7
:1024FF0001F875E10290DF3BE0FFBF0DF82275E1B7
:10250F000490DF3BE0FFBF01F890DF097410F090FB
:10251F00DF0A74A7F090DF0B7462F01217DE90F4ED
:10252F00177401F090F418E4F0E4A3F075E1019052
:10253F00DF3BE0FFBF01F875E10290DF3BE0FFBF3B
:10254F000DF82275E10490DF3BE0FFBF01F890DF4B
:10255F0009740CF090DF0A741DF090DF0B7489F092
:10256F001217DE90F4177401F090F418E4F0E4A35E
:10257F00F075E10190DF3BE0FFBF01F875E10290DC
:10258F00DF3BE0FFBF0DF82275E10490DF3BE0FF7A
:10259F00BF01F890DF06E4F01217DE90F417740114
:1025AF00F090F418E4F0E4A3F075E10190DF3BE064
:1025BF00FFBF01F875E10290DF3BE0FFBF0DF8228E
:1025CF0075E10490DF3BE0FFBF01F890DF06E024E8
:1025DF0001F01217DE90F4177401F090F418E4F084
:1025EF00E4A3F075E10190DF3BE0FFBF01F875E177
:1025FF000290DF3BE0FFBF0DF82275E10490DF3B57
:10260F00E0FFBF01F890DF06E01490DF06F012172D
:10261F00DE90F4177401F090F418E4F0E4A3F07571
:10262F00E10190DF3BE0FFBF01F875E10290DF3B76
:10263F00E0FFBF0DF82212100D1227DBAF82BF0192
:10264F00F8020F8890DF3BE0FFBF0D0E75E104909D
:10265F00DF3BE0FFBF01F802035475E10490DF3B5D
:10266F00E0FFBF01F802033790F417E0FF70099005
:10267F00F4177401F00217DEBF010B90F417E4F0AA
:07268F001219A60219B12285
:102EE800000000000000005E0000000E000E002838
:102EF8007C287C2808547C54202610086400285418
:102F080028400000000E0000003C42000000423C47
:102F18000000005438540010107C1010008060200D
:102F2800001010101000006060000020100804005D
:102F3800003C423C0000447E40004462524C002267
:102F48004A4A360018147E10002E4A4A32003C4A7B
:102F58004A300002621A0600344A4A34000C5252BF
:102F68003C00006C6C0000806C2C000000102844B1
:102F780000282828280000442810000004520C00CB
:102F88003C425A1C007C12127C007E4A4A34003CA7
:102F9800424224007E42423C007E4A4A42007E0A67
:102FA8000A02003C425274007E08087E0000427EFD
:102FB80042002040403E007E182442007E404040AF
:102FC800007E0C0C7E007E0C307E003C42423C00B1
:102FD8007E12120C003C6242BC007E12324C00246D
:102FE8004A52240000027E02003E40403E001E601D
:102FF800601E007E30307E006618186600000E7075
:103008000E0062524A4600007E4242000408102028
:10301800000042427E00000402040040404040009C
:10302800000204000030482878007E48483000300C
:10303800484800003048487E003068581000107C2E
:1030480012040050A8A898007E0808700000487A6A
:1030580040000040807A007E1028400000427E40F8
:103068000078101870007808087000304848300060
:10307800F848483000304848F800780808100050F0
:1030880058682800083E484000384040780000381A
:103098004038007860607800483030480018A04018
:1030A8003800486858480000083C420000007E008C
:1030B8000000423C08003246534B004746534B0041
:1030C80041534B20004D534B2000BE3080C330800D
:1030D800C83080CD3080465251004348004D4F449F
:1030E8000042415544004348414E42570053594E0F
:1030F80043570020202020202020202020002020AE
:10310800202020202020002D2D2D2D0020202020C3
:1031180020202020202020202020202020202020A7
:10312800202020202020202020202020004C656EF8
:103138006774683A2000437572723A2000436E74CF
:033148003A20002A
:10269600AFFD743D5FF5FDAFFE74035FF5FE43804D
:1026A600C24390FC7F007E00EEFD24F85003022713
:1026B60029EE240A83F582EE240C83F583E473D590
:1026C600D7E3EFFB07131F26262626262727278074
:1026D6005243FD02AC8074FD5CF580804643FE04E7
:1026E600AC9074FB5CF590803A43FE08AC9074F7AE
:1026F6005CF590802E43FE10AC9074EF5CF59080F4
:102706002243FE20AC9074DF5CF590801643FE40B9
:10271600AC9074BF5CF590800A43FE80AC90747FE9
:102726005CF590AB807C00EBF4FBECF4FCEB30E169
:10273600027D01AB907C00EBF4FBECF4FCEB30E2A9
:10274600027D02AB907C00EBF4FBECF4FCEB30E397
:10275600027D03AB907C00EBF4FBECF4FCEB30E485
:10276600027D04AB907C00EBF4FBECF4FCEB30E573
:10277600027D05AB907C00EBF4FBECF4FCEB30E661
:10278600027D06AB907C00EBF4FBECF4FCEB30E74F
:10279600027D07AB807C00EBF4FBECF4FCEB30E64F
:1027A600027D08AB807C00EBF4FBECF4FCEB30E73D
:1027B600027D09EDB50602800DEF75F00AA42D9095
:1027C600314B93F582220E8E07BE08005003022677
:1027D600AE75820022122696AF82C007122696AEEA
:1027E60082D007EFB506028007122696AF8280EAEE
:1027F600AEFD743D5EF5FDAEFE74035EF5FE4380F0
:10280600C24390FC8F82221227DBE582FFB51402B9
:0B28160080048F1480027F008F82225C
:10314B0000004F4B4E4D01500000000059474320EB
:10315B003C2C033E0000005157455254554900008A
:10316B00000041534446484A0000000000825A5870
:10317B00564200000000000083848586000000009A
:10318B00000000025E5E00000000000000000A4C20
:10282100E582FF7012FE758200C006120FB2D0065B
:102831000EBE070040F022C3EF648094E1400F74A4
:10284100FA8FF063F08095F04004EF24E0FFEF335E
:1028510095E0FEEF24E0FFEE34FFFE8F538E54909F
:102861000006122B7FAF82AE837D008D037C00EBCF
:102871002FFBEC3EFCEB249BF582EC3431F583E439
:1028810093F582C007C006C005120FB2D005D0066D
:09289100D0070DBD060040D32262
:10319B00000000000000005F5F0000000003000360
:1031AB000000147F147F14000000000000002313A4
:1031BB00086462000000070000000000000000002F
:1031CB0000000000000000000000000000000000F4
:1031DB0000000000000000000000000000000000E4
:1031EB0000000000000000000000000000000000D4
:1031FB003E5149453E0000427F400000426151492B
:10320B0046002141454B31001814127F1000274511
:10321B00454539003C4A4949300001710905030015
:10322B00364949493600064949291E000036360001
:10323B000000005636000000081422410000141450
:10324B001414140041221408000002015109060055
:10325B003E415D494F007E0909097E007F4949497E
:10326B0036003E41414122007F4141413E007F49B2
:10327B00494941007F09090901003E41494979004B
:10328B007F0808087F0000417F410000304040402C
:10329B003F007F08142241007F40404040007F02E6
:1032AB000C027F007F0408107F003E4141413E002D
:1032BB007F09090906003C42523C40007F0919294D
:1032CB00460046494949310001017F0101007F4019
:1032DB0040407F000718601807003F4038403F0010
:1032EB00631C081C630003047C04030061615149E7
:1032FB0047000201510906000201510906000201B3
:10330B00510906000201510906000201510906008C
:10331B00020151090600020151090600020151097F
:10332B0006000201510906000201510906000201C3
:10333B00510906000201510906000201510906005C
:10334B00020151090600020151090600020151094F
:10335B000600020151090600020151090600020193
:10336B00510906000201510906000201510906002C
:10337B00020151090600020151090600020151091F
:10338B000600020151090600020151090600020163
:10339B0051090600020151090600020151090600FC
:1033AB0002015109060002015109060002015109EF
:1033BB000600020151090600020151090600020133
:1033CB0051090600020151090600020151090600CC
:1033DB0002015109060002015109060002015109BF
:1033EB000600020151090600020151090600020103
:1033FB00510906000201510906000201510906009C
:10340B0000000000000000000000000000000000B1
:10341B0000000000000000000000000000000000A1
:10342B000000000000000000000000000000000091
:10343B000000000000000000000000000000000081
:10344B000000000000000000000000000000000071
:10345B000000000000000000000000000000000061
:10346B000000000000000000000000000000000051
:10347B000000000000000000000000000000000041
:10348B000000000000000000000000000000000031
:0500EE00E4F515F51614
:10289A007E397FF48FD57E397FF48ED47E417FF4E2
:1028AA008FD37E417FF48ED27553007554187555B7
:1028BA000090F43975F000022AF97403B51506E49C
:1028CA00B51602800280047582FF22AE15AF160586
:1028DA0015E4B5150205168E82227A10E4FBFCE592
:1028EA008225E0F582E58333F583EB33FBEC33FC99
:1028FA00EB9553F5F0EC95544006FCABF04382019E
:10290A00DADD22F9E5534554455545566077780096
:10291A00C308E55620E73BE55325E0F553E5543374
:10292A00F554E55533F555E55633F556E582955395
:10293A00E5839554E5F09555E9955650D4C3E55687
:10294A0013F556E55513F555E55413F554E55313A8
:10295A00F553E5829553FCE5839554FDE5F09555CD
:10296A00FEE995564007F98EF08D838C82C3E556B1
:10297A0013F556E55513F555E55413F554E5531378
:10298A00F553D8CEE922FB7A20E4FCFDFEFFE5826E
:10299A002582F582E58333F583E5F033F5F0EB33F1
:1029AA00FB4017DAE98042E5822582F582E5833326
:1029BA00F583E5F033F5F0EB33FBEC33FCED33FD57
:1029CA00EE33FEEF33FFEC9553ED9554EE9555EF4C
:1029DA0095564013EC9553FCED9554FDEE9555FE36
:1029EA00EF9556FF438201DABEEB22122A98BC0009
:1029FA0003022D3AEF60FA30D502B2D1E583B4FF73
:102A0A0003022D50E582B4FF03022D5025834007AF
:102A1A002482400B022D3A2483145003022D50F5D0
:102A2A0082EA8DF0A4A8F0EA8EF0A428F8E435F042
:102A3A00F9EB8DF0A428E935F0F9E433CA8FF0A454
:102A4A0029F9EA35F0FAEBF88EF0A429F9EA35F01B
:102A5A00FAE433FBEC8DF0A429F9EA35F0FAE43B09
:102A6A00FBE88FF0A42AFAEB35F0FBE433CCFD8EB9
:102A7A00F0A42AFAEB35F0FBE43CFCED8FF0A42B32
:102A8A00FBEC35F0FC20E703122AC6022D19AA82B4
:102A9A00AB83A2F73392D1F5826002D2F7ACF0E5AC
:102AAA008124F9F8E6FD08E6FE0886F008E6A2F7B2
:0C2ABA003392D5F5836002D2F7AFF02212
:0600B800E478FFF6D8FD1C
:102AC6007804EC7011E58224F8500AF582E4C9CA4C
:102AD600CBFCD8EF22EC7820058220E713D58201C3
:102AE60022C3E933F9EA33FAEB33FBEC33FCD8EAD9
:102AF600158222AC82AD83AE54AF55BE0004EF60A2
:102B06000C1F0FE553122B64A3DEFADFF88C828DBF
:022B1600832218
:100096007914E94400601B7A0190349B785175937A
:1000A600F4E493F2A308B800020593D9F4DAF275E2
:0200B60093FFB6
:102B1800FCABF0AA83A982749EC2D1F582122AC6A0
:102B2800022D197F9E122B5230D103022D3AC3EF8A
:102B38009582500974FFF5F0F583F5822279001229
:102B48002E8189828A838BF0EC22AA82AB83A2F73A
:102B58003392D1F5826002D2F7ACF02220F711301F
:102B6800F6138883A88220F509F6A88375830022C6
:102B780080FEF280F5F022E5828553F0A4C582C07C
:102B8800F08554F0A4D0F025F0C5838553F0A42532
:102B980083F58322AAF0FBE5828553F0A4FCADF00F
:102BA800E5838553F0A42DFDE435F0FEE5828554D8
:102BB800F0A42DFDE5F03EFEE433FFEA8553F0A4D2
:102BC8002EFEE5F03FFFE5838554F0A42EFEE5F0E8
:102BD8003FFFE5828555F0A42EFEE5F03FFFEB852B
:102BE80053F0A42FFFEA8554F0A42FFFE583855501
:102BF800F0A42FFFE5828556F0A42F8EF08D838CEC
:102C08008222E553455460467A01E55325E0F553A1
:102C1800E554334012F554E5829553E583955440C5
:102C2800030A80E6C3E55413F554E55313F553C37B
:102C3800E5829553F5F0E58395544005F58385F0D5
:102C480082C3E55413F554E55313F553DAE1221220
:102C58002A987900E583B58202800D5003122D6809
:102C6800E583C39582122E81E5D0C465D020E11793
:102C7800EA2DFAEB3EFBEC3FFC50097401122E8161
:102C8800EC4480FC022D19C3EA9DFAEB9EFBEC9FF5
:102C9800FC500FC3E499F9E49AFAE49BFBE49CFC2A
:082CA800B2D1122AC6022D1957
:1000BE007800E84400600A79007593F0E4F309D8FB
:1000CE00FC7851E84404600C790590F000E4F0A34C
:0400DE00D8FCD9FA77
:102CB000FBC2D530E715D2D5E4C39582F582E49501
:102CC00083F583E495F0F5F0E49BFBE55630E717D8
:102CD000B2D5E4C39553F553E49554F554E49555B2
:102CE000F555E49556F556EB12299030D513FBE4D3
:102CF000C39582F582E49583F583E495F0F5F0E4DD
:102D00009B22E4AC83AB82FAF9748E022B217F8E76
:102D1000122B2DF58385F08222B98003EA13B3408C
:102D200010EA2401FAE43BFBE43CFC50047C8005FF
:102D300082BC000EBB000BBA0008E4F5F0F583F589
:102D40008222A2D1E582138CF092F78B838A8222B1
:102D5000E4F583F58275F080F4A2D11322E4F583C3
:102D6000F58275F0C0747F22E582C583F582A2D119
:102D700033A2D592D11392D5ECCFFCEBCEFBEACDAA
:102D8000FA22AA82AB83122E656003A380F8C3E502
:102D9000829AF582E5839BF58322122A9830D50228
:102DA000B2D1BF0009BC0003022D5D022D50BC0052
:102DB00003022D3AE583B4FF0BE582B4FF03022D35
:102DC0005D022D3AE582B4FF03022D50C395835076
:102DD00007247F400B022D3A2480145003022D500B
:102DE000F582C3ED9AEE9BEF9C40111582C3EA3346
:102DF000F9EB33FAEC33FBE433FC8005E4CCCBCACB
:102E0000F9C08275F019C3E99DEA9EEB9FEC94002E
:102E1000D5F002802D400EE99DF9EA9EFAEB9FFB6A
:102E2000EC9400FCC3B3E833F8E58233F582E58324
:102E300033F583C3E933F9EA33FAEB33FBEC33FCC4
:102E400080C4B3E4F938FAE43582FBE43583FCD07E
:0D2E500082500405827C80122AC6022D31BA
:0D00890075815C122EC4E5826003020086C2
:102E5D007F86122B2DF5822220F71430F6148883ED
:102E6D00A88220F507E6A88375830022E280F7E4A7
:102E7D009322E0226040F82582500274FFF582E82B
:102E8D0024F8501ECCCBCAF9E4CC24F85014CBCA8C
:102E9D00F9E4CB24F8500BCAF9E4CA24F8500379AD
:102EAD00002224086010F8C3EC13FCEB13FBEA13AB
:0B2EBD00FAE913F9D8F1227582002217
:00000001FF
