:0614000002148B024063A0
:01140B0032AE
:0114130032A6
:01141B00329E
:011423003296
:01142B00328E
:03143300023A0F6B
:01143B00327E
:011443003276
:03144B0002464115
:0314530002175A23
:03145B00021A3141
:011463003256
:03146B00023A92B0
:011473003246
:01147B00323E
:03148300024277AB
:0314E90002148664
:031486000226E754
:1014EC00AE82AF8375E10490DF3BE0FDBD01F89067
:1014FC00DF06EEF075E10290DF3BE0FFBF0DF82256
:10150C007E007F0090F007E0FCA3E0FD8E028F03CD
:10151C00C3EA9CEB9D503AEE2415FCEF34F0FD90A1
:10152C00F005E0F567A3E0F5688A828B83C007C0FD
:10153C0006C005C004124A95AA82AB83D004D0051C
:10154C00D006D0078C828D83EAF00EBE00B60F80D9
:10155C00B322AF82E59CC39FF59CE59C24FAF59CD5
:10156C00439E10D2BA22AF9E74EF5FF59E22AE82DC
:10157C00AF83E50824D65006904C57023AC090F041
:10158C0011E075F029A42487F58274F335F0F58306
:10159C00E508F090F011E075F029A42487FC74F3B1
:1015AC0035F0FD0CBC00010D7B008E678F687569F2
:1015BC000085086A756B008C828D838BF01249BC98
:1015CC0090F011E0FF0F90F011EFF0BF0500400517
:1015DC0090F011E4F022AE82AF8390F000E0FD6059
:1015EC001CBD01028017904C71C007C006123AC096
:1015FC0090F000E0F582123AF3D006D007C007C095
:10160C0006121572D006D00790F009E4F0E4A3F0AE
:10161C0090F009E0FCA3E0FD8C828D83C007C0062E
:10162C001216F7D006D00790DF3BE0FDBD0DF89009
:10163C00DF3AE0FD53057FBD6000402F90F009E0DC
:10164C00FCA3E0FD0CBC00010D90F009ECF0EDA347
:10165C00F0D29190000AC007C0061244EAC29190E1
:10166C00000A1244EAD006D00780A590F00074025C
:10167C00F090FAF0E0FAA3E0FBA3E0A3E090F00B0B
:10168C00EAF0EBA3F090F00FEEF0EFA3F02290F065
:10169C0000E4F090FAF0E0FCA3E0FDA3E0A3E090FE
:1016AC00F00BECF0EDA3F02290F0007404F090FA43
:1016BC00F0E0FCA3E0FDA3E0A3E090F00BECF0ED78
:1016CC00A3F02290F0007405F090F013E4F0E4A382
:1016DC00F090FAF0E0FCA3E0FDA3E0A3E090F00BA7
:1016EC00ECF0EDA3F075820002155EAE82AF83EED6
:1016FC002415F582EF34F0F583E0FF7E008F828EA7
:10170C00830214ECAE82AF8390F385EEF0EFA3F07E
:10171C00222290F009E0FEA3E0FF0EBE00010F9024
:10172C00F009EEF0EFA3F0C3EE9470EF94034008D1
:10173C0090F009E4F0E4A3F090F009E0FEA3E0FFE0
:10174C00EE2415F582EF34F0F583E0F58222C0210A
:10175C00C0E0C0F0C082C083C007C006C005C00492
:10176C00C003C002C001C000C0D075D00090FAE91F
:10177C00E02401F0A3E03400F090F001E0FEA3E0DF
:10178C00FF90FAE9E0FCA3E0FDECB5060CEDB50723
:10179C000890FAE9E4F0E4A3F090FAE9E0FEA3E0A3
:1017AC00FFBE0005BF0002800BBE0105BF0002801A
:1017BC006902191790FAE9E0FEA3E08E077E00ACEF
:1017CC009C7D00EC4206ED420790F00DEEF0EFA38D
:1017DC00F090F009E0FEA3E0FF0EBE00010F90F0C8
:1017EC0009EEF0EFA3F090F007E0FCA3E0FDC3EEF0
:1017FC009CEF9D400890F009E4F0E4A3F090DF3BEF
:10180C00E0FFBF1303021A1490F009E0FEA3E0FFFF
:10181C008E828F831216F7021A1490F000E0FFBF2D
:10182C0005028003021A149000191244EA90F45431
:10183C00741CF090F009E0FEA3E090F455EEF090EB
:10184C00F009E0A3E090F456F090F4577442F09055
:10185C00F458744CF090F4597441F090F45A744864
:10186C00F090F45B7442F090F45C744CF090F45D86
:10187C007441F090F45E7448F090F45F7442F09010
:10188C00F460744CF090F4617441F090F46274481C
:10189C00F090F4637442F090F464744CF090F4653E
:1018AC007441F090F4667448F090F4677442F090D0
:1018BC00F468744CF090F4697441F090F46A7448D4
:1018CC00F090F46B7442F090F46C744CF090F46DF6
:1018DC007441F090F46E7448F090F46F7420F075CD
:1018EC00151CE4F516F517F518F519F51A90F455BD
:1018FC00123D7A90F013E0FEA3E0FF0EBE00010F44
:10190C0090F013EEF0EFA3F0021A1490F000E0FF49
:10191C00BF03028065BF04028008BF05028003027A
:10192C001A1490F00BE0FEA3E0FF90FAF0E0FAA39B
:10193C00E0FBA3E0FCA3E0FD8E008F01E4FEFFEAD8
:10194C00C398FAEB99FBEC9EFCED9FFDC374649A73
:10195C00E49BE49CE49D5022904C9F123AC090F082
:10196C00007405F090FAF0E0FCA3E0FDA3E0FEA308
:10197C00E0FF90F00BECF0EDA3F090F012E075F0BE
:10198C0029A42487FE74F335F0FF8E828F83E060E8
:10199C0077A291B3920092919000191244EA90F0C0
:1019AC0012E075F029A42487FE74F335F0FF90DF64
:1019BC0004E05401FDB40100E4332EFDE43FFC8E41
:1019CC00828F83E0FE8E15E4F516F517F518F519E0
:1019DC00F51A8D828C83123D7A90F012E075F02905
:1019EC00A42487F58274F335F0F583E4F090F012BB
:1019FC00E0FF0F90F012EFF0BF0500400590F012E1
:101A0C00E4F0904CBD123AC0D0D0D000D001D0023E
:101A1C00D003D004D005D006D007D083D082D0F02C
:101A2C00D0E0D021323290F000E4F090F011F09040
:101A3C00F012F090F009F0E4A3F090F0057453F07C
:101A4C00E4A3F090F0077453F0E4A3F090F00DE4ED
:101A5C00F0E4A3F090F00BE4F0E4A3F090F0017448
:101A6C0006F0E4A3F090F003E4F0E4A3F090F00FA0
:101A7C00E4F0E4A3F090F013E4F0E4A3F012150CFE
:101A8C0090F000E4F0759DDC859E9E439E0443CB54
:101A9C001022021A32901E8B122BF190FAF0E4F005
:101AAC00E4A3F0E4A3F0E4A3F0021A9E90F000E0AB
:101ABC00FFBF0003021D9DBF0103021C84BF020374
:101ACC00021B8CBF0303021D9DBF0403021D9DBF9F
:101ADC000503021D7EBF40028006BF4102803722F3
:101AEC0075E10490DF3BE0FFBF01F890DF0374E584
:101AFC00F090DF047404F090DF077412F090DF08AC
:101B0C00E4F090DF147410F090DF17E0FF44C0F0A5
:101B1C0090F0007441F07F0090F013E0FDA3E0FE24
:101B2C008F037C00C3EB9DEC9E502F90DF06EFF0F3
:101B3C0075E10290DF3BE0FEBE0DF8900002C0079D
:101B4C001244EAD007EF24E2FDE434F6FE90DF3ACB
:101B5C00E0FC8D828E83F00F80BE75E10490DF3B3C
:101B6C00E0FFBF01F890F013E0FEA3E08E33753474
:101B7C00007532017535E27536F675824302271908
:101B8C00E5147003021C7D90FAEE740DF0AF9A749C
:101B9C00FE5FF59AE51420E403021C7D90F00074BE
:101BAC0003F090FAEBE0FEA3E08E8212155E904CEF
:101BBC00CB123AC090FAEBE0FEA3E0FF8E828F834B
:101BCC00123B0E90F6E1E025E0FEE424E2FFEE3459
:101BDC00F6FE8F828E83123AC090F6E1E0FFB401DC
:101BEC0000E433FF24E6FDE434FAFE8D828E83E0BC
:101BFC00707890DF04E0FE30E03B8F06EE2EFDE4C3
:101C0C0024E2F582ED34F6F583E0FE8E3375340074
:101C1C008F06EE2EFDE424E2FEED34F6FD74012E6B
:101C2C00F535E43DF536753201758242C007122751
:101C3C0019D007802890DF02E0FE8E337534008FB8
:101C4C0006EE2EFDE424E2FEED34F6FD8E358D36E7
:101C5C00753201758242C007122719D007EF24E6AE
:101C6C00F582E434FAF5837401F0AF1474EF5FF588
:101C7C0014751400439A0122E5147003021D779029
:101C8C00FAEE740DF0AF9A74FE5FF59AE51420E449
:101C9C0003021D7790F6E1E0FFB40100E433FF90FE
:101CAC004CE0C007123AC0D0078F06EE2EFDE4249C
:101CBC00E2FEED34F6FD8E828D83C007123B0ED012
:101CCC0007EF2FFEE424E2FFEE34F6FE8F828E83C4
:101CDC00123AC090F6E1E0FFB40100E433FF24E6D1
:101CEC00FDE434FAFE8D828E83E0707890DF04E0A0
:101CFC00FE30E03B8F06EE2EFDE424E2F582ED345F
:101D0C00F6F583E0FE8E337534008F06EE2EFDE47F
:101D1C0024E2FEED34F6FD74012EF535E43DF53686
:101D2C00753201758242C007122719D0078028909E
:101D3C00DF02E0FE8E337534008F06EE2EFDE424B8
:101D4C00E2FEED34F6FD8E358D367532017582422C
:101D5C00C007122719D007EF24E6F582E434FAF510
:101D6C00837401F0AF1474EF5FF514751400439A8B
:101D7C00012290F013E0FEA3E0FF90F007E0FCA33B
:101D8C00E0FDC3EE9CEF9D50012290F0007404F036
:101D9C0022E51470012290FAEE740DF0E514543023
:101DAC0070012290F6E1E0FFB40100E433FF24E679
:101DBC00FDE434FAFE8D828E83E06003021E5690A1
:101DCC00DF04E0FE30E03B8F06EE2EFDE424E2F56E
:101DDC0082ED34F6F583E0FE8E337534008F06EE1B
:101DEC002EFDE424E2FEED34F6FD74012EF535E40F
:101DFC003DF536753201758242C007122719D0079E
:101E0C00803B90FAF4E0FE600A90FAF7E0FDA3E064
:101E1C00FE800890DF02E0FCFD7E008F04EC2CFBC2
:101E2C00E424E2FCEB34F6FB8C358B367532018DF9
:101E3C00338E34758242C007122719D007EF24E67F
:101E4C00F582E434FAF5837401F0AF1474CF5FF5C6
:101E5C001422E58290F470F090F6B7E054FDF09007
:101E6C00F6B3E0FF90F6B4E0F53290F470E0FE8E3D
:101E7C0033753400850B35850C368F82022719900B
:101E8C00F6AEE0FEA3E0FF90F6B3E0FDBD420280AB
:101E9C000302243390F6B4E0FDBD0203021F70BDB3
:101EAC000303022136BD0503022011BD06030220E7
:101EBC00BFBD07030220D5BD08030220E4BD090302
:101ECC0002210DBD1003022213BD1103022282BD9B
:101EDC0012030222A7BD13030222FEBD1403022328
:101EEC001BBD150302232ABD1603022363BD170372
:101EFC0002215ABD180302226DBD20030223A6BD88
:101F0C00210302241BBD2203022382BD23030222D0
:101F1C00CBBD24030222E6BD40028008BD410280F5
:101F2C0031022429C007C006121572D006D00790C2
:101F3C00F0007440F08E828F83E0FD7C0090F013F3
:101F4C00EDF0ECA3F08E0B8F0C758201121E5E026D
:101F5C00243390F000E4F08E0B8F0C758201121E6E
:101F6C005E02243390F000E06009904CFA123AC003
:101F7C000224338E828F83E0FDA3AE82AF837C007C
:101F8C0090F471EDF0ECA3F08E828F83E0FBA3AEA6
:101F9C0082AF838B02E42DFDEA3CFC90F471EDF0F2
:101FAC00ECA3F08E828F83E0FBA3AE82AF837A002A
:101FBC008E828F83E0F9A3AE82AF8389008801E41F
:101FCC002BF517E93AF5188E828F83E0FBA3AE82CE
:101FDC00AF837A008E828F83E0F9A3AE82AF8389C0
:101FEC00008801E42BF519E93AF51A8D158C168E3B
:101FFC00828F83123D7A750B71750CF47582011208
:10200C001E5E0224338E828F83E0FDA3AE82AF83EB
:10201C0090FAF7EDF0E4A3F08E828F83E0FC7D0064
:10202C0090FAF7E0FAA3E0FB90FAF7ED2AF0EC3B1C
:10203C00A3F090FAF7E0FCA3E0FD4C604090FAF4BA
:10204C007401F090FAF5E0FCA3E0FD4C7046123CF4
:10205C00AF90FAF7E0FCA3E0FD90FAF5ECF0EDA3FD
:10206C00F090FAF5E0FCA3E090DF02ECF090DF04D6
:10207C00E054FCF0E04402F0123C6B801790FAF450
:10208C00E4F090FAF5F0E4A3F090FAF7E4F0E4A3AE
:10209C00F0123CAF90F6B3E0FD90F6B4E0F532757B
:1020AC0035F77536FA7533017534008D82122719A0
:1020BC000224338E828F83E090FB06F08E0B8F0C04
:1020CC00758201121E5E022433750B06750CFB75AE
:1020DC008201121E5E02243390FB06E0FD74F05D5B
:1020EC00F5687567068E828F83C007C00612476B32
:1020FC00D006D0078E0B8F0C758210121E5E022438
:10210C003390FB06E0FD74F05DF5687567048E8214
:10211C008F83C007C00612476BD006D0078E0B8F7B
:10212C000C758210121E5E0224338E828F83E0FDAA
:10213C007C008D828C83C007C006121710D006D08D
:10214C00078E0B8F0C758201121E5E0224338E8259
:10215C008F83E0FDA3AE82AF838D047D0090F4717C
:10216C00ECF0EDA3F0C374299CE49D5015904C57F2
:10217C00123AC0750B71750CF4758201121E5E0259
:10218C00243390F011E075F029A42487FA74F33508
:10219C00F0FB8A828B83E06015904D1F123AC0755C
:1021AC000B71750CF4758201121E5E0224338C01C6
:1021BC008A828B83E9F090F011E075F029A42487D2
:1021CC00FA74F335F0FB0ABA00010B8B017B008E1D
:1021DC00678F687569008C6A8D6B8A8289838BF036
:1021EC001249BC90F011E0FD0D90F011EDF0BD0521
:1021FC0000400590F011E4F0750B71750CF47582CC
:10220C0001121E5E0224338E828F83E0FD7C0090CF
:10221C00F005EDF0ECA3F090F005E0FAA3E0FBC3C1
:10222C0074709D74039C402A74022EFEE43FFF8E52
:10223C00678F687569008A6A8B6B90F01575F00072
:10224C001249BC750B05750CF0758202121E5E02EC
:10225C002433750B40750C4D758208121E5E0224DA
:10226C003390F005E0FCA3E0750B15750CF08C8237
:10227C00121E5E02243312171E7C008C831216F77A
:10228C0090F009E0FCA3E0FDEC2415F50BED34F027
:10229C00F50C758201121E5E0224338E828F83E050
:1022AC00FD7C008D828C83C007C0061214ECD00616
:1022BC00D0078E0B8F0C758201121E5E02243375B3
:1022CC008200C007C00612155ED006D0078E0B8F99
:1022DC000C758201121E5E022433C007C006121553
:1022EC0072D006D0078E0B8F0C758201121E5E0207
:1022FC0024338E828F83E0FD7C0090F001EDF0ECB6
:10230C00A3F08E0B8F0C758201121E5E02243375A6
:10231C000B01750CF0758204121E5E0224337C00D6
:10232C007DF07B008E828F83E0F97A0089678A6862
:10233C00756900756A15756B008C828D838BF0C086
:10234C0007C0061249BCD006D0078E0B8F0C7582C5
:10235C0015121E5E02243390FAE9E0FCA3E0FD9016
:10236C00F003ECF0EDA3F0750B00750CF075821515
:10237C00121E5E0224338E828F83E0FD7C008D82E0
:10238C008C83C007C0061215E2D006D0078E0B8FC7
:10239C000C758201121E5E02243390FAF0E0FAA34F
:1023AC00E0FBA3E0A3E090F00BEAF0EBA3F08E824D
:1023BC008F83E0FD90F000F090F000E0FCED24FA4B
:1023CC004041EC2C2C9023D5730223E70223E70227
:1023DC0023E70224010224010223F4C007C00612E1
:1023EC001572D006D007801BC007C0061216CFD0BE
:1023FC0006D007800E758200C007C00612155ED08D
:10240C0006D0078E0B8F0C758201121E5E8018751C
:10241C000B00750CF0758201121E5E800A8E0B8FFC
:10242C000C758201121E5E900000222290F6BCE018
:10243C00FFBF013990F69CE0FEA3E0FF90F6BFE0F1
:10244C00FCA3E0FD90F69FE0FAA3E0FBEA4B601DD5
:10245C008E828F83E0F9A3AE82AF838C828D83E969
:10246C00F0A3AC82AD831ABAFF011B80DF90F6A5F6
:10247C00E054FDF090DE11E04408F02285820D85D9
:10248C00830E85F00F124BF4FC20E7030225C37476
:10249C0001250DFAE4350EFBAC0F8A828B838CF090
:1024AC00124BF4FC601EBC0102802BBC0202803D6E
:1024BC00BC03028078BC0403022566BCFE03022523
:1024CC00820225C375370275380090FAEE75F0005C
:1024DC001229BA0225C390DE00E0FC7B0075392876
:1024EC00753A008C828B83122A190225C37402253B
:1024FC000DFAE4350EFBAC0F8A828B838CF0124BF9
:10250C00F4FAA3124BF4FB7406250DF8E4350EF91E
:10251C00AC0F888289838CF0124BF4F539A3124BE3
:10252C00F4F53A8A828B83122A190225C3AA0DABC1
:10253C000EAC0F7406250DF8E4350EF9AF0F88823A
:10254C0089838FF0124BF4F537A3124BF4F5388ACC
:10255C00828B838CF01229BA805D90F69CE0FDA3EF
:10256C00E0FEA3E0FF753910753A008D828E838FE3
:10257C00F0122A1980417402250DFDE4350EFEAFD0
:10258C000F75674875684D756980756A04756B00C1
:10259C008D828E838FF01245B1E5828583F045F0F4
:1025AC006012D29190012C1244EAC29190012C122B
:1025BC0044EA800375C9839000002290DF2FE4F079
:1025CC0090DF30F090DF31F090DF00740CF090DF92
:1025DC0001744EF090DF0274FFF090DF037440F052
:1025EC0090DF04E4F090DF05F090DF06F090DF0759
:1025FC007406F090DF08E4F090DF097424F090DFAB
:10260C000A743AF090DF0B74F1F090DF0C74CAF09E
:10261C0090DF0D74A3F090DF0E7401F090DF0F7457
:10262C0023F090DF107411F090DF117436F090DF0E
:10263C00127407F090DF13743FF090DF147418F0ED
:10264C0090DF157417F090DF16746CF090DF177430
:10265C0003F090DF187440F090DF197491F090DF64
:10266C001A7456F090DF1B7410F090DF1C74E9F0B4
:10267C0090DF1D742AF090DF1EE4F090DF1F741FB2
:10268C00F090DF237488F090DF247431F090DF2514
:10269C007409F090DF2E74C0F090DF07740CF0908A
:1026AC00DF097425F090DF0A7495F090DF0B7455F8
:1026BC00F090DF1A74B6F090DF1B7410F090DF1CF2
:1026CC0074EAF090DF1D742AF090DF1EE4F090DFC6
:1026DC001F741FF02212460F02463B1226E1123BDA
:1026EC0058124668122985123CE6121AA11229B416
:1026FC00D2AF122854D2919000021244EAC29190A7
:0D270C00000A1244EA1238B1121AB880F81F
:104C570046485353786D6974206D65737361676552
:104C670020746F6F206C6F6E670046485353207334
:104C77007461746520656E746572696E6720535937
:104C87004E4348494E472066726F6D2077726F6EAC
:104C9700672073746174650053594E43485F4D41F3
:104CA70053544552202D3E2053594E43494E474DAC
:104CB70041535445520046485353786D69742064F4
:104CC7006F6E65006E6574776F726B207061636BD2
:104CD70065742873796E6329006E6574776F726BDC
:104CE700207061636B657428646973636F7665729E
:104CF700792900637261702C20706C65617365207F
:104D07007573652046485353786D6974282920695F
:104D17006E737465616421007374696C6C207761CC
:104D27006974696E67206F6E20746865206C6173A3
:104D370074207061636B6574004E4F204445414C8D
:064D4700005253544E001F
:10271900AF827E0190DE0E7405F0E5334534700317
:102729000228507C107D2790DE11E0FB30E00D90EF
:10273900FAEF7401F01CBCFF011D80EBEC4D701425
:10274900D2919003E81244EAC2919003E81244EA54
:1027590090FFFF22BE012F7E0090DE2A7440F0EF29
:10276900F0E532F0AC337D0090DE2AECF0E534F090
:10277900C3743B9533E4953450067C3B7D00801A45
:10278900AC33AD348014C374409533E495345006AA
:102799007C407D008004AC33AD347480252942D659
:1027A900852682852783AA35AB368B01E9F08526F4
:1027B90082852783A3EAF0852682852783A3A374CC
:1027C900DEF0852682852783A3A3A3742AF08526B4
:1027D90082852783A3A3A3A3A3ECFBF08526828587
:1027E9002783A3A3A3A3E054E0F08526828527834A
:1027F900A3A3A3A3A3A3A3E0543F4440F085268247
:10280900852783A3A3A3A3A3A3A3E054CFF0E5291A
:1028190042D6E52942D7E52955D160FAE529F4528E
:10282900D190DE0E7405F090DE11E0FB4401F0E575
:1028390033C39CF533E5349DF534EC2535F535ED99
:102849003536F53602272390000022E5227005125D
:1028590038B180F722AFBE747F5FF5BE43BE80906A
:10286900DE0B74F7F090DE0774FFF090DE0974FF59
:10287900F0438C10AF8C74FE5FF58CD2BD439A0285
:10288900758900C2C5758B00C2E843A90243B90224
:10289900852682852783A3A3A3A3E054E0F0852698
:1028A90082852783A3A3A3A3A3A3E0549F4420F075
:1028B900852682852783A3A3A3A3A3A3A3E0440812
:1028C900F0852682852783A3A3A3A3A3A3A3E0540A
:1028D900FC4401F090DE01E054FEF0E4F525F52317
:1028E900F524F52290DE0EE4F090DE107404F090E9
:1028F900DE137404F090F6A6E4F090F6A5F090F6D5
:102909009AF0E4A3F090F69C7473F074F4A3F0E4E5
:10291900A3F090F69FE4F0E4A3F090F6A1E4F09020
:10292900F6A2F090F6A3F0E4A3F090DE0E7405F0A1
:1029390090DE107408F090DE137408F090DE12E057
:102949004480F090F6B8E4F090F6B7F090F6ACF069
:10295900E4A3F090F6AE7493F074F4A3F0E4A3F05A
:1029690090F6B1E4F0E4A3F090F6B3E4F090F6B495
:10297900F090F6B5F0E4A3F0439A0222123B828567
:1029890082288528F005F07401800225E0D5F0FB46
:10299900F529E52875F008A424C9F52674F635F05B
:1029A900F52790FAEE7402F002285ED29022C290C6
:1029B90022AD82AE83AFF090F6A6E06034D291905A
:1029C90003E81244EAC2919003E81244EAD29190D2
:1029D90003E81244EAC2919003E81244EAD29190C2
:1029E90003E81244EAC2919003E81244EA90FFFF17
:1029F9002290F697EDF0EEA3F0EFA3F090F69AE5AA
:102A090037F0E538A3F090F6A67401F090000022A3
:102A1900AE82AF8390F6A6E06034D2919003E812BB
:102A290044EAC2919003E81244EAD2919003E81271
:102A390044EAC2919003E81244EAD2919003E81261
:102A490044EAC2919003E81244EA90FFFF227D0014
:102A590090F697EEF0EFA3F0EDA3F090F69AE53932
:102A6900F0E53AA3F090F6A67401F0900000227FF9
:102A79000290DE0EE4F090F69AE0FDA3E0FEC37446
:102A8900209DE49E50047C2080048D047F0A8C02E2
:102A99007B00EDC39AFDEE9BFE90F69AEDF0EEA356
:102AA900F08C06EE603690F697E0FBA3E0FCA3E01D
:102AB900FD8B828C838DF0124BF490DE20F090F622
:102AC90097E0FBA3E0FCA3E0FD0BBB00010C90F633
:102AD90097EBF0ECA3F0EDA3F01E80C790DE11E0B8
:102AE9004FF090F69AE0FEA3E0FF4E700590F6A62F
:102AF900E4F02290F6A67402F07582002290F69C0A
:102B0900E0FEA3E0FF90DE11E0FDB40100E433FD37
:102B190020E0F290DE0EE4F090DE16E0FD7C0090FD
:102B2900F69FEDF0ECA3F090F6A5E0FD30E11190F1
:102B3900F6A67403F090DE11E04404F090FFFF2242
:102B490043050290F6A5EDF090F69FE0FCA3E0FDA9
:102B5900C374209CE49D5018D29190012CC007C0E9
:102B6900061244EAC29190012C1244EAD006D00719
:102B790090F69FE0FCA3E0FDEC4D601690DE20E0AE
:102B8900FB8E828F83F0A3AE82AF831CBCFF011D35
:102B990080E6E52C452D6009852C82852D8312144C
:102BA9008990F69FE0FEA3E0FFC3EE9420EF940026
:102BB900501CE52A452B6009852A82852B8312142E
:102BC9008990DE11E0FF4408F090F6A6E4F090DE6B
:102BD90011E04440F090F69FE0FEA3E08E82F58379
:102BE9002285822E85832F22858230858331227525
:102BF900370175380090002575F0400229BAAD8279
:102C0900AE83AFF074022DFDE43EFE8D828E838F7C
:102C1900F0124BF4FDA3124BF48D2575220122AF5E
:102C2900827D877E4D8D828E83A3E090F6C1F0ACC4
:102C39006790F6C1E0FBBBFF02803EEBB50723ECD2
:102C4900700890F6C174FFF080E71C8D828E83E0D6
:102C59002DFDE43EFE8D828E83A3E0FB90F6C1F04C
:102C690080CF8D828E83E02DFDE43EFE8D828E83A2
:102C7900A3E0FB90F6C1F080B88D828E8322858215
:102C89003B85833C85F03D7402253BFAE4353CFBEA
:102C9900AC3D8A828B838CF0124BF4F8A3124BF46F
:102CA900F9893E753F007402B53E06E4B53F0280DE
:102CB900227407B53E06E4B53F028002803674AF40
:102CC90058FE7F008A828B838CF0EE124A5DA3EF57
:102CD900124A5D8A828B838CF0124BF4FAA3124B51
:102CE900F4F5828A67122C28AE82AF83A3A3E0FC95
:102CF9007D00801089828867122C28AE82AF83E01C
:102D0900FBFC7D007406253BF9E4353CFAAB3D89B3
:102D1900828A838BF0124BF4FAA3124BF4FBC3EAB9
:102D29009CEB9D50048A048B05EC4D700890DE11D4
:102D3900E0FB4420F08C398D3A8E828F83022A1968
:102D49007F408F057E007F4090DE0EE4F090DE111B
:102D5900E0FC30E40D90F6A6E4F090DE11E0FB44CF
:102D690080F0EC30E23090DE11E4F090FAEF740478
:102D7900F090F6A6E4F0D291900014C007C006C006
:102D890005C0041244EAC2919000141244EAD00426
:102D9900D005D006D00790F6A6E0FBBB0325D2915B
:102DA900900032C007C006C005C0041244EAC291AF
:102DB9009000321244EAD004D005D006D00790F62C
:102DC900A6E4F090F6A6E060030230D8EC20E00318
:102DD9000230D890DE0EE4F090DE16E0FCFBEB60EA
:102DE9001690DE20E0FA8D828E838FF0124A5DA361
:102DF900AD82AE831B80E7E540FF20E703022F8FFA
:102E090074605FFE6015BE2003022F46BE400302B8
:102E19002F51BE6003022F760230C2741F5FFC700F
:102E290047AE41BE0002801CBE06028005BE0826D0
:102E3900800C90004075F040122C870230C2122B92
:102E4900F80230C2753702753800904D6575F0800B
:102E59001229BA0230C27E407D007B408E828D836A
:102E69008BF0123ABF0230C2BC0149AE41BE00022A
:102E79008005BE0A268012753702753800904D65A7
:102E890075F0801229BA0230C27537017538009081
:102E99004D6875F0801229BA0230C290DE11E04403
:102EA90020F07E407D007B408E828D838BF0123A2C
:102EB900BF0230C2BC023AAE41BE00028008BE1257
:102EC900030230C28012753702753800904D65755E
:102ED900F0801229BA0230C290DE11E04420F07E5F
:102EE900407D007B408E828D838BF0123ABF023089
:102EF900C2BC032FE4B54112753702753800904DF5
:102F09006575F0801229BA0230C290DE11E04420C2
:102F1900F07E407D007B408E828D838BF0123ABF1C
:102F29000230C27E407D007B408E828D838BF01201
:102F39003ABF90DE11E0FE4420F00230C290DE116B
:102F4900E0FE4420F00230C2E52E452F6013122F17
:102F59005C800BC02EC02F90004075F040220230DB
:102F6900C290004075F0401230EF0230C290DE117D
:102F7900E04420F07E407D007B408E828D838BF083
:102F8900123ABF0230C274605FFE6015BE200302B0
:102F99003070BE4003023089BE60030230AC02309B
:102FA900C2741F5FFC704DAF41BF01030230C2BF45
:102FB90003030230C2BF0502800BBF07030230C200
:102FC900BF0917800990DE00E542F00230C2900087
:102FD9004075F040122C070230C27F407E007D40D0
:102FE9008F828E838DF0123ABF90DE11E0FF44206C
:102FF900F00230C2BC012EAF41BF01030230C2BF93
:1030090003030230C2BF11030230C27F407E007D3C
:10301900408F828E838DF0123ABF90DE11E0FF441B
:1030290020F00230C2BC0227AF41BF01030230C207
:10303900BF03030230C27F407E007D408F828E83B2
:103049008DF0123ABF90DE11E0FF4420F0806A90C3
:10305900DE11E04420F07F407E007D408F828E8328
:103069008DF0123ABF80527F407E007D408F828E64
:10307900838DF0123ABF90DE11E0FF4420F08039D1
:10308900E52E452F6012123094800BC02EC02F9070
:10309900004075F04022802190004075F0401230C8
:1030A900EF801690DE11E04420F07F407E007D40E5
:1030B9008F828E838DF0123ABF90DE11E0FF44407B
:1030C900F0E5464547700890DE11E0FF4408F090AE
:1030D900F6A6E0FFBF0103122A7890F6A6E0FFBF2B
:1030E9000203022B062285824885834985F04A120C
:1030F9004BF4FC20E70302322E74012548FAE4352B
:1031090049FBAC4A8A828B838CF0124BF4FC601E1B
:10311900BC0102802BBC0202803DBC03028078BC4A
:1031290004030231CEBCFE030231EB02329875373B
:103139000275380090FAEE75F0001229BA02329839
:1031490090DE00E0FC7B00753928753A008C828B93
:1031590083122A1902329874022548FAE43549FB88
:10316900AC4A8A828B838CF0124BF4FAA3124BF48B
:10317900FB74062548F8E43549F9AC4A8882898305
:103189008CF0124BF4F539A3124BF4F53A8A828B81
:1031990083122A19023298AA48AB49AC4A74062507
:1031A90048F8E43549F9AF4A888289838FF0124B90
:1031B900F4F537A3124BF4F5388A828B838CF0121D
:1031C90029BA02329890F69CE0FDA3E0FEA3E0FF45
:1031D900753910753A008D828E838FF0122A190283
:1031E900329874022548FDE43549FEAF4A75676A8D
:1031F90075684D756980756A04756B008D828E835B
:103209008FF01245B1E5828583F045F06012D291C5
:1032190090012C1244EAC29190012C1244EA806F69
:1032290075C983806A90F6BCE0FFBF015A74022514
:1032390048FDE43549FEAF4A8D828E838FF0124BEB
:10324900F4FDA3124BF4FE90DE0EE4F090DE16E0DE
:10325900FF7C00751D088F828C83C007C006C005DE
:10326900C004124531D004D005D006D007EF4C6018
:103279001690DE20E0FB8D828E83F0A3AD82AE83B3
:103289001FBFFF011C80E690F6A5E054FDFFF090FA
:1032990000002290F6B7E0FF30E10A90FAEF7405DA
:1032A900F090FFFF2290DE0E7405F090DE16E0FF2D
:1032B9008F4B754C0090DE17E0FCE4254BF54BEC89
:1032C900354CF54C90F6B5E0FCA3E0FD4C705A90F6
:1032D900F6B1E4F0E4A3F090DE2AE090F6B3F090C2
:1032E900DE2AE090F6B4F090DE2AE0FD7C0090F64C
:1032F900B5EDF0ECA3F090DE2AE0FAE4FB2DFDEA4F
:103309003CFC90F6B5EDF0ECA3F0E54B24FCF54B55
:10331900E54C34FFF54CC374049D74029C500A902B
:10332900F6B57404F07402A3F0E52955D16012D200
:10333900919000141244EAC2919000141244EA8058
:10334900E890F6AEE0FBA3E0FCA3E090F6B1E0FA6A
:10335900A3E0FFEA2BFBEF3CFC7480252942D685CC
:10336900268285278374DEF0852682852783A374C8
:103379002AF0852682852783A3A38C07EFF085266B
:1033890082852783A3A3A3EBF0852682852783A3C0
:10339900A3A3A3A3A3A3E0543FF085268285278393
:1033A900A3A3A3A3A3A3A3E054CF4410F0740525BA
:1033B90026FEE43527FF90DE16E0FD8E828F83ED31
:1033C900F074042526FEE43527FF90DE17E08E828F
:1033D9008F83541FF5F0E054E045F0F090F6B1E02A
:1033E900FEA3E0FFEE254BFCEF354CFDC374049CB6
:1033F90074029D500B7404C39EF54B74029FF54CE7
:10340900C37440954BE4954C502690FAEF7406F03E
:1034190090DE14E054FEF0751D049000051245314C
:10342900751D10854B82854C8312453190FFFE2214
:10343900E52942D6E52942D7E54B2EFEE54C3FFF6B
:1034490090F6B1EEF0EFA3F0E52955D160FAE52940
:10345900F452D190F6B1E0FEA3E0FF90F6B5E0FC9E
:10346900A3E0FDC3EE9CEF9D402B90F6B7E044022C
:10347900F090F6B5E4F0E4A3F090DE0E7405F0AE3A
:103489002374BF5524FF8E238F2490DE14E054FE4D
:10349900F09000012290DE0E7405F0AE2374BF5542
:1034A90024FF8E238F2490DE14E054FEF090000058
:1034B9002290F6B7E0FF20E1012290F6AEE0F54F49
:1034C900A3E0F55090F6B3E0FCBCFF02800302389C
:1034D9009A90F6B4E0FBBB8000500302387BEB24E2
:1034E90070500302387BEB2480FA240A83F582EAC0
:1034F900241483F583E47320A51D37544D6D83A6E9
:103509007B7B7B7B7BF62F3535373736373737373C
:1035190038383838383738854F82855083E0FAA3F0
:1035290085824F8583508A017A0090F6B5E9F0EAE1
:10353900A3F0854F82855083E0F8A385824F858368
:10354900508806E429F9EE3AFA90F6B5E9F0EAA3CB
:10355900F0854F82855083E0FEA385824F85835095
:103569008E4D754E00E0FEE4254DF54DEE354EF5D8
:103579004E854D4F854E5090F6B3E0FE90F6B4E07F
:10358900F53289338A34854F358550368E82122734
:103599001990F6B5E4F0E4A3F0023892854F8285DC
:1035A9005083E0FEA385824F8583508E4D754E0072
:1035B900E0FEA385824F8583508E05E4254DF54DA8
:1035C900ED354EF54EAD4DAE4E90F6B9EDF0EEA39C
:1035D900F090F6B1E0FDA3E0FEED24FEF54DEE34EA
:1035E900FFF54E854F53855054854D51854E52E513
:1035F900514552603790F6B9E0F8A3E0FA74012812
:10360900F9E43AFE90F6B9E9F0EEA3F08553828524
:103619005483E0FEA385825385835488828A83EE8E
:10362900F0155174FFB55102155280C390F6B3E0FD
:10363900FE90F6B4E0F5327535B57536F675330298
:103649007534008E82122719023892EF20E23685EE
:103659004F82855083E0FFA385824F8583508F4D2C
:10366900754E00E0FFA385824F8583508F06E4FFE6
:10367900254DF54DEE354EF54EAD4DAE4E90F6B9A4
:10368900EDF0EEA3F090F6B5E0FEA3E0FF8E4D8FCE
:103699004EC37440954DE4954E5006754D40754E98
:1036A90000EEC3954DFEEF954EFF90F6B5EEF0EFA7
:1036B900A3F0AE4FAF50854D53854E54E553455455
:1036C900603390F6B9E0F8A3E0F9740128FAE43917
:1036D900FD90F6B9EAF0EDA3F08E828F83E0FDA3A9
:1036E900AE82AF8388828983EDF0155374FFB55399
:1036F90002155480C790F6B3E0FF90F6B4E0F532B6
:103709007535B57536F67533027534008F82122713
:103719001902389290F6B1E0F533A3E0F5348B3213
:10372900854F358550368C821227190238927535A6
:103739006F75364D8B3275330D7534008C821227B7
:103749001902389290FAF0E0FAA3E0FDA3E0A3E0B1
:103759008A358D368B327533047534008C82122785
:103769001902389275355475364D8B32753311758A
:1037790034008C8212271902389290F6B1E0F533A1
:10378900A3E0F5348B32854F358550368C8212276C
:10379900199000C81244EA123BA2023892854F825E
:1037A900855083E0FFA385824F858350BF02028045
:1037B9000ABF03028011BF04118005123C6B800A05
:1037C900C291123CAF8003123C8890F6B3E0FF909F
:1037D900F6B4E0F53290F6B1E0F533A3E0F53485BF
:1037E9004F358550368F8212271902389290F6B5D7
:1037F9007401F0E4A3F0754F367550DF90F6B3E02D
:10380900FF90F6B4E0F53290F6B5E0F533A3E0F5B4
:1038190034854F358550368F8212271990F6B5E4D5
:10382900F0E4A3F08063AD4FAE507F0075677D75FE
:10383900684D756980756A09756B008D828E838FF5
:10384900F01245B1E5828583F045F0703C75C98079
:1038590090F6B3E0FF90F6B4E0F53290F6B1E0F5FA
:1038690033A3E0F534854F358550368F82122719F9
:10387900801790F6B1E0F533A3E0F5348B32854F2C
:10388900358550368C8212271990F6B7E054FDF031
:1038990022E53045316009853082853183121489EA
:1038A90090F6B7E054FDF022E52330E011752202CD
:1038B90074FE5523FEAF248E238F2443BE01E523D6
:1038C9005406602C90FAEE740AF075220374FD55C3
:1038D90023FEAF248E238F2490DE01E04404F09070
:1038E90000081244EA90DE01E0FF54FBF075220162
:1038F90090DE0EE4F090DE11E0FF30E21D90DE1163
:10390900E0FF54DBF090F69AE4F0E4A3F090F69F20
:10391900E4F0E4A3F090F6A6E4F090DE0E7405F06E
:1039290090DE11E0FF30E52390DE11E0FF54CFF087
:1039390090FAEF7408F090F6ACE4F0E4A3F090F696
:10394900B1E4F0E4A3F090F6B8E4F090DE14E0FFFF
:1039590030E62390DE14E0FF549FF090FAEF7408EC
:10396900F090F6ACE4F0E4A3F090F6B1E4F0E4A34F
:10397900F090F6B8E4F0E52320E2057404B52214CA
:1039890012285E90FAEE740BF074FB5523FEAF24F7
:103999008E238F24E52330E411122D4974E7552332
:1039A900FE740F5524FF8E238F24E52430E62190E1
:1039B900FAEE740CF012329CAE82AF83E4BE0104BD
:1039C900BF000104FFBFFF028006BF01031234BA22
:1039D900E52354E07006E52454BD602990FAEF749C
:1039E90009F0751D0890004412453185238285240C
:1039F90083751D1012453174E05523FE74BD55249D
:103A0900FF8E238F2422C0E0C082C083C007C00676
:103A1900C005C004C0D075D000E5BE30E6FB90DE1D
:103A290006E0FF7E00E5234207E52442068F238E48
:103A39002490DE02E0FDE4CDC4CD6DCD54F0CD6D12
:103A4900FCED4207EC42068F238E2490DE04E0252C
:103A5900E0FCE4FD4207EC42068F23EEF52430E159
:103A69001290F6B7E054FEF0AE2374FD5524FF8E94
:103A7900238F24758B00C2E8D0D0D004D005D0069E
:103A8900D007D083D082D0E032C0E0C007C0D07563
:103A9900D000E5BE30E6FBC2AFE58930E703752209
:103AA90003AFBE74FC5FF5BE758900C2C5D2AFD045
:073AB900D0D007D0E032225B
:104D4D0053444343764A01444F4E53444F4E474CD0
:104D5D0045207230333233000000000000525354AE
:104D6D004E00554E494D504C454D454E5445440011
:104D7D0052455345545F4E4F57001201100100002C
:104D8D000020501D48600001010203010A061001B8
:104D9D000000002001000902210001010080FA0934
:104DAD000400000200000100070585024000010714
:104DBD00050502400001040309040C0352006600BE
:104DCD00430061007400180344006F006E0073000F
:104DDD00200044006F006E0067006C0065000A0340
:0A4DED00300030003900310000FFF3
:103AC000AE82AF837C007D008E028F038A828B835F
:103AD000E493F9A3AA82AB83E960070CBC00ED0D67
:103AE00080EA8E358F367532F08C338D347582FED8
:103AF000022719E58290F6C2F07535C27536F67563
:103B000032F17533017534007582FE022719AF83D7
:103B1000E58290F6C3F0EFA3F07535C37536F67500
:103B200032F27533027534007582FE022719AF82B6
:103B3000AE83ADF0FC90F6C5EFF0EEA3F0EDA3F090
:103B4000ECA3F07535C57536F67532F3753304752B
:083B500034007582FE02271902
:0514E400E4F510F51114
:103B58007EC97FF68FD57EC97FF68ED47ED17FF65B
:103B68008FD37ED17FF68ED2756700756818756918
:103B78000090F6C975F00002499D7403B51006E47B
:103B8800B51102800280047582FF22AE10AF1105C4
:103B980010E4B5100205118E822290DF46E0FFBFC7
:103BA800F00E90DF47E0FFBF0D0690DF487469F024
:103BB800C2AF759A0075B80075A8001229B7AFBED4
:103BC800747F5FF5BE75D69FC29102000022124A2B
:103BD80011AC82AD83AEF0FFC004C005C006C007BB
:103BE8009037BD75F086743D124899AC82AD83AEAE
:103BF800F0FFE58124FCF581E4C0E0C0E074C0C0BA
:103C0800E07441C0E08C828D838EF0EF124B31ACB2
:103C180082AD83AEF0FFE58124FCF5818C828D8333
:103C28008EF0EF124A24AC82AD83AEF090DF09EE3D
:103C3800F08D0390DF0AEBF090DF0BECF02275E1DA
:103C48000490DF3BE0FFBF01F890FAE8E0F5E1906F
:103C5800FAE8E0FFBF04012290DF3BE0FFBF01026A
:103C680080ED2290FAE8E0FFBF02012290DF13E026
:103C780054F0F0E0440FF090FAE87402F0024005C6
:103C880090FAE8E0FFBF03012290DF13E054F0F060
:103C9800E0FF440AF090FAE87403F075E10390DF5E
:103CA8003BE0FFBF13F82290FAE8E0FFBF040122CF
:103CB80090DF13E054F0F0AF9174EF5FF59175E188
:103CC8000490DF3BE0FFBF01F8AF9B74FC5FF59BFE
:103CD800AFE974EF5FF5E990FAE87404F02290FA1E
:103CE800EBE4F0E4A3F090FAE2E4F0E4A3F090FA55
:103CF800E4E4F0E4A3F053C6C7759D00859E9E4397
:103D08009E0485A9A943B90190FAE87404F075677F
:103D18000075680075690490F6E275F00012499D17
:103D28001225C7D2A87591D175E900751400439A78
:103D38000175E10490DF3BE0FFBF01F8227E007FC0
:103D480000C3EE94DCEF9405502490DF3CE0FD5472
:103D580050600490000122900032C007C00612454E
:103D680012D006D00774322EFEE43FFF80D39000B5
:103D7800002285821B85831C90FAEDE4F090DF0217
:103D8800E0FD90DF3BE0FCBC1310A291B3920192DE
:103D980091C0051238B1D00580E8C29190FB05E4C6
:103DA800F090FAFBE517F0E518A3F090FB01E51990
:103DB800F0E51AA3F090FAFDE515F0E516A3F090EA
:103DC800FAFFE515C39519F0E516951AA3F090FAD0
:103DD800FFE0FBA3E0FC8517678518688B828C835E
:103DE800C005124A78AB82AC83D00590FB03EB2563
:103DF80015F0EC3516A3F0E5154516703F851B82C6
:103E0800851C83E0FB7C008B158C1690DF04E0FAA0
:103E1800530203BA00028014BA01028003023EA9C9
:103E280074012BF515E43CF516023EA9051BE4B513
:103E38001B02051C90DF02E515F0806590DF04E0A9
:103E4800FC530403BC00028028BC01558515678516
:103E58001668756901756A00851B82851C83C00513
:103E68001244B5D005AC15851B82851C83ECF08007
:103E780030E51745187004E516602090FB03E0FB59
:103E8800A3E090DF02EBF090DF04E054FCF0E0FCEC
:103E98004402F090FB057401F0800690DF02E515FE
:103EA800F0D2A890FB06E0FC20E303023F9690DFE7
:103EB80004E0FC530403BC010690FAED7401F09091
:103EC800FAEDE0FC251BF582E4351CF583851567C2
:103ED800851668C005C00412479BAA82AB83D0042C
:103EE800D00590FB06E0F9530104B90433EC251B17
:103EF800F8E4351CF990FB06E0FF74F05FF5618883
:103F08005D895E8A5F8B6088828983C005C004C032
:103F180003C0021247C2D002D003D004D0058031BA
:103F2800EC251BFEE4351CFF90FB06E0F974F05904
:103F3800F5668E628F638A648B658E828F83C00577
:103F4800C004C003C0021247D7D002D003D004D0A7
:103F580005EC602290FB06E0FF5307F0BF500B858D
:103F68001B82851C837410F080248A07851B828538
:103F78001C83EFF0801890FB06E0FF5307F0BF505A
:103F88000890DF027410F0800590DF02EAF0851BCC
:103F980012851C1390FAF9E4F0E4A3F075E1037EAE
:103FA800607FEA90DF3BE0FCBC130280211EBEFF6D
:103FB800011FEE4F6018A291B392019291C007C001
:103FC80006C0051238B1D005D006D00780D5D291E9
:103FD800EE4F700690FAEF7413F090DF3BE0FFBFEE
:103FE8001310A291B392019291C0051238B1D00575
:103FF80080E8C29190DF02EDF075820122D2A875A7
:10400800670075680075690290F6E275F00012495C
:104018009D90FAE2E4F0E4A3F090FAE4E4F0E4A37B
:10402800F090FAE6E4F090FAE77401F090F6E1E433
:10403800F0AF9B74FC5FF59BAFE974EF5FF5E97532
:10404800E10290DF3BE0FFBF0DF84391102290FBA7
:10405800077401F02290FB07E4F022C0E0C0F0C032
:1040680082C083C007C006C005C004C003C002C028
:1040780001C000C0D075D00090FAEE7411F0C2896A
:1040880090DF3BE0FFBF0D0280030241A0D2919078
:10409800FAF4E0FF602790FAF5E0FEA3E0FF90FA5B
:1040A800F5E024FFFCA3E034FFFD90FAF5ECF0ED19
:1040B800A3F0EF700890DF04E0FF54FCF090FAE8FA
:1040C8007402F090F6E1E025E0FEE424E2FFEE342D
:1040D800F6FE90F6E1E075F002A424E2FC74FA35ED
:1040E800F0FD8C828D83E0FAA3E0FB74012AF8E4EA
:1040F8003BF98C828D83E8F0E9A3F0EA2FF582EB97
:104108003EF583E5D9F090F6E1E075F002A424E2EB
:10411800F58274FA35F0F583E0FEA3E0FF54FE70F3
:104128001A90F6E1E075F002A424E2F58274FA35FB
:10413800F0F583E0FEA3E0FF4E701A90F6E1E0FF91
:1041480075F002A424E2F58274FA35F0F58374FF61
:10415800F07401A3F090FAF5E0FEA3E0FF4E6003CF
:1041680002425C90FAF4E0FF700302425C90FAF7B6
:10417800E0FEA3E0FF90FAF5EEF0EFA3F090FAF579
:10418800E0FEA3E090DF02EEF090DF04E054FCF0E4
:10419800E0FF4402F002425C90DF3BE0FFBF130205
:1041A800800302425C90FB05E0FF700302423590F9
:1041B800FAF9E0FEA3E0FF90FAFDE0FCA3E0FDEED3
:1041C800B50443EFB5053F90FAFBE0FEA3E0FF4ED0
:1041D800603490FAFBE0FEA3E0FFBEFF05BF0002DB
:1041E800801490FAFBE024FFFEA3E034FFFF90FA6E
:1041F800FBEEF0EFA3F090FB01E0FEA3E0FF90FAE6
:10420800F9EEF0EFA3F090FB03E0FEA3E0FF90FBD4
:1042180003E024FFFCA3E034FFFD90FB03ECF0ED8A
:10422800A3F0EF700890DF04E0FF54FCF090FAE888
:104238007403F090FAF9E0FEA3E0FF90FAF9E024A5
:1042480001F0A3E03400F0EE2512F582EF3513F506
:1042580083E0F5D9D0D0D000D001D002D003D0046B
:10426800D005D006D007D083D082D0F0D0E032C0BD
:1042780021C0E0C0F0C082C083C007C006C005C02E
:1042880004C003C002C001C000C0D075D0007F00C8
:1042980090FAEE7410F0AE9B74FC5EF59BE5E94273
:1042A80014E5E930E02090FAE9E0FDA3E08D067D11
:1042B80000AB9C7C0090FAEBED4BF0EE4CA3F0AE1B
:1042C800E974FE5EF5E9E5E9547070030244529022
:1042D800FAE8E0FEBE030AAE14748F5EF5140244D9
:1042E8004B90F6E1E0FEB40100E43324E6F582E405
:1042F80034FAF583E0FEBE0102800302441D90FB00
:1043080006E0FE20E1030243F390DF04E0FE5306DB
:1043180003BE01027F0190FB06E0FE530601BE01C9
:104328006790F6E1E025E0FDE424E2FEED34F6FDD9
:104338008F037C00EB2EFEEC3DFD90F6E1E0F929C1
:10434800FAE424E2F9EA34F6FAEB29F55DEC3AF5F9
:104358005E90F6E1E075F002A424E2F58274FA3585
:10436800F0F583E0FBA3E0FC8F017A00EBC399F53D
:104378005FEC9AF56090FB06E0FC74F05CF5618EEA
:10438800828D831247C2806390F6E1E025E0FDE468
:1043980024E2FEED34F6FD8F037C00EB2EFEEC3DAF
:1043A800FD90F6E1E0F929FAE424E2F9EA34F6FAB4
:1043B800EB29F562EC3AF56390F6E1E075F002A4BA
:1043C80024E2F58274FA35F0F583E0FBA3E0FC7A89
:1043D80000EBC39FF564EC9AF56590FB06E0FF746B
:1043E800F05FF5668E828D831247D790F6E1E06420
:1043F80001F090F6E1E0FF75F002A424E2F5827482
:10440800FA35F0F583E4F0E4A3F090FAE6E4F090EE
:10441800FAE7F0802C90FAEF7412F0A291B39202AE
:10442800929190F6E1E0FF75F002A424E2F582741F
:10443800FA35F0F583E4F0E4A3F0A291B392029286
:1044480091C291AFE974CF5FF5E9E5E930E61E90D6
:10445800FAEF7410F0A291B392029291123C46A224
:1044680091B392029291AFE974BF5FF5E9E5E93043
:10447800E71E90FAEF7411F0A291B3920292911292
:104488003C46A291B392029291AFE9747F5FF5E93D
:10449800D0D0D000D001D002D003D004D005D006AF
:1044A800D007D083D082D0F0D0E0D02132AE82AF16
:1044B80083AC67AD688C028D031CBCFF011DEA4B01
:1044C800601FE5692CFAE56A3DFBEA2EFAEB3FFB33
:1044D800EC2EF582ED3FF583E0F98A828B83F0803C
:0244E800D422DC
:104DF70000000000000000000000000000000000AC
:044E070000000000A7
:1044EA00AE82AF831EBEFF011FC3E49EE464808FC9
:1044FA00F063F08095F0500F7C4C7D041CBCFF01EA
:10450A001DEC4D70F780DD22AE82E583CE25E0CE2C
:10451A0033FF1EBEFF011FC3E49EE464808FF06375
:10452A00F08095F040EC22AE82AF83D2919003E8FE
:10453A00C007C0061244EAC2919001F41244EAD0BC
:10454A0006D007151DAD1DED20E754EE30E024908E
:10455A000019C007C006C0051244EAD2919002268B
:10456A001244EAC2919000191244EAD005D006D04A
:10457A00078022900113C007C006C0051244EAD280
:10458A00919000321244EAC2919001131244EAD087
:10459A0005D006D007EFC313CE13CEFF1D80A8C2E5
:1045AA00919003E80244EAAD82AE83AFF0AA67AB0A
:1045BA0068AC69A86AA96BE8496046C000C0018D69
:1045CA00828E838FF0124BF4F98A828B838CF012DD
:1045DA004BF4F8E9C398F56CD001D000E56C601093
:1045EA00E56CF56D3395E0F56E856D82856E8322F7
:1045FA000DBD00010E0ABA00010B18B8FF0119809F
:10460A00B690000022AFBE74FB5FF5BEE5BE30E691
:10461A00FBAFC674B85FF5C6E5C620E6FB43BE0429
:10462A00E5BE30E6FB53C6C743E40C43E401D2B906
:10463A002243FE03C29122C0E0C082C083C0D09050
:10464A00FAF0E02401F0A3E03400F0A3E03400F033
:10465A00A3E03400F0D0D0D083D082D0E032123B35
:10466A00828582598559F005F07401800225E0D5CA
:10467A00F0FBF55AE55975F008A424C9F55574F606
:10468A0035F0F556855582855683A3A374DFF085E8
:10469A005582855683A3A3A374B1F08555828556A6
:1046AA0083A3A3A3A3A37410F0855582855683A37D
:1046BA00A3A3A3A3A3E054E0441DF0855582855625
:1046CA0083A3A3A3A3A3A3A3E0543F4440F0855527
:1046DA0082855683A3A3A3A3A3A3A3E054FC440106
:1046EA00F0123B8285825B855BF005F074018002E3
:1046FA0025E0D5F0FBF55CE55B75F008A424C9F567
:10470A005774F635F0F55885578285588374DFF06B
:10471A00855782855883A374B2F08557828558835A
:10472A00A3A3A3A3A37410F0855782855883A3A3D8
:10473A00A3A3A3A3E054E0441EF0855782855883BF
:10474A00A3A3A3A3A3A3A3E054CF4410F085578245
:10475A00855883A3A3A3A3A3A3A3E054FC4401F015
:10476A0022AE82AF83E5B330E3FB8555828556835B
:10477A008F05EDF0855582855683A37F00EEF0E51F
:10478A005A42D6E56745684401F5B3E5B330E3FB21
:10479A0022AE82AF83AC67AD68EC540F60158C0211
:1047AA008D030CBC00010DEA2EF582EB3FF583E484
:1047BA00F080E68C828D8322855D67855E68855FE1
:1047CA006985606A756B0085616C0247EC85626772
:1047DA0085636885646985656A756B0285666C029E
:1047EA0047EC85826D85836EE5B330E3FBE569248A
:1047FA00F0FCE56A34FFFD7450556CFBE56B456CC3
:10480A004401FA7401456BF9E4F56FF570C3E56F7D
:10481A009569E570956A400122C0028555828556E0
:10482A0083E56F256DFEE570356EFF8E008F028A77
:10483A0000E8F0855582855683A3EEF08557828578
:10484A005883A3A3E56F2567FEE5703568FF8E00E0
:10485A008F028A00E8F0855782855883A3A3A37F35
:10486A0000EEF0E55C455A42D6D002EB600CECB59E
:10487A006F08EDB5700489B380028AB3E5B330E3FB
:10488A00FB7410256FF56FE43570F5700248171246
:10489A00493CBC0003024B03EF60FA30D502B2D1A7
:1048AA00E583B4FF03024B19E582B4FF03024B19F7
:1048BA00258340072482400B024B032483145003B0
:1048CA00024B19F582EA8DF0A4A8F0EA8EF0A4282A
:1048DA00F8E435F0F9EB8DF0A428E935F0F9E43382
:1048EA00CA8FF0A429F9EA35F0FAEBF88EF0A42978
:1048FA00F9EA35F0FAE433FBEC8DF0A429F9EA354C
:10490A00F0FAE43BFBE88FF0A42AFAEB35F0FBE47B
:10491A0033CCFD8EF0A42AFAEB35F0FBE43CFCED37
:10492A008FF0A42BFBEC35F0FC20E70312496A0256
:10493A004AE2AA82AB83A2F73392D1F5826002D20D
:10494A00F7ACF0E58124F9F8E6FD08E6FE0886F002
:10495A0008E6A2F73392D5F5836002D2F7AFF022C8
:0614BA00E478FFF6D8FD06
:10496A007804EC7011E58224F8500AF582E4C9CA89
:10497A00CBFCD8EF22EC7820058220E713D5820100
:10498A0022C3E933F9EA33FAEB33FBEC33FCD8EA16
:10499A00158222AC82AD83AE68AF69BE0004EF60B7
:1049AA000C1F0FE567124A5DA3DEFADFF88C828DD1
:1049BA008322AD82AE83AFF08D6C8E6D8F6E85676C
:1049CA006F856870856971A86AA96B88038904185C
:1049DA00B8FF0119EB4C6025856F8285708385715C
:1049EA00F0124BF4FCA385826F8583708D828E83CF
:1049FA008FF0EC124A5DA3AD82AE8380CE856C82C5
:074A0A00856D83856EF0222B
:101498007914E94400601B7A01904DF778F475934C
:1014A800FAE493F2A308B800020593D9F4DAF275C6
:0214B80093FFA0
:104A1100FCABF0AA83A982749EC2D1F58212496AC5
:104A2100024AE27F9E124A4B30D103024B03C3EF8D
:104A31009582500974FFF5F0F583F5822279001211
:104A41004C1089828A838BF0EC22AA82AB83A2F775
:104A51003392D1F5826002D2F7ACF02220F7113007
:104A6100F6138883A88220F509F6A88375830022AE
:104A710080FEF280F5F022E5828567F0A4C582C050
:104A8100F08568F0A4D0F025F0C5838567F0A425F2
:104A910083F58322E567456860467A01E56725E08D
:104AA100F567E568334012F568E5829567E583951A
:104AB1006840030A80E6C3E56813F568E56713F506
:104AC10067C3E5829567F5F0E58395684005F58351
:104AD10085F082C3E56813F568E56713F567DAE1E8
:014AE10022B2
:1014C0007800E84400600A79007593F0E4F309D8E5
:1014D000FC78F4E8440A600C790B90F000E4F0A387
:0414E000D8FCD9FA61
:02148900E4730A
:104AE200B98003EA13B34010EA2401FAE43BFBE481
:104AF2003CFC50047C800582BC000EBB000BBA005B
:104B020008E4F5F0F583F58222A2D1E582138CF058
:104B120092F78B838A8222E4F583F58275F080F422
:104B2200A2D11322E4F583F58275F0C0747F2212BC
:104B3200493C30D502B2D1BF0009BC0003024B266A
:104B4200024B19BC0003024B03E583B4FF0BE58261
:104B5200B4FF03024B26024B03E582B4FF03024B70
:104B620019C395835007247F400B024B0324801402
:104B72005003024B19F582C3ED9AEE9BEF9C401154
:104B82001582C3EA33F9EB33FAEC33FBE433FC80EE
:104B920005E4CCCBCAF9C08275F019C3E99DEA9E3F
:104BA200EB9FEC9400D5F002802D400EE99DF9EACE
:104BB2009EFAEB9FFBEC9400FCC3B3E833F8E5826A
:104BC20033F582E58333F583C3E933F9EA33FAEB4C
:104BD20033FBEC33FC80C4B3E4F938FAE43582FBEE
:104BE200E43583FCD082500405827C8012496A023B
:024BF2004AFA7D
:0D148B00758171124C53E5826003021486D6
:104BF40020F71430F6148883A88220F507E6A883EA
:104C040075830022E280F7E49322E0226040F825D5
:104C140082500274FFF582E824F8501ECCCBCAF906
:104C2400E4CC24F85014CBCAF9E4CB24F8500BCAD2
:104C3400F9E4CA24F8500379002224086010F8C368
:104C4400EC13FCEB13FBEA13FAE913F9D8F1227520
:034C5400820022B9
:00000001FF
