:0614000002148B0240956E
:01140B0032AE
:0114130032A6
:01141B00329E
:011423003296
:01142B00328E
:03143300023A4139
:01143B00327E
:011443003276
:03144B00024673E3
:0314530002175A23
:03145B00021A3141
:011463003256
:03146B00023AC47E
:011473003246
:01147B00323E
:031483000242A979
:0314E90002148664
:031486000226E754
:1014EC00AE82AF8375E10490DF3BE0FDBD01F89067
:1014FC00DF06EEF075E10290DF3BE0FFBF0DF82256
:10150C007E007F0090F007E0FCA3E0FD8E028F03CD
:10151C00C3EA9CEB9D503AEE2415FCEF34F0FD90A1
:10152C00F005E0F567A3E0F5688A828B83C007C0FD
:10153C0006C005C004124AC7AA82AB83D004D005EA
:10154C00D006D0078C828D83EAF00EBE00B60F80D9
:10155C00B322AF82E59CC39FF59CE59C24FAF59CD5
:10156C00439E10D2BA22AF9E74EF5FF59E22AE82DC
:10157C00AF83E50824D65006904C89023AF290F0DD
:10158C0011E075F029A42487F58274F335F0F58306
:10159C00E508F090F011E075F029A42487FC74F3B1
:1015AC0035F0FD0CBC00010D7B008E678F687569F2
:1015BC000085086A756B008C828D838BF01249EE66
:1015CC0090F011E0FF0F90F011EFF0BF0500400517
:1015DC0090F011E4F022AE82AF8390F000E0FD6059
:1015EC001CBD01028017904CA3C007C006123AF232
:1015FC0090F000E0F582123B25D006D007C007C062
:10160C0006121572D006D00790F009E4F0E4A3F0AE
:10161C0090F009E0FCA3E0FD8C828D83C007C0062E
:10162C001216F7D006D00790DF3BE0FDBD0DF89009
:10163C00DF3AE0FD53057FBD6000402F90F009E0DC
:10164C00FCA3E0FD0CBC00010D90F009ECF0EDA347
:10165C00F0D29090000AC007C00612451CC29090B0
:10166C00000A12451CD006D00780A590F000740229
:10167C00F090FAF0E0FAA3E0FBA3E0A3E090F00B0B
:10168C00EAF0EBA3F090F00FEEF0EFA3F02290F065
:10169C0000E4F090FAF0E0FCA3E0FDA3E0A3E090FE
:1016AC00F00BECF0EDA3F02290F0007404F090FA43
:1016BC00F0E0FCA3E0FDA3E0A3E090F00BECF0ED78
:1016CC00A3F02290F0007405F090F013E4F0E4A382
:1016DC00F090FAF0E0FCA3E0FDA3E0A3E090F00BA7
:1016EC00ECF0EDA3F075820002155EAE82AF83EED6
:1016FC002415F582EF34F0F583E0FF7E008F828EA7
:10170C00830214ECAE82AF8390F385EEF0EFA3F07E
:10171C00222290F009E0FEA3E0FF0EBE00010F9024
:10172C00F009EEF0EFA3F0C3EE9470EF94034008D1
:10173C0090F009E4F0E4A3F090F009E0FEA3E0FFE0
:10174C00EE2415F582EF34F0F583E0F58222C0210A
:10175C00C0E0C0F0C082C083C007C006C005C00492
:10176C00C003C002C001C000C0D075D00090FAE91F
:10177C00E02401F0A3E03400F090F001E0FEA3E0DF
:10178C00FF90FAE9E0FCA3E0FDECB5060CEDB50723
:10179C000890FAE9E4F0E4A3F090FAE9E0FEA3E0A3
:1017AC00FFBE0005BF0002800BBE0105BF0002801A
:1017BC006902191790FAE9E0FEA3E08E077E00ACEF
:1017CC009C7D00EC4206ED420790F00DEEF0EFA38D
:1017DC00F090F009E0FEA3E0FF0EBE00010F90F0C8
:1017EC0009EEF0EFA3F090F007E0FCA3E0FDC3EEF0
:1017FC009CEF9D400890F009E4F0E4A3F090DF3BEF
:10180C00E0FFBF1303021A1490F009E0FEA3E0FFFF
:10181C008E828F831216F7021A1490F000E0FFBF2D
:10182C0005028003021A1490001912451C90F454FE
:10183C00741CF090F009E0FEA3E090F455EEF090EB
:10184C00F009E0A3E090F456F090F4577442F09055
:10185C00F458744CF090F4597441F090F45A744864
:10186C00F090F45B7442F090F45C744CF090F45D86
:10187C007441F090F45E7448F090F45F7442F09010
:10188C00F460744CF090F4617441F090F46274481C
:10189C00F090F4637442F090F464744CF090F4653E
:1018AC007441F090F4667448F090F4677442F090D0
:1018BC00F468744CF090F4697441F090F46A7448D4
:1018CC00F090F46B7442F090F46C744CF090F46DF6
:1018DC007441F090F46E7448F090F46F7420F075CD
:1018EC00151CE4F516F517F518F519F51A90F455BD
:1018FC00123DAC90F013E0FEA3E0FF0EBE00010F12
:10190C0090F013EEF0EFA3F0021A1490F000E0FF49
:10191C00BF03028065BF04028008BF05028003027A
:10192C001A1490F00BE0FEA3E0FF90FAF0E0FAA39B
:10193C00E0FBA3E0FCA3E0FD8E008F01E4FEFFEAD8
:10194C00C398FAEB99FBEC9EFCED9FFDC374649A73
:10195C00E49BE49CE49D5022904CD1123AF290F01E
:10196C00007405F090FAF0E0FCA3E0FDA3E0FEA308
:10197C00E0FF90F00BECF0EDA3F090F012E075F0BE
:10198C0029A42487FE74F335F0FF8E828F83E060E8
:10199C0077A290B39200929090001912451C90F08F
:1019AC0012E075F029A42487FE74F335F0FF90DF64
:1019BC0004E05401FDB40100E4332EFDE43FFC8E41
:1019CC00828F83E0FE8E15E4F516F517F518F519E0
:1019DC00F51A8D828C83123DAC90F012E075F029D3
:1019EC00A42487F58274F335F0F583E4F090F012BB
:1019FC00E0FF0F90F012EFF0BF0500400590F012E1
:101A0C00E4F0904CEF123AF2D0D0D000D001D002DA
:101A1C00D003D004D005D006D007D083D082D0F02C
:101A2C00D0E0D021323290F000E4F090F011F09040
:101A3C00F012F090F009F0E4A3F090F0057453F07C
:101A4C00E4A3F090F0077453F0E4A3F090F00DE4ED
:101A5C00F0E4A3F090F00BE4F0E4A3F090F0017448
:101A6C0006F0E4A3F090F003E4F0E4A3F090F00FA0
:101A7C00E4F0E4A3F090F013E4F0E4A3F012150CFE
:101A8C0090F000E4F0759DDC859E9E439E0443CB54
:101A9C001022021A32901E8B122BF190FAF0E4F005
:101AAC00E4A3F0E4A3F0E4A3F0021A9E90F000E0AB
:101ABC00FFBF0003021D9DBF0103021C84BF020374
:101ACC00021B8CBF0303021D9DBF0403021D9DBF9F
:101ADC000503021D7EBF40028006BF4102803722F3
:101AEC0075E10490DF3BE0FFBF01F890DF0374E584
:101AFC00F090DF047404F090DF077412F090DF08AC
:101B0C00E4F090DF147410F090DF17E0FF44C0F0A5
:101B1C0090F0007441F07F0090F013E0FDA3E0FE24
:101B2C008F037C00C3EB9DEC9E502F90DF06EFF0F3
:101B3C0075E10290DF3BE0FEBE0DF8900002C0079D
:101B4C0012451CD007EF24E2FDE434F6FE90DF3A98
:101B5C00E0FC8D828E83F00F80BE75E10490DF3B3C
:101B6C00E0FFBF01F890F013E0FEA3E08E33753474
:101B7C00007532017535E27536F675824302271908
:101B8C00E5147003021C7D90FAEE740DF0AF9A749C
:101B9C00FE5FF59AE51420E403021C7D90F00074BE
:101BAC0003F090FAEBE0FEA3E08E8212155E904CEF
:101BBC00FD123AF290FAEBE0FEA3E0FF8E828F83E7
:101BCC00123B4090F6E1E025E0FEE424E2FFEE3427
:101BDC00F6FE8F828E83123AF290F6E1E0FFB401AA
:101BEC0000E433FF24E6FDE434FAFE8D828E83E0BC
:101BFC00707890DF04E0FE30E03B8F06EE2EFDE4C3
:101C0C0024E2F582ED34F6F583E0FE8E3375340074
:101C1C008F06EE2EFDE424E2FEED34F6FD74012E6B
:101C2C00F535E43DF536753201758242C007122751
:101C3C0019D007802890DF02E0FE8E337534008FB8
:101C4C0006EE2EFDE424E2FEED34F6FD8E358D36E7
:101C5C00753201758242C007122719D007EF24E6AE
:101C6C00F582E434FAF5837401F0AF1474EF5FF588
:101C7C0014751400439A0122E5147003021D779029
:101C8C00FAEE740DF0AF9A74FE5FF59AE51420E449
:101C9C0003021D7790F6E1E0FFB40100E433FF90FE
:101CAC004D12C007123AF2D0078F06EE2EFDE42437
:101CBC00E2FEED34F6FD8E828D83C007123B40D0E0
:101CCC0007EF2FFEE424E2FFEE34F6FE8F828E83C4
:101CDC00123AF290F6E1E0FFB40100E433FF24E69F
:101CEC00FDE434FAFE8D828E83E0707890DF04E0A0
:101CFC00FE30E03B8F06EE2EFDE424E2F582ED345F
:101D0C00F6F583E0FE8E337534008F06EE2EFDE47F
:101D1C0024E2FEED34F6FD74012EF535E43DF53686
:101D2C00753201758242C007122719D0078028909E
:101D3C00DF02E0FE8E337534008F06EE2EFDE424B8
:101D4C00E2FEED34F6FD8E358D367532017582422C
:101D5C00C007122719D007EF24E6F582E434FAF510
:101D6C00837401F0AF1474EF5FF514751400439A8B
:101D7C00012290F013E0FEA3E0FF90F007E0FCA33B
:101D8C00E0FDC3EE9CEF9D50012290F0007404F036
:101D9C0022E51470012290FAEE740DF0E514543023
:101DAC0070012290F6E1E0FFB40100E433FF24E679
:101DBC00FDE434FAFE8D828E83E06003021E5690A1
:101DCC00DF04E0FE30E03B8F06EE2EFDE424E2F56E
:101DDC0082ED34F6F583E0FE8E337534008F06EE1B
:101DEC002EFDE424E2FEED34F6FD74012EF535E40F
:101DFC003DF536753201758242C007122719D0079E
:101E0C00803B90FAF4E0FE600A90FAF7E0FDA3E064
:101E1C00FE800890DF02E0FCFD7E008F04EC2CFBC2
:101E2C00E424E2FCEB34F6FB8C358B367532018DF9
:101E3C00338E34758242C007122719D007EF24E67F
:101E4C00F582E434FAF5837401F0AF1474CF5FF5C6
:101E5C001422E58290F470F090F6B7E054FDF09007
:101E6C00F6B3E0FF90F6B4E0F53290F470E0FE8E3D
:101E7C0033753400850B35850C368F82022719900B
:101E8C00F6AEE0FEA3E0FF90F6B3E0FDBD420280AB
:101E9C000302243390F6B4E0FDBD0203021F70BDB3
:101EAC000303022136BD0503022011BD06030220E7
:101EBC00BFBD07030220D5BD08030220E4BD090302
:101ECC0002210DBD1003022213BD1103022282BD9B
:101EDC0012030222A7BD13030222FEBD1403022328
:101EEC001BBD150302232ABD1603022363BD170372
:101EFC0002215ABD180302226DBD20030223A6BD88
:101F0C00210302241BBD2203022382BD23030222D0
:101F1C00CBBD24030222E6BD40028008BD410280F5
:101F2C0031022429C007C006121572D006D00790C2
:101F3C00F0007440F08E828F83E0FD7C0090F013F3
:101F4C00EDF0ECA3F08E0B8F0C758201121E5E026D
:101F5C00243390F000E4F08E0B8F0C758201121E6E
:101F6C005E02243390F000E06009904D2C123AF29E
:101F7C000224338E828F83E0FDA3AE82AF837C007C
:101F8C0090F471EDF0ECA3F08E828F83E0FBA3AEA6
:101F9C0082AF838B02E42DFDEA3CFC90F471EDF0F2
:101FAC00ECA3F08E828F83E0FBA3AE82AF837A002A
:101FBC008E828F83E0F9A3AE82AF8389008801E41F
:101FCC002BF517E93AF5188E828F83E0FBA3AE82CE
:101FDC00AF837A008E828F83E0F9A3AE82AF8389C0
:101FEC00008801E42BF519E93AF51A8D158C168E3B
:101FFC00828F83123DAC750B71750CF475820112D6
:10200C001E5E0224338E828F83E0FDA3AE82AF83EB
:10201C0090FAF7EDF0E4A3F08E828F83E0FC7D0064
:10202C0090FAF7E0FAA3E0FB90FAF7ED2AF0EC3B1C
:10203C00A3F090FAF7E0FCA3E0FD4C604090FAF4BA
:10204C007401F090FAF5E0FCA3E0FD4C7046123CF4
:10205C00E190FAF7E0FCA3E0FD90FAF5ECF0EDA3CB
:10206C00F090FAF5E0FCA3E090DF02ECF090DF04D6
:10207C00E054FCF0E04402F0123C9D801790FAF41E
:10208C00E4F090FAF5F0E4A3F090FAF7E4F0E4A3AE
:10209C00F0123CE190F6B3E0FD90F6B4E0F5327549
:1020AC0035F77536FA7533017534008D82122719A0
:1020BC000224338E828F83E090FB06F08E0B8F0C04
:1020CC00758201121E5E022433750B06750CFB75AE
:1020DC008201121E5E02243390FB06E0FD74F05D5B
:1020EC00F5687567068E828F83C007C00612479D00
:1020FC00D006D0078E0B8F0C758210121E5E022438
:10210C003390FB06E0FD74F05DF5687567048E8214
:10211C008F83C007C00612479DD006D0078E0B8F49
:10212C000C758210121E5E0224338E828F83E0FDAA
:10213C007C008D828C83C007C006121710D006D08D
:10214C00078E0B8F0C758201121E5E0224338E8259
:10215C008F83E0FDA3AE82AF838D047D0090F4717C
:10216C00ECF0EDA3F0C374299CE49D5015904C89C0
:10217C00123AF2750B71750CF4758201121E5E0227
:10218C00243390F011E075F029A42487FA74F33508
:10219C00F0FB8A828B83E06015904D51123AF275F8
:1021AC000B71750CF4758201121E5E0224338C01C6
:1021BC008A828B83E9F090F011E075F029A42487D2
:1021CC00FA74F335F0FB0ABA00010B8B017B008E1D
:1021DC00678F687569008C6A8D6B8A8289838BF036
:1021EC001249EE90F011E0FD0D90F011EDF0BD05EF
:1021FC0000400590F011E4F0750B71750CF47582CC
:10220C0001121E5E0224338E828F83E0FD7C0090CF
:10221C00F005EDF0ECA3F090F005E0FAA3E0FBC3C1
:10222C0074709D74039C402A74022EFEE43FFF8E52
:10223C00678F687569008A6A8B6B90F01575F00072
:10224C001249EE750B05750CF0758202121E5E02BA
:10225C002433750B72750C4D758208121E5E0224A8
:10226C003390F005E0FCA3E0750B15750CF08C8237
:10227C00121E5E02243312171E7C008C831216F77A
:10228C0090F009E0FCA3E0FDEC2415F50BED34F027
:10229C00F50C758201121E5E0224338E828F83E050
:1022AC00FD7C008D828C83C007C0061214ECD00616
:1022BC00D0078E0B8F0C758201121E5E02243375B3
:1022CC008200C007C00612155ED006D0078E0B8F99
:1022DC000C758201121E5E022433C007C006121553
:1022EC0072D006D0078E0B8F0C758201121E5E0207
:1022FC0024338E828F83E0FD7C0090F001EDF0ECB6
:10230C00A3F08E0B8F0C758201121E5E02243375A6
:10231C000B01750CF0758204121E5E0224337C00D6
:10232C007DF07B008E828F83E0F97A0089678A6862
:10233C00756900756A15756B008C828D838BF0C086
:10234C0007C0061249EED006D0078E0B8F0C758293
:10235C0015121E5E02243390FAE9E0FCA3E0FD9016
:10236C00F003ECF0EDA3F0750B00750CF075821515
:10237C00121E5E0224338E828F83E0FD7C008D82E0
:10238C008C83C007C0061215E2D006D0078E0B8FC7
:10239C000C758201121E5E02243390FAF0E0FAA34F
:1023AC00E0FBA3E0A3E090F00BEAF0EBA3F08E824D
:1023BC008F83E0FD90F000F090F000E0FCED24FA4B
:1023CC004041EC2C2C9023D5730223E70223E70227
:1023DC0023E70224010224010223F4C007C00612E1
:1023EC001572D006D007801BC007C0061216CFD0BE
:1023FC0006D007800E758200C007C00612155ED08D
:10240C0006D0078E0B8F0C758201121E5E8018751C
:10241C000B00750CF0758201121E5E800A8E0B8FFC
:10242C000C758201121E5E900000222290F6BCE018
:10243C00FFBF013990F69CE0FEA3E0FF90F6BFE0F1
:10244C00FCA3E0FD90F69FE0FAA3E0FBEA4B601DD5
:10245C008E828F83E0F9A3AE82AF838C828D83E969
:10246C00F0A3AC82AD831ABAFF011B80DF90F6A5F6
:10247C00E054FDF090DE11E04408F02285820D85D9
:10248C00830E85F00F124C26FC20E7030225C37443
:10249C0001250DFAE4350EFBAC0F8A828B838CF090
:1024AC00124C26FC601EBC0102802BBC0202803D3B
:1024BC00BC03028078BC0403022566BCFE03022523
:1024CC00820225C375370275380090FAEE75F0005C
:1024DC001229BA0225C390DE00E0FC7B0075392876
:1024EC00753A008C828B83122A190225C37402253B
:1024FC000DFAE4350EFBAC0F8A828B838CF0124CF8
:10250C0026FAA3124C26FB7406250DF8E4350EF9B9
:10251C00AC0F888289838CF0124C26F539A3124CAF
:10252C0026F53A8A828B83122A190225C3AA0DAB8F
:10253C000EAC0F7406250DF8E4350EF9AF0F88823A
:10254C0089838FF0124C26F537A3124C26F5388A66
:10255C00828B838CF01229BA805D90F69CE0FDA3EF
:10256C00E0FEA3E0FF753910753A008D828E838FE3
:10257C00F0122A1980417402250DFDE4350EFEAFD0
:10258C000F75677A75684D756980756A04756B008F
:10259C008D828E838FF01245E3E5828583F045F0C2
:1025AC006012D29090012C12451CC29090012C12FA
:1025BC00451C800375C9839000002290DF2FE4F046
:1025CC0090DF30F090DF31F090DF00740CF090DF92
:1025DC0001744EF090DF0274FFF090DF037440F052
:1025EC0090DF04E4F090DF05F090DF06F090DF0759
:1025FC007406F090DF08E4F090DF097424F090DFAB
:10260C000A743AF090DF0B74F1F090DF0C74CAF09E
:10261C0090DF0D74A3F090DF0E7401F090DF0F7457
:10262C0023F090DF107411F090DF117436F090DF0E
:10263C00127407F090DF13743FF090DF147418F0ED
:10264C0090DF157417F090DF16746CF090DF177430
:10265C0003F090DF187440F090DF197491F090DF64
:10266C001A7456F090DF1B7410F090DF1C74E9F0B4
:10267C0090DF1D742AF090DF1EE4F090DF1F741FB2
:10268C00F090DF237488F090DF247431F090DF2514
:10269C007409F090DF2E74C0F090DF07740CF0908A
:1026AC00DF097425F090DF0A7495F090DF0B7455F8
:1026BC00F090DF1A74B6F090DF1B7410F090DF1CF2
:1026CC0074EAF090DF1D742AF090DF1EE4F090DFC6
:1026DC001F741FF02212464102466D1226E1123B76
:1026EC008A12469A122985123D18121AA11229B47F
:1026FC00D2AF122854D29090000212451CC2909076
:0D270C00000A12451C1238E3121AB880F8BA
:104C890046485353786D6974206D65737361676520
:104C990020746F6F206C6F6E670046485353207302
:104CA9007461746520656E746572696E6720535905
:104CB9004E4348494E472066726F6D2077726F6E7A
:104CC900672073746174650053594E43485F4D41C1
:104CD90053544552202D3E2053594E43494E474D7A
:104CE90041535445520046485353786D69742064C2
:104CF9006F6E65006E6574776F726B207061636BA0
:104D090065742873796E6329006E6574776F726BA9
:104D1900207061636B657428646973636F7665726B
:104D2900792900637261702C20706C65617365204C
:104D39007573652046485353786D6974282920692D
:104D49006E737465616421007374696C6C2077619A
:104D59006974696E67206F6E20746865206C617371
:104D690074207061636B6574004E4F204445414C5B
:064D7900005253544E00ED
:10271900AF827E0190DE0E7405F0E5334534700317
:102729000228507C107D2790DE11E0FB30E00D90EF
:10273900FAEF7401F01CBCFF011D80EBEC4D701425
:10274900D2909003E812451CC2909003E812451CF0
:1027590090FFFF22BE012F7E0090DE2A7440F0EF29
:10276900F0E532F0AC337D0090DE2AECF0E534F090
:10277900C3743B9533E4953450067C3B7D00801A45
:10278900AC33AD348014C374409533E495345006AA
:102799007C407D008004AC33AD347480252942D659
:1027A900852682852783AA35AB368B01E9F08526F4
:1027B90082852783A3EAF0852682852783A3A374CC
:1027C900DEF0852682852783A3A3A3742AF08526B4
:1027D90082852783A3A3A3A3A3ECFBF08526828587
:1027E9002783A3A3A3A3E054E0F08526828527834A
:1027F900A3A3A3A3A3A3A3E0543F4440F085268247
:10280900852783A3A3A3A3A3A3A3E054CFF0E5291A
:1028190042D6E52942D7E52955D160FAE529F4528E
:10282900D190DE0E7405F090DE11E0FB4401F0E575
:1028390033C39CF533E5349DF534EC2535F535ED99
:102849003536F53602272390000022E5227005125D
:1028590038E380F722AFBE747F5FF5BE43BE809038
:10286900DE0B74F7F090DE0774FFF090DE0974FF59
:10287900F0438C10AF8C74FE5FF58CD2BD439A0285
:10288900758900C2C5758B00C2E843A90243B90224
:10289900852682852783A3A3A3A3E054E0F0852698
:1028A90082852783A3A3A3A3A3A3E0549F4420F075
:1028B900852682852783A3A3A3A3A3A3A3E0440812
:1028C900F0852682852783A3A3A3A3A3A3A3E0540A
:1028D900FC4401F090DE01E054FEF0E4F525F52317
:1028E900F524F52290DE0EE4F090DE107404F090E9
:1028F900DE137404F090F6A6E4F090F6A5F090F6D5
:102909009AF0E4A3F090F69C7473F074F4A3F0E4E5
:10291900A3F090F69FE4F0E4A3F090F6A1E4F09020
:10292900F6A2F090F6A3F0E4A3F090DE0E7405F0A1
:1029390090DE107408F090DE137408F090DE12E057
:102949004480F090F6B8E4F090F6B7F090F6ACF069
:10295900E4A3F090F6AE7493F074F4A3F0E4A3F05A
:1029690090F6B1E4F0E4A3F090F6B3E4F090F6B495
:10297900F090F6B5F0E4A3F0439A0222123BB48535
:1029890082288528F005F07401800225E0D5F0FB46
:10299900F529E52875F008A424C9F52674F635F05B
:1029A900F52790FAEE7402F002285ED29122C291C4
:1029B90022AD82AE83AFF090F6A6E06034D290905B
:1029C90003E812451CC2909003E812451CD290906E
:1029D90003E812451CC2909003E812451CD290905E
:1029E90003E812451CC2909003E812451C90FFFFB2
:1029F9002290F697EDF0EEA3F0EFA3F090F69AE5AA
:102A090037F0E538A3F090F6A67401F090000022A3
:102A1900AE82AF8390F6A6E06034D2909003E812BC
:102A2900451CC2909003E812451CD2909003E8120D
:102A3900451CC2909003E812451CD2909003E812FD
:102A4900451CC2909003E812451C90FFFF227D00AF
:102A590090F697EEF0EFA3F0EDA3F090F69AE53932
:102A6900F0E53AA3F090F6A67401F0900000227FF9
:102A79000290DE0EE4F090F69AE0FDA3E0FEC37446
:102A8900209DE49E50047C2080048D047F0A8C02E2
:102A99007B00EDC39AFDEE9BFE90F69AEDF0EEA356
:102AA900F08C06EE603690F697E0FBA3E0FCA3E01D
:102AB900FD8B828C838DF0124C2690DE20F090F6EF
:102AC90097E0FBA3E0FCA3E0FD0BBB00010C90F633
:102AD90097EBF0ECA3F0EDA3F01E80C790DE11E0B8
:102AE9004FF090F69AE0FEA3E0FF4E700590F6A62F
:102AF900E4F02290F6A67402F07582002290F69C0A
:102B0900E0FEA3E0FF90DE11E0FDB40100E433FD37
:102B190020E0F290DE0EE4F090DE16E0FD7C0090FD
:102B2900F69FEDF0ECA3F090F6A5E0FD30E11190F1
:102B3900F6A67403F090DE11E04404F090FFFF2242
:102B490043050290F6A5EDF090F69FE0FCA3E0FDA9
:102B5900C374209CE49D5018D29090012CC007C0EA
:102B69000612451CC29090012C12451CD006D007B4
:102B790090F69FE0FCA3E0FDEC4D601690DE20E0AE
:102B8900FB8E828F83F0A3AE82AF831CBCFF011D35
:102B990080E6E52C452D6009852C82852D8312144C
:102BA9008990F69FE0FEA3E0FFC3EE9420EF940026
:102BB900501CE52A452B6009852A82852B8312142E
:102BC9008990DE11E0FF4408F090F6A6E4F090DE6B
:102BD90011E04440F090F69FE0FEA3E08E82F58379
:102BE9002285822E85832F22858230858331227525
:102BF900370175380090002575F0400229BAAD8279
:102C0900AE83AFF074022DFDE43EFE8D828E838F7C
:102C1900F0124C26FDA3124C268D2575220122AFF8
:102C2900827DB67E4D8D828E83A3E090F6C1F090B1
:102C390013E0E0F9A3E0FAA3E0FBA3E0FCE4B94068
:102C49000ABA6C07BB6104BC730104FCE4BF03014D
:102C590004FBAA6790F6C1E0F9B9FF02804DE9B516
:102C69000732EB600CBA0309EC60067DE47E138041
:102C79003AEA700890F6C174FFF080D81A8D828EF6
:102C890083E02DFDE43EFE8D828E83A3E0F990F66C
:102C9900C1F080C08D828E83E02DFDE43EFE8D82E1
:102CA9008E83A3E0F990F6C1F080A98D828E8322EC
:102CB90085823B85833C85F03D7402253BFAE435EA
:102CC9003CFBAC3D8A828B838CF0124C26F8A31214
:102CD9004C26F9893E753F007402B53E06E4B53FBE
:102CE9000280227407B53E06E4B53F0280028036B1
:102CF90074AF58FE7F008A828B838CF0EE124A8F64
:102D0900A3EF124A8F8A828B838CF0124C26FAA386
:102D1900124C26F5828A67122C28AE82AF83A3A3B0
:102D2900E0FC7D00801089828867122C28AE82AF72
:102D390083E0FBFC7D007406253BF9E4353CFAABE6
:102D49003D89828A838BF0124C26FAA3124C26FB0A
:102D5900C3EA9CEB9D50048A048B05EC4D700890E6
:102D6900DE11E0FB4420F08C398D3A8E828F83028C
:102D79002A197F408F057E007F4090DE0EE4F09097
:102D8900DE11E0FC30E40D90F6A6E4F090DE11E0EF
:102D9900FB4480F0EC30E23090DE11E4F090FAEF81
:102DA9007404F090F6A6E4F0D290900014C007C025
:102DB90006C005C00412451CC29090001412451C9F
:102DC900D004D005D006D00790F6A6E0FBBB0325BA
:102DD900D290900032C007C006C005C00412451C3D
:102DE900C29090003212451CD004D005D006D007FD
:102DF90090F6A6E4F090F6A6E0600302310AEC2012
:102E0900E00302310A90DE0EE4F090DE16E0FCFBEE
:102E1900EB601690DE20E0FA8D828E838FF0124AE5
:102E29008FA3AD82AE831B80E7E540FF20E7030255
:102E39002FC174605FFE6015BE2003022F78BE406B
:102E490003022F83BE6003022FA80230F4741F5FB0
:102E5900FC7047AE41BE0002801CBE06028005BE62
:102E69000826800C90004075F040122CB90230F40D
:102E7900122BF80230F4753702753800904D9475AD
:102E8900F0801229BA0230F47E407D007B408E82A8
:102E99008D838BF0123AF10230F4BC0149AE41BE88
:102EA90000028005BE0A2680127537027538009027
:102EB9004D9475F0801229BA0230F47537017538CE
:102EC90000904D9775F0801229BA0230F490DE1106
:102ED900E04420F07E407D007B408E828D838BF024
:102EE900123AF10230F4BC023AAE41BE0002800847
:102EF900BE12030230F48012753702753800904D06
:102F09009475F0801229BA0230F490DE11E0442061
:102F1900F07E407D007B408E828D838BF0123AF1EA
:102F29000230F4BC032FE4B541127537027538003D
:102F3900904D9475F0801229BA0230F490DE11E0B8
:102F49004420F07E407D007B408E828D838BF01281
:102F59003AF10230F47E407D007B408E828D838B76
:102F6900F0123AF190DE11E0FE4420F00230F490C4
:102F7900DE11E0FE4420F00230F4E52E452F601307
:102F8900122F8E800BC02EC02F90004075F040226A
:102F99000230F490004075F0401231210230F49073
:102FA900DE11E04420F07E407D007B408E828D83DF
:102FB9008BF0123AF10230F474605FFE6015BE20A6
:102FC900030230A2BE40030230BBBE60030230DE02
:102FD9000230F4741F5FFC704DAF41BF0103023032
:102FE900F4BF03030230F4BF0502800BBF070302DD
:102FF90030F4BF0917800990DE00E542F00230F491
:1030090090004075F040122C070230F47F407E009A
:103019007D408F828E838DF0123AF190DE11E0FFB0
:103029004420F00230F4BC012EAF41BF010302304D
:10303900F4BF03030230F4BF11030230F47F407E72
:10304900007D408F828E838DF0123AF190DE11E07F
:10305900FF4420F00230F4BC0227AF41BF01030254
:1030690030F4BF03030230F47F407E007D408F823D
:103079008E838DF0123AF190DE11E0FF4420F0804A
:103089006A90DE11E04420F07F407E007D408F820F
:103099008E838DF0123AF180527F407E007D408F01
:1030A900828E838DF0123AF190DE11E0FF4420F018
:1030B9008039E52E452F60121230C6800BC02EC014
:1030C9002F90004075F04022802190004075F0401B
:1030D900123121801690DE11E04420F07F407E00FD
:1030E9007D408F828E838DF0123AF190DE11E0FFE0
:1030F9004440F0E5464547700890DE11E0FF44087A
:10310900F090F6A6E0FFBF0103122A7890F6A6E038
:10311900FFBF0203022B062285824885834985F079
:103129004A124C26FC20E70302326074012548FA52
:10313900E43549FBAC4A8A828B838CF0124C26FC1D
:10314900601EBC0102802BBC0202803DBC030280D0
:1031590078BC0403023200BCFE0302321D0232CAEB
:1031690075370275380090FAEE75F0001229BA0227
:1031790032CA90DE00E0FC7B00753928753A008C74
:10318900828B83122A190232CA74022548FAE4355D
:1031990049FBAC4A8A828B838CF0124C26FAA31223
:1031A9004C26FB74062548F8E43549F9AC4A88826F
:1031B90089838CF0124C26F539A3124C26F53A8AEC
:1031C900828B83122A190232CAAA48AB49AC4A74C3
:1031D900062548F8E43549F9AF4A888289838FF092
:1031E900124C26F537A3124C26F5388A828B838C2C
:1031F900F01229BA0232CA90F69CE0FDA3E0FEA3C0
:10320900E0FF753910753A008D828E838FF0122A8E
:10321900190232CA74022548FDE43549FEAF4A75E0
:10322900679975684D756980756A04756B008D823B
:103239008E838FF01245E3E5828583F045F06012B5
:10324900D29090012C12451CC29090012C12451C61
:10325900806F75C983806A90F6BCE0FFBF015A741C
:10326900022548FDE43549FEAF4A8D828E838FF0F1
:10327900124C26FDA3124C26FE90DE0EE4F090DEE1
:1032890016E0FF7C00751D088F828C83C007C0067D
:10329900C005C004124563D004D005D006D007EF9D
:1032A9004C601690DE20E0FB8D828E83F0A3AD8208
:1032B900AE831FBFFF011C80E690F6A5E054FDFF19
:1032C900F09000002290F6B7E0FF30E10A90FAEFA3
:1032D9007405F090FFFF2290DE0E7405F090DE1663
:1032E900E0FF8F4B754C0090DE17E0FCE4254BF5B1
:1032F9004BEC354CF54C90F6B5E0FCA3E0FD4C7079
:103309005A90F6B1E4F0E4A3F090DE2AE090F6B327
:10331900F090DE2AE090F6B4F090DE2AE0FD7C0021
:1033290090F6B5EDF0ECA3F090DE2AE0FAE4FB2D7F
:10333900FDEA3CFC90F6B5EDF0ECA3F0E54B24FC7E
:10334900F54BE54C34FFF54CC374049D74029C5055
:103359000A90F6B57404F07402A3F0E52955D1601A
:1033690012D29090001412451CC29090001412457C
:103379001C80E890F6AEE0FBA3E0FCA3E090F6B178
:10338900E0FAA3E0FFEA2BFBEF3CFC74802529421D
:10339900D685268285278374DEF085268285278354
:1033A900A3742AF0852682852783A3A38C07EFF0CF
:1033B900852682852783A3A3A3EBF085268285270B
:1033C90083A3A3A3A3A3A3A3E0543FF085268285E7
:1033D9002783A3A3A3A3A3A3A3E054CF4410F0740A
:1033E900052526FEE43527FF90DE16E0FD8E828F47
:1033F90083EDF074042526FEE43527FF90DE17E0FF
:103409008E828F83541FF5F0E054E045F0F090F67A
:10341900B1E0FEA3E0FFEE254BFCEF354CFDC37494
:10342900049C74029D500B7404C39EF54B74029F57
:10343900F54CC37440954BE4954C502690FAEF74C3
:1034490006F090DE14E054FEF0751D04900005129C
:103459004563751D10854B82854C8312456390FF2A
:10346900FE22E52942D6E52942D7E54B2EFEE54C59
:103479003FFF90F6B1EEF0EFA3F0E52955D160FAE0
:10348900E529F452D190F6B1E0FEA3E0FF90F6B53C
:10349900E0FCA3E0FDC3EE9CEF9D402B90F6B7E066
:1034A9004402F090F6B5E4F0E4A3F090DE0E740562
:1034B900F0AE2374BF5524FF8E238F2490DE14E0D1
:1034C90054FEF09000012290DE0E7405F0AE2374D4
:1034D900BF5524FF8E238F2490DE14E054FEF09014
:1034E90000002290F6B7E0FF20E1012290F6AEE05D
:1034F900F54FA3E0F55090F6B3E0FCBCFF02800362
:103509000238CC90F6B4E0FBBB800050030238AD22
:10351900EB247050030238ADEB2480FA240A83F5BA
:1035290082EA241483F583E47352D74F69867F9F17
:10353900B5D8ADADADADAD2861353537373637378F
:10354900373738383838383838854F82855083E0EE
:10355900FAA385824F8583508A017A0090F6B5E9EE
:10356900F0EAA3F0854F82855083E0F8A385824F66
:103579008583508806E429F9EE3AFA90F6B5E9F020
:10358900EAA3F0854F82855083E0FEA385824F85AB
:1035990083508E4D754E00E0FEE4254DF54DEE3518
:1035A9004EF54E854D4F854E5090F6B3E0FE90F6A0
:1035B900B4E0F53289338A34854F358550368E82A9
:1035C90012271990F6B5E4F0E4A3F00238C4854F48
:1035D90082855083E0FEA385824F8583508E4D7589
:1035E9004E00E0FEA385824F8583508E05E4254D6C
:1035F900F54DED354EF54EAD4DAE4E90F6B9EDF0BB
:10360900EEA3F090F6B1E0FDA3E0FEED24FEF54D4A
:10361900EE34FFF54E854F53855054854D51854EF7
:1036290052E5514552603790F6B9E0F8A3E0FA74D3
:103639000128F9E43AFE90F6B9E9F0EEA3F08553D2
:1036490082855483E0FEA385825385835488828AC8
:1036590083EEF0155174FFB55102155280C390F6EF
:10366900B3E0FE90F6B4E0F5327535B57536F6750A
:1036790033027534008E821227190238C4EF20E212
:1036890036854F82855083E0FFA385824F8583501D
:103699008F4D754E00E0FFA385824F8583508F06BD
:1036A900E4FF254DF54DEE354EF54EAD4DAE4E9040
:1036B900F6B9EDF0EEA3F090F6B5E0FEA3E0FF8ECB
:1036C9004D8F4EC37440954DE4954E5006754D404F
:1036D900754E00EEC3954DFEEF954EFF90F6B5EE93
:1036E900F0EFA3F0AE4FAF50854D53854E54E553DF
:1036F9004554603390F6B9E0F8A3E0F9740128FA6B
:10370900E439FD90F6B9EAF0EDA3F08E828F83E0FB
:10371900FDA3AE82AF8388828983EDF0155374FFD0
:10372900B55302155480C790F6B3E0FF90F6B4E0A4
:10373900F5327535B57536F67533027534008F82F5
:103749001227190238C490F6B1E0F533A3E0F53435
:103759008B32854F358550368C821227190238C431
:1037690075359E75364D8B3275330D7534008C82E7
:103779001227190238C490FAF0E0FAA3E0FDA3E099
:10378900A3E08A358D368B327533047534008C820B
:103799001227190238C475358675364D8B32753343
:1037A9000E7534008C821227190238C490F6B1E0E4
:1037B900F533A3E0F5348B32854F358550368C824D
:1037C9001227199000C812451C123BD40238C4852F
:1037D9004F82855083E0FFA385824F858350BF02C6
:1037E90002800ABF03028011BF04118005123C9DAB
:1037F900800AC290123CE18003123CBA90F6B3E011
:10380900FF90F6B4E0F53290F6B1E0F533A3E0F5B8
:1038190034854F358550368F821227190238C49066
:10382900F6B57401F0E4A3F0754F367550DF90F6E4
:10383900B3E0FF90F6B4E0F53290F6B5E0F533A3C6
:10384900E0F534854F358550368F8212271990F669
:10385900B5E4F0E4A3F08063AD4FAE507F00756727
:10386900AC75684D756980756A09756B008D828EB6
:10387900838FF01245E3E5828583F045F0703C754E
:10388900C98090F6B3E0FF90F6B4E0F53290F6B156
:10389900E0F533A3E0F534854F358550368F821234
:1038A9002719801790F6B1E0F533A3E0F5348B3290
:1038B900854F358550368C8212271990F6B7E0541A
:1038C900FDF022E53045316009853082853183126A
:1038D900148990F6B7E054FDF022E52330E0117524
:1038E900220274FE5523FEAF248E238F2443BE018A
:1038F900E5235406602C90FAEE740AF075220374DD
:10390900FD5523FEAF248E238F2490DE01E044046D
:10391900F090000812451C90DE01E0FF54FBF075A1
:10392900220190DE0EE4F090DE11E0FF30E21D90FE
:10393900DE11E0FF54DBF090F69AE4F0E4A3F09096
:10394900F69FE4F0E4A3F090F6A6E4F090DE0E749E
:1039590005F090DE11E0FF30E52390DE11E0FF5421
:10396900CFF090FAEF7408F090F6ACE4F0E4A3F02D
:1039790090F6B1E4F0E4A3F090F6B8E4F090DE1428
:10398900E0FF30E62390DE14E0FF549FF090FAEF59
:103999007408F090F6ACE4F0E4A3F090F6B1E4F02A
:1039A900E4A3F090F6B8E4F0E52320E2057404B549
:1039B900221412285E90FAEE740BF074FB5523FE64
:1039C900AF248E238F24E52330E411122D7B74E775
:1039D9005523FE740F5524FF8E238F24E52430E6EA
:1039E9002190FAEE740CF01232CEAE82AF83E4BEAF
:1039F9000104BF000104FFBFFF028006BF010312DB
:103A090034ECE52354E07006E52454BD602990FAAE
:103A1900EF7409F0751D08900044124563852382EF
:103A2900852483751D1012456374E05523FE74BD0A
:103A39005524FF8E238F2422C0E0C082C083C00793
:103A4900C006C005C004C0D075D000E5BE30E6FB95
:103A590090DE06E0FF7E00E5234207E52442068F5B
:103A6900238E2490DE02E0FDE4CDC4CD6DCD54F06B
:103A7900CD6DFCED4207EC42068F238E2490DE04C7
:103A8900E025E0FCE4FD4207EC42068F23EEF52435
:103A990030E11290F6B7E054FEF0AE2374FD5524E0
:103AA900FF8E238F24758B00C2E8D0D0D004D005B7
:103AB900D006D007D083D082D0E032C0E0C007C0A2
:103AC900D075D000E5BE30E6FBC2AFE58930E7032B
:103AD900752203AFBE74FC5FF5BE758900C2C5D2FD
:093AE900AFD0D0D007D0E03222AA
:104D7F0053444343764A014348524F4E4F53207298
:104D8F00303332330000000000005253544E0055B0
:104D9F004E494D504C454D454E5445440052455398
:104DAF0045545F4E4F570012011001000000205074
:104DBF001D47600001010203010A061001000000F7
:104DCF002001000902210001010080FA09040000FE
:104DDF0002000001000705850240000107050502DA
:104DEF00400001040309040C0352006600430061F4
:104DFF000074001E034300680072006F006E006FA6
:104E0F00007300200044006F006E0067006C0065A7
:0D4E1F00000A03300030003900310000FFB0
:103AF200AE82AF837C007D008E028F038A828B832D
:103B0200E493F9A3AA82AB83E960070CBC00ED0D34
:103B120080EA8E358F367532F08C338D347582FEA5
:103B2200022719E58290F6C2F07535C27536F67530
:103B320032F17533017534007582FE022719AF83A5
:103B4200E58290F6C3F0EFA3F07535C37536F675CE
:103B520032F27533027534007582FE022719AF8284
:103B6200AE83ADF0FC90F6C5EFF0EEA3F0EDA3F05E
:103B7200ECA3F07535C57536F67532F375330475F9
:083B820034007582FE022719D0
:0514E400E4F510F51114
:103B8A007EC97FF68FD57EC97FF68ED47ED17FF629
:103B9A008FD37ED17FF68ED27567007568187569E6
:103BAA000090F6C975F0000249CF7403B51006E417
:103BBA00B51102800280047582FF22AE10AF110592
:103BCA0010E4B5100205118E822290DF46E0FFBF95
:103BDA00F00E90DF47E0FFBF0D0690DF487469F0F2
:103BEA00C2AF759A0075B80075A8001229B7AFBEA2
:103BFA00747F5FF5BE75D69FC29002000022124AFA
:103C0A0043AC82AD83AEF0FFC004C005C006C00756
:103C1A009037BD75F086743D1248CBAC82AD83AE49
:103C2A00F0FFE58124FCF581E4C0E0C0E074C0C087
:103C3A00E07441C0E08C828D838EF0EF124B63AC4E
:103C4A0082AD83AEF0FFE58124FCF5818C828D8301
:103C5A008EF0EF124A56AC82AD83AEF090DF09EED9
:103C6A00F08D0390DF0AEBF090DF0BECF02275E1A8
:103C7A000490DF3BE0FFBF01F890FAE8E0F5E1903D
:103C8A00FAE8E0FFBF04012290DF3BE0FFBF010238
:103C9A0080ED2290FAE8E0FFBF02012290DF13E0F4
:103CAA0054F0F0E0440FF090FAE87402F002403762
:103CBA0090FAE8E0FFBF03012290DF13E054F0F02E
:103CCA00E0FF440AF090FAE87403F075E10390DF2C
:103CDA003BE0FFBF13F82290FAE8E0FFBF0401229D
:103CEA0090DF13E054F0F0AF9174EF5FF59175E156
:103CFA000490DF3BE0FFBF01F8AF9B74FC5FF59BCC
:103D0A00AFE974EF5FF5E990FAE87404F02290FAEB
:103D1A00EBE4F0E4A3F090FAE2E4F0E4A3F090FA22
:103D2A00E4E4F0E4A3F053C6C7759D00859E9E4364
:103D3A009E0485A9A943B90190FAE87404F075674D
:103D4A000075680075690490F6E275F0001249CFB3
:103D5A001225C7D2A87591D175E900751400439A46
:103D6A000175E10490DF3BE0FFBF01F8227E007F8E
:103D7A0000C3EE94DCEF9405502490DF3CE0FD5440
:103D8A0050600490000122900032C007C00612451C
:103D9A0044D006D00774322EFEE43FFF80D3900051
:103DAA00002285821B85831C90FAEDE4F090DF02E5
:103DBA00E0FD90DF3BE0FCBC1310A290B3920192AD
:103DCA0090C0051238E3D00580E8C29090FB05E464
:103DDA00F090FAFBE517F0E518A3F090FB01E5195E
:103DEA00F0E51AA3F090FAFDE515F0E516A3F090B8
:103DFA00FAFFE515C39519F0E516951AA3F090FA9E
:103E0A00FFE0FBA3E0FC8517678518688B828C832B
:103E1A00C005124AAAAB82AC83D00590FB03EB25FE
:103E2A0015F0EC3516A3F0E5154516703F851B8293
:103E3A00851C83E0FB7C008B158C1690DF04E0FA6E
:103E4A00530203BA00028014BA01028003023EDB65
:103E5A0074012BF515E43CF516023EDB051BE4B5AF
:103E6A001B02051C90DF02E515F0806590DF04E077
:103E7A00FC530403BC00028028BC015585156785E4
:103E8A001668756901756A00851B82851C83C005E1
:103E9A001244E7D005AC15851B82851C83ECF080A3
:103EAA0030E51745187004E516602090FB03E0FB27
:103EBA00A3E090DF02EBF090DF04E054FCF0E0FCBA
:103ECA004402F090FB057401F0800690DF02E515CC
:103EDA00F0D2A890FB06E0FC20E303023FC890DF83
:103EEA0004E0FC530403BC010690FAED7401F0905F
:103EFA00FAEDE0FC251BF582E4351CF58385156790
:103F0A00851668C005C0041247CDAA82AB83D004C7
:103F1A00D00590FB06E0F9530104B90433EC251BE4
:103F2A00F8E4351CF990FB06E0FF74F05FF5618850
:103F3A005D895E8A5F8B6088828983C005C004C000
:103F4A0003C0021247F4D002D003D004D005803156
:103F5A00EC251BFEE4351CFF90FB06E0F974F059D2
:103F6A00F5668E628F638A648B658E828F83C00545
:103F7A00C004C003C002124809D002D003D004D042
:103F8A0005EC602290FB06E0FF5307F0BF500B855B
:103F9A001B82851C837410F080248A07851B828506
:103FAA001C83EFF0801890FB06E0FF5307F0BF5028
:103FBA000890DF027410F0800590DF02EAF0851B9A
:103FCA0012851C1390FAF9E4F0E4A3F075E1037E7C
:103FDA00607FEA90DF3BE0FCBC130280211EBEFF3B
:103FEA00011FEE4F6018A290B392019290C007C0D1
:103FFA0006C0051238E3D005D006D00780D5D29086
:10400A00EE4F700690FAEF7413F090DF3BE0FFBFBB
:10401A001310A290B392019290C0051238E3D00512
:10402A0080E8C29090DF02EDF075820122D2A87575
:10403A00670075680075690290F6E275F00012492A
:10404A00CF90FAE2E4F0E4A3F090FAE4E4F0E4A317
:10405A00F090FAE6E4F090FAE77401F090F6E1E401
:10406A00F0AF9B74FC5FF59BAFE974EF5FF5E97500
:10407A00E10290DF3BE0FFBF0DF84391102290FB75
:10408A00077401F02290FB07E4F022C0E0C0F0C000
:10409A0082C083C007C006C005C004C003C002C0F6
:1040AA0001C000C0D075D00090FAEE7411F0C28938
:1040BA0090DF3BE0FFBF0D0280030241D2D2909015
:1040CA00FAF4E0FF602790FAF5E0FEA3E0FF90FA29
:1040DA00F5E024FFFCA3E034FFFD90FAF5ECF0EDE7
:1040EA00A3F0EF700890DF04E0FF54FCF090FAE8C8
:1040FA007402F090F6E1E025E0FEE424E2FFEE34FB
:10410A00F6FE90F6E1E075F002A424E2FC74FA35BA
:10411A00F0FD8C828D83E0FAA3E0FB74012AF8E4B7
:10412A003BF98C828D83E8F0E9A3F0EA2FF582EB64
:10413A003EF583E5D9F090F6E1E075F002A424E2B9
:10414A00F58274FA35F0F583E0FEA3E0FF54FE70C1
:10415A001A90F6E1E075F002A424E2F58274FA35C9
:10416A00F0F583E0FEA3E0FF4E701A90F6E1E0FF5F
:10417A0075F002A424E2F58274FA35F0F58374FF2F
:10418A00F07401A3F090FAF5E0FEA3E0FF4E60039D
:10419A0002428E90FAF4E0FF700302428E90FAF720
:1041AA00E0FEA3E0FF90FAF5EEF0EFA3F090FAF547
:1041BA00E0FEA3E090DF02EEF090DF04E054FCF0B2
:1041CA00E0FF4402F002428E90DF3BE0FFBF1302A1
:1041DA00800302428E90FB05E0FF70030242679063
:1041EA00FAF9E0FEA3E0FF90FAFDE0FCA3E0FDEEA1
:1041FA00B50443EFB5053F90FAFBE0FEA3E0FF4E9E
:10420A00603490FAFBE0FEA3E0FFBEFF05BF0002A8
:10421A00801490FAFBE024FFFEA3E034FFFF90FA3B
:10422A00FBEEF0EFA3F090FB01E0FEA3E0FF90FAB3
:10423A00F9EEF0EFA3F090FB03E0FEA3E0FF90FBA2
:10424A0003E024FFFCA3E034FFFD90FB03ECF0ED58
:10425A00A3F0EF700890DF04E0FF54FCF090FAE856
:10426A007403F090FAF9E0FEA3E0FF90FAF9E02473
:10427A0001F0A3E03400F0EE2512F582EF3513F5D4
:10428A0083E0F5D9D0D0D000D001D002D003D00439
:10429A00D005D006D007D083D082D0F0D0E032C08B
:1042AA0021C0E0C0F0C082C083C007C006C005C0FC
:1042BA0004C003C002C001C000C0D075D0007F0096
:1042CA0090FAEE7410F0AE9B74FC5EF59BE5E94241
:1042DA0014E5E930E02090FAE9E0FDA3E08D067DDF
:1042EA0000AB9C7C0090FAEBED4BF0EE4CA3F0AEE9
:1042FA00E974FE5EF5E9E5E95470700302448490BE
:10430A00FAE8E0FEBE030AAE14748F5EF5140244A6
:10431A007D90F6E1E0FEB40100E43324E6F582E4A0
:10432A0034FAF583E0FEBE0102800302444F90FB9B
:10433A0006E0FE20E10302442590DF04E0FE530676
:10434A0003BE01027F0190FB06E0FE530601BE0197
:10435A006790F6E1E025E0FDE424E2FEED34F6FDA7
:10436A008F037C00EB2EFEEC3DFD90F6E1E0F9298F
:10437A00FAE424E2F9EA34F6FAEB29F55DEC3AF5C7
:10438A005E90F6E1E075F002A424E2F58274FA3553
:10439A00F0F583E0FBA3E0FC8F017A00EBC399F50B
:1043AA005FEC9AF56090FB06E0FC74F05CF5618EB8
:1043BA00828D831247F4806390F6E1E025E0FDE404
:1043CA0024E2FEED34F6FD8F037C00EB2EFEEC3D7D
:1043DA00FD90F6E1E0F929FAE424E2F9EA34F6FA82
:1043EA00EB29F562EC3AF56390F6E1E075F002A488
:1043FA0024E2F58274FA35F0F583E0FBA3E0FC7A57
:10440A0000EBC39FF564EC9AF56590FB06E0FF7438
:10441A00F05FF5668E828D8312480990F6E1E064BA
:10442A0001F090F6E1E0FF75F002A424E2F582744F
:10443A00FA35F0F583E4F0E4A3F090FAE6E4F090BC
:10444A00FAE7F0802C90FAEF7412F0A290B392027D
:10445A00929090F6E1E0FF75F002A424E2F58274EE
:10446A00FA35F0F583E4F0E4A3F0A290B392029255
:10447A0090C290AFE974CF5FF5E9E5E930E61E90A6
:10448A00FAEF7410F0A290B392029290123C78A2C2
:10449A0090B392029290AFE974BF5FF5E9E5E93013
:1044AA00E71E90FAEF7411F0A290B3920292901262
:1044BA003C78A290B392029290AFE9747F5FF5E9DB
:1044CA00D0D0D000D001D002D003D004D005D0067D
:1044DA00D007D083D082D0F0D0E0D02132AE82AFE4
:1044EA0083AC67AD688C028D031CBCFF011DEA4BCF
:1044FA00601FE5692CFAE56A3DFBEA2EFAEB3FFB01
:10450A00EC2EF582ED3FF583E0F98A828B83F08009
:02451A00D422A9
:104E2C000000000000000000000000000000000076
:044E3C000000000072
:10451C00AE82AF831EBEFF011FC3E49EE464808F96
:10452C00F063F08095F0500F7C4C7D041CBCFF01B7
:10453C001DEC4D70F780DD22AE82E583CE25E0CEFA
:10454C0033FF1EBEFF011FC3E49EE464808FF06343
:10455C00F08095F040EC22AE82AF83D2909003E8CD
:10456C00C007C00612451CC2909001F412451CD025
:10457C0006D007151DAD1DED20E754EE30E024905C
:10458C000019C007C006C00512451CD29090022627
:10459C0012451CC29090001912451CD005D006D0B3
:1045AC00078022900113C007C006C00512451CD21B
:1045BC009090003212451CC29090011312451CD0F1
:1045CC0005D006D007EFC313CE13CEFF1D80A8C2B3
:1045DC00909003E802451CAD82AE83AFF0AA67ABA6
:1045EC0068AC69A86AA96BE8496046C000C0018D37
:1045FC00828E838FF0124C26F98A828B838CF01278
:10460C004C26F8E9C398F56CD001D000E56C60102D
:10461C00E56CF56D3395E0F56E856D82856E8322C4
:10462C000DBD00010E0ABA00010B18B8FF0119806C
:10463C00B690000022AFBE74FB5FF5BEE5BE30E65F
:10464C00FBAFC674B85FF5C6E5C620E6FB43BE04F7
:10465C00E5BE30E6FB53C6C743E40C43E401D2B9D4
:10466C002243FE03C29022C0E0C082C083C0D0901F
:10467C00FAF0E02401F0A3E03400F0A3E03400F001
:10468C00A3E03400F0D0D0D083D082D0E032123B03
:10469C00B48582598559F005F07401800225E0D566
:1046AC00F0FBF55AE55975F008A424C9F55574F6D4
:1046BC0035F0F556855582855683A3A374DFF085B6
:1046CC005582855683A3A3A374B1F0855582855674
:1046DC0083A3A3A3A3A37410F0855582855683A34B
:1046EC00A3A3A3A3A3E054E0441DF08555828556F3
:1046FC0083A3A3A3A3A3A3A3E0543F4440F08555F5
:10470C0082855683A3A3A3A3A3A3A3E054FC4401D3
:10471C00F0123BB485825B855BF005F0740180027E
:10472C0025E0D5F0FBF55CE55B75F008A424C9F534
:10473C005774F635F0F55885578285588374DFF039
:10474C00855782855883A374B2F085578285588328
:10475C00A3A3A3A3A37410F0855782855883A3A3A6
:10476C00A3A3A3A3E054E0441EF08557828558838D
:10477C00A3A3A3A3A3A3A3E054CF4410F085578213
:10478C00855883A3A3A3A3A3A3A3E054FC4401F0E3
:10479C0022AE82AF83E5B330E3FB85558285568329
:1047AC008F05EDF0855582855683A37F00EEF0E5ED
:1047BC005A42D6E56745684401F5B3E5B330E3FBEF
:1047CC0022AE82AF83AC67AD68EC540F60158C02DF
:1047DC008D030CBC00010DEA2EF582EB3FF583E452
:1047EC00F080E68C828D8322855D67855E68855FAF
:1047FC006985606A756B0085616C02481E8562670D
:10480C0085636885646985656A756B0285666C026B
:10481C00481E85826D85836EE5B330E3FBE5692424
:10482C00F0FCE56A34FFFD7450556CFBE56B456C90
:10483C004401FA7401456BF9E4F56FF570C3E56F4B
:10484C009569E570956A400122C0028555828556AE
:10485C0083E56F256DFEE570356EFF8E008F028A45
:10486C0000E8F0855582855683A3EEF08557828546
:10487C005883A3A3E56F2567FEE5703568FF8E00AE
:10488C008F028A00E8F0855782855883A3A3A37F03
:10489C0000EEF0E55C455A42D6D002EB600CECB56C
:1048AC006F08EDB5700489B380028AB3E5B330E3C9
:1048BC00FB7410256FF56FE43570F57002484912E2
:1048CC00496EBC0003024B35EF60FA30D502B2D111
:1048DC00E583B4FF03024B4BE582B4FF03024B4B61
:1048EC00258340072482400B024B3524831450034C
:1048FC00024B4BF582EA8DF0A4A8F0EA8EF0A428C6
:10490C00F8E435F0F9EB8DF0A428E935F0F9E4334F
:10491C00CA8FF0A429F9EA35F0FAEBF88EF0A42945
:10492C00F9EA35F0FAE433FBEC8DF0A429F9EA3519
:10493C00F0FAE43BFBE88FF0A42AFAEB35F0FBE449
:10494C0033CCFD8EF0A42AFAEB35F0FBE43CFCED05
:10495C008FF0A42BFBEC35F0FC20E70312499C02F2
:10496C004B14AA82AB83A2F73392D1F5826002D2A8
:10497C00F7ACF0E58124F9F8E6FD08E6FE0886F0D0
:10498C0008E6A2F73392D5F5836002D2F7AFF02296
:0614BA00E478FFF6D8FD06
:10499C007804EC7011E58224F8500AF582E4C9CA57
:1049AC00CBFCD8EF22EC7820058220E713D58201CE
:1049BC0022C3E933F9EA33FAEB33FBEC33FCD8EAE4
:1049CC00158222AC82AD83AE68AF69BE0004EF6085
:1049DC000C1F0FE567124A8FA3DEFADFF88C828D6D
:1049EC008322AD82AE83AFF08D6C8E6D8F6E85673A
:1049FC006F856870856971A86AA96B88038904182A
:104A0C00B8FF0119EB4C6025856F82857083857129
:104A1C00F0124C26FCA385826F8583708D828E8369
:104A2C008FF0EC124A8FA3AD82AE8380CE856C8260
:074A3C00856D83856EF022F9
:101498007914E94400601B7A01904E2C78F4759316
:1014A800FAE493F2A308B800020593D9F4DAF275C6
:0214B80093FFA0
:104A4300FCABF0AA83A982749EC2D1F58212499C61
:104A5300024B147F9E124A7D30D103024B35C3EFC4
:104A63009582500974FFF5F0F583F58222790012DF
:104A73004C4289828A838BF0EC22AA82AB83A2F711
:104A83003392D1F5826002D2F7ACF02220F71130D5
:104A9300F6138883A88220F509F6A883758300227C
:104AA30080FEF280F5F022E5828567F0A4C582C01E
:104AB300F08568F0A4D0F025F0C5838567F0A425C0
:104AC30083F58322E567456860467A01E56725E05B
:104AD300F567E568334012F568E5829567E58395E8
:104AE3006840030A80E6C3E56813F568E56713F5D4
:104AF30067C3E5829567F5F0E58395684005F5831F
:104B030085F082C3E56813F568E56713F567DAE1B5
:014B1300227F
:1014C0007800E84400600A79007593F0E4F309D8E5
:1014D000FC78F4E8440A600C790B90F000E4F0A387
:0414E000D8FCD9FA61
:02148900E4730A
:104B1400B98003EA13B34010EA2401FAE43BFBE44E
:104B24003CFC50047C800582BC000EBB000BBA0028
:104B340008E4F5F0F583F58222A2D1E582138CF026
:104B440092F78B838A8222E4F583F58275F080F4F0
:104B5400A2D11322E4F583F58275F0C0747F22128A
:104B6400496E30D502B2D1BF0009BC0003024B58D4
:104B7400024B4BBC0003024B35E583B4FF0BE582CB
:104B8400B4FF03024B58024B35E582B4FF03024BDA
:104B94004BC395835007247F400B024B352480146C
:104BA4005003024B4BF582C3ED9AEE9BEF9C4011F0
:104BB4001582C3EA33F9EB33FAEC33FBE433FC80BC
:104BC40005E4CCCBCAF9C08275F019C3E99DEA9E0D
:104BD400EB9FEC9400D5F002802D400EE99DF9EA9C
:104BE4009EFAEB9FFBEC9400FCC3B3E833F8E58238
:104BF40033F582E58333F583C3E933F9EA33FAEB1A
:104C040033FBEC33FC80C4B3E4F938FAE43582FBBB
:104C1400E43583FCD082500405827C8012499C02D6
:024C24004B2C17
:0D148B00758171124C85E5826003021486A4
:104C260020F71430F6148883A88220F507E6A883B7
:104C360075830022E280F7E49322E0226040F825A3
:104C460082500274FFF582E824F8501ECCCBCAF9D4
:104C5600E4CC24F85014CBCAF9E4CB24F8500BCAA0
:104C6600F9E4CA24F8500379002224086010F8C336
:104C7600EC13FCEB13FBEA13FAE913F9D8F12275EE
:034C860082002287
:00000001FF
