:0614000002148B02409F64
:01140B0032AE
:0114130032A6
:01141B00329E
:011423003296
:01142B00328E
:03143300023A2D4D
:01143B00327E
:011443003276
:03144B0002468ACC
:0314530002176617
:03145B00021A3D35
:011463003256
:03146B00023AB092
:011473003246
:01147B00323E
:031483000242B36F
:0314E90002148664
:0314860002270535
:1014EC00AE82AF83C2A0C2A4D2A375E10490DF3B4D
:1014FC00E0FDBD01F890DF06EEF0C2A0D2A4C2A3BD
:10150C0075E10290DF3BE0FFBF0DF8227E007F000B
:10151C0090F007E0FCA3E0FD8E028F03C3EA9CEB86
:10152C009D503AEE2415FCEF34F0FD90F005E0F5FB
:10153C0067A3E0F5688A828B83C007C006C005C02C
:10154C0004124ADEAA82AB83D004D005D006D007A1
:10155C008C828D83EAF00EBE00B60F80B322AF8270
:10156C00E59CC39FF59CE59C24FAF59C439E10D208
:10157C00BA22AF9E74EF5FF59E22AE82AF83E50870
:10158C0024D65006904CA0023ADE90F011E075F093
:10159C0029A42487F58274F335F0F583E508F090DF
:1015AC00F011E075F029A42487FC74F335F0FD0CE0
:1015BC00BC00010D7B008E678F6875690085086A19
:1015CC00756B008C828D838BF0124A0590F011E0C4
:1015DC00FF0F90F011EFF0BF0500400590F011E403
:1015EC00F022AE82AF8390F000E0FD601CBD0102E2
:1015FC008017904CBAC007C006123ADE90F000E09B
:10160C00F582123B11D006D007C007C00612157E1A
:10161C00D006D00790F009E4F0E4A3F090F009E0D4
:10162C00FCA3E0FD8C828D83C007C006121703D08B
:10163C0006D00790DF3BE0FDBD0DF890DF3AE0FDF2
:10164C0053057FBD6000402F90F009E0FCA3E0FD46
:10165C000CBC00010D90F009ECF0EDA3F0D29190D0
:10166C00000AC007C006124526C29190000A124516
:10167C0026D006D00780A590F0007402F090FAF006
:10168C00E0FAA3E0FBA3E0A3E090F00BEAF0EBA3FD
:10169C00F090F00FEEF0EFA3F02290F000E4F09059
:1016AC00FAF0E0FCA3E0FDA3E0A3E090F00BECF07B
:1016BC00EDA3F02290F0007404F090FAF0E0FCA39B
:1016CC00E0FDA3E0A3E090F00BECF0EDA3F0229092
:1016DC00F0007405F090F013E4F0E4A3F090FAF04D
:1016EC00E0FCA3E0FDA3E0A3E090F00BECF0EDA395
:1016FC00F075820002156AAE82AF83EE2415F58276
:10170C00EF34F0F583E0FF7E008F828E830214ECC1
:10171C00AE82AF8390F385EEF0EFA3F0222290F02F
:10172C0009E0FEA3E0FF0EBE00010F90F009EEF001
:10173C00EFA3F0C3EE9470EF9403400890F009E42B
:10174C00F0E4A3F090F009E0FEA3E0FFEE2415F521
:10175C0082EF34F0F583E0F58222C021C0E0C0F0C6
:10176C00C082C083C007C006C005C004C003C0024D
:10177C00C001C000C0D075D00090FAE9E02401F09F
:10178C00A3E03400F090F001E0FEA3E0FF90FAE952
:10179C00E0FCA3E0FDECB5060CEDB5070890FAE90A
:1017AC00E4F0E4A3F090FAE9E0FEA3E0FFBE00054C
:1017BC00BF0002800BBE0105BF0002806902192325
:1017CC0090FAE9E0FEA3E08E077E00AC9C7D00EC75
:1017DC004206ED420790F00DEEF0EFA3F090F00909
:1017EC00E0FEA3E0FF0EBE00010F90F009EEF0EF5B
:1017FC00A3F090F007E0FCA3E0FDC3EE9CEF9D404E
:10180C000890F009E4F0E4A3F090DF3BE0FFBF1395
:10181C0003021A2090F009E0FEA3E0FF8E828F8372
:10182C00121703021A2090F000E0FFBF050280039C
:10183C00021A2090001912452690F454741CF09052
:10184C00F009E0FEA3E090F455EEF090F009E0A36F
:10185C00E090F456F090F4577442F090F458744CB5
:10186C00F090F4597441F090F45A7448F090F45B91
:10187C007442F090F45C744CF090F45D7441F09010
:10188C00F45E7448F090F45F7442F090F460744C21
:10189C00F090F4617441F090F4627448F090F46349
:1018AC007442F090F464744CF090F4657441F090D0
:1018BC00F4667448F090F4677442F090F468744CD9
:1018CC00F090F4697441F090F46A7448F090F46B01
:1018DC007442F090F46C744CF090F46D7441F09090
:1018EC00F46E7448F090F46F7420F075151CE4F5E8
:1018FC0016F517F518F519F51A90F455123DAA902E
:10190C00F013E0FEA3E0FF0EBE00010F90F013EE0B
:10191C00F0EFA3F0021A2090F000E0FFBF0302806A
:10192C0065BF04028008BF05028003021A2090F0F4
:10193C000BE0FEA3E0FF90FAF0E0FAA3E0FBA3E0DB
:10194C00FCA3E0FD8E008F01E4FEFFEAC398FAEBE6
:10195C0099FBEC9EFCED9FFDC374649AE49BE49CA4
:10196C00E49D5022904CE8123ADE90F0007405F0A1
:10197C0090FAF0E0FCA3E0FDA3E0FEA3E0FF90F002
:10198C000BECF0EDA3F090F012E075F029A4248795
:10199C00FE74F335F0FF8E828F83E06077A291B3F3
:1019AC009200929190001912452690F012E075F079
:1019BC0029A42487FE74F335F0FF90DF04E0540172
:1019CC00FDB40100E4332EFDE43FFC8E828F83E0F6
:1019DC00FE8E15E4F516F517F518F519F51A8D8226
:1019EC008C83123DAA90F012E075F029A42487F59F
:1019FC008274F335F0F583E4F090F012E0FF0F9071
:101A0C00F012EFF0BF0500400590F012E4F0904D9D
:101A1C0006123ADED0D0D000D001D002D003D004D0
:101A2C00D005D006D007D083D082D0F0D0E0D02122
:101A3C00323290F000E4F090F011F090F012F0904F
:101A4C00F009F0E4A3F090F0057453F0E4A3F090E7
:101A5C00F0077453F0E4A3F090F00DE4F0E4A3F07D
:101A6C0090F00BE4F0E4A3F090F0017406F0E4A322
:101A7C00F090F003E4F0E4A3F090F00FE4F0E4A3B2
:101A8C00F090F013E4F0E4A3F012151890F000E4D9
:101A9C00F0759DDC859E9E439E0443CB1022021A5A
:101AAC003E901EA9122C0F90FAF0E4F0E4A3F0E49F
:101ABC00A3F0E4A3F0021AAA90F000E0FFBF000329
:101ACC00021DBBBF0103021CA2BF0203021BAABF63
:101ADC000303021DBBBF0403021DBBBF0503021D94
:101AEC009CBF40028006BF4102803D22C2A0C2A41E
:101AFC00D2A375E10490DF3BE0FFBF01F890DF0358
:101B0C0074E5F090DF047404F090DF077412F09029
:101B1C00DF08E4F090DF147410F090DF17E0FF445E
:101B2C00C0F090F0007441F07F0090F013E0FDA342
:101B3C00E0FE8F037C00C3EB9DEC9E503590DF06DE
:101B4C00EFF0C2A0D2A4C2A375E10290DF3BE0FE8D
:101B5C00BE0DF8900002C007124526D007EF24E214
:101B6C00FDE434F6FE90DF3AE0FC8D828E83F00FBC
:101B7C0080B8C2A0C2A4D2A375E10490DF3BE0FF01
:101B8C00BF01F890F013E0FEA3E08E3375340075BE
:101B9C0032017535E27536F6758243022737E51446
:101BAC007003021C9B90FAEE740DF0AF9A74FE5FFA
:101BBC00F59AE51420E403021C9B90F0007403F0EA
:101BCC0090FAEBE0FEA3E08E8212156A904D14128F
:101BDC003ADE90FAEBE0FEA3E0FF8E828F83123B9D
:101BEC002C90F6E1E025E0FEE424E2FFEE34F6FE74
:101BFC008F828E83123ADE90F6E1E0FFB40100E4AE
:101C0C0033FF24E6FDE434FAFE8D828E83E0707897
:101C1C0090DF04E0FE30E03B8F06EE2EFDE424E284
:101C2C00F582ED34F6F583E0FE8E337534008F06C5
:101C3C00EE2EFDE424E2FEED34F6FD74012EF535B6
:101C4C00E43DF536753201758242C007122737D054
:101C5C0007802890DF02E0FE8E337534008F06EE8D
:101C6C002EFDE424E2FEED34F6FD8E358D36753214
:101C7C0001758242C007122737D007EF24E6F582A0
:101C8C00E434FAF5837401F0AF1474EF5FF5147556
:101C9C001400439A0122E5147003021D9590FAEE8C
:101CAC00740DF0AF9A74FE5FF59AE51420E403020C
:101CBC001D9590F6E1E0FFB40100E433FF904D294F
:101CCC00C007123ADED0078F06EE2EFDE424E2FEAA
:101CDC00ED34F6FD8E828D83C007123B2CD007EFBE
:101CEC002FFEE424E2FFEE34F6FE8F828E83123A4E
:101CFC00DE90F6E1E0FFB40100E433FF24E6FDE4FE
:101D0C0034FAFE8D828E83E0707890DF04E0FE3032
:101D1C00E03B8F06EE2EFDE424E2F582ED34F6F581
:101D2C0083E0FE8E337534008F06EE2EFDE424E244
:101D3C00FEED34F6FD74012EF535E43DF5367532C5
:101D4C0001758242C007122737D007802890DF0226
:101D5C00E0FE8E337534008F06EE2EFDE424E2FE99
:101D6C00ED34F6FD8E358D36753201758242C00725
:101D7C00122737D007EF24E6F582E434FAF58374A2
:101D8C0001F0AF1474EF5FF514751400439A01223F
:101D9C0090F013E0FEA3E0FF90F007E0FCA3E0FD61
:101DAC00C3EE9CEF9D50012290F0007404F022E5EC
:101DBC001470012290FAEE740DF0E5145430700199
:101DCC002290F6E1E0FFB40100E433FF24E6FDE4E9
:101DDC0034FAFE8D828E83E06003021E7490DF0461
:101DEC00E0FE30E03B8F06EE2EFDE424E2F582EDC2
:101DFC0034F6F583E0FE8E337534008F06EE2EFD3F
:101E0C00E424E2FEED34F6FD74012EF535E43DF5E7
:101E1C0036753201758242C007122737D007803BD6
:101E2C0090FAF4E0FE600A90FAF7E0FDA3E0FE8081
:101E3C000890DF02E0FCFD7E008F04EC2CFBE42418
:101E4C00E2FCEB34F6FB8C358B367532018D338E20
:101E5C0034758242C007122737D007EF24E6F5828B
:101E6C00E434FAF5837401F0AF1474CF5FF51422E7
:101E7C00E58290F470F090F6B7E054FDF090F6B374
:101E8C00E0FF90F6B4E0F53290F470E0FE8E33751E
:101E9C003400850B35850C368F8202273790F6AED1
:101EAC00E0FEA3E0FF90F6B3E0FDBD42028003022A
:101EBC00245190F6B4E0FDBD0203021F8EBD030356
:101ECC00022154BD050302202FBD06030220DDBDF7
:101EDC0007030220F3BD0803022102BD09030221FE
:101EEC002BBD1003022231BD11030222A0BD12032F
:101EFC000222C5BD130302231CBD1403022339BDEA
:101F0C001503022348BD1603022381BD17030221CA
:101F1C0078BD180302228BBD20030223C4BD21030C
:101F2C00022439BD22030223A0BD23030222E9BDF2
:101F3C002403022304BD40028008BD41028031020B
:101F4C002447C007C00612157ED006D00790F000BB
:101F5C007440F08E828F83E0FD7C0090F013EDF0E6
:101F6C00ECA3F08E0B8F0C758201121E7C02245197
:101F7C0090F000E4F08E0B8F0C758201121E7C0227
:101F8C00245190F000E06009904D43123ADE022497
:101F9C00518E828F83E0FDA3AE82AF837C0090F4E0
:101FAC0071EDF0ECA3F08E828F83E0FBA3AE82AFD9
:101FBC00838B02E42DFDEA3CFC90F471EDF0ECA374
:101FCC00F08E828F83E0FBA3AE82AF837A008E8289
:101FDC008F83E0F9A3AE82AF8389008801E42BF5EF
:101FEC0017E93AF5188E828F83E0FBA3AE82AF839C
:101FFC007A008E828F83E0F9A3AE82AF838900884A
:10200C0001E42BF519E93AF51A8D158C168E828F91
:10201C0083123DAA750B71750CF4758201121E7C2E
:10202C000224518E828F83E0FDA3AE82AF8390FA9F
:10203C00F7EDF0E4A3F08E828F83E0FC7D0090FA44
:10204C00F7E0FAA3E0FB90FAF7ED2AF0EC3BA3F0F3
:10205C0090FAF7E0FCA3E0FD4C604090FAF47401B8
:10206C00F090FAF5E0FCA3E0FD4C7046123CD390E6
:10207C00FAF7E0FCA3E0FD90FAF5ECF0EDA3F0909C
:10208C00FAF5E0FCA3E090DF02ECF090DF04E05402
:10209C00FCF0E04402F0123C89801790FAF4E4F072
:1020AC0090FAF5F0E4A3F090FAF7E4F0E4A3F01260
:1020BC003CD390F6B3E0FD90F6B4E0F5327535F70D
:1020CC007536FA7533017534008D82122737022468
:1020DC00518E828F83E090FB06F08E0B8F0C7582F5
:1020EC0001121E7C022451750B06750CFB758201C6
:1020FC00121E7C02245190FB06E0FD74F05DF56825
:10210C007567068E828F83C007C0061247B4D0064F
:10211C00D0078E0B8F0C758210121E7C02245190EE
:10212C00FB06E0FD74F05DF5687567048E828F83A5
:10213C00C007C0061247B4D006D0078E0B8F0C75A3
:10214C008210121E7C0224518E828F83E0FD7C0053
:10215C008D828C83C007C00612171CD006D0078E48
:10216C000B8F0C758201121E7C0224518E828F8380
:10217C00E0FDA3AE82AF838D047D0090F471ECF092
:10218C00EDA3F0C374299CE49D5015904CA0123A19
:10219C00DE750B71750CF4758201121E7C022451D4
:1021AC0090F011E075F029A42487FA74F335F0FB54
:1021BC008A828B83E06015904D68123ADE750B7144
:1021CC00750CF4758201121E7C0224518C018A82DA
:1021DC008B83E9F090F011E075F029A42487FA7450
:1021EC00F335F0FB0ABA00010B8B017B008E678F75
:1021FC00687569008C6A8D6B8A8289838BF0124AB0
:10220C000590F011E0FD0D90F011EDF0BD050040D2
:10221C000590F011E4F0750B71750CF475820112D8
:10222C001E7C0224518E828F83E0FD7C0090F00591
:10223C00EDF0ECA3F090F005E0FAA3E0FBC37470B2
:10224C009D74039C402A74022EFEE43FFF8E678F20
:10225C00687569008A6A8B6B90F01575F000124AEC
:10226C0005750B05750CF0758202121E7C0224514B
:10227C00750B89750C4D758208121E7C02245190C9
:10228C00F005E0FCA3E0750B15750CF08C82121EAA
:10229C007C02245112172A7C008C8312170390F0B5
:1022AC0009E0FCA3E0FDEC2415F50BED34F0F50C86
:1022BC00758201121E7C0224518E828F83E0FD7C7C
:1022CC00008D828C83C007C0061214ECD006D00798
:1022DC008E0B8F0C758201121E7C022451758200AC
:1022EC00C007C00612156AD006D0078E0B8F0C756E
:1022FC008201121E7C022451C007C00612157ED02A
:10230C0006D0078E0B8F0C758201121E7C02245195
:10231C008E828F83E0FD7C0090F001EDF0ECA3F059
:10232C008E0B8F0C758201121E7C022451750B01D1
:10233C00750CF0758204121E7C0224517C007DF019
:10234C007B008E828F83E0F97A0089678A687569D1
:10235C0000756A15756B008C828D838BF0C007C07D
:10236C0006124A05D006D0078E0B8F0C75821512FB
:10237C001E7C02245190FAE9E0FCA3E0FD90F003EE
:10238C00ECF0EDA3F0750B00750CF0758215121EB8
:10239C007C0224518E828F83E0FD7C008D828C83A5
:1023AC00C007C0061215EED006D0078E0B8F0C7529
:1023BC008201121E7C02245190FAF0E0FAA3E0FB99
:1023CC00A3E0A3E090F00BEAF0EBA3F08E828F83F6
:1023DC00E0FD90F000F090F000E0FCED24FA4041BC
:1023EC00EC2C2C9023F37302240502240502240503
:1023FC0002241F02241F022412C007C00612157EDD
:10240C00D006D007801BC007C0061216DBD006D042
:10241C0007800E758200C007C00612156AD006D060
:10242C00078E0B8F0C758201121E7C8018750B00A9
:10243C00750CF0758201121E7C800A8E0B8F0C7548
:10244C008201121E7C900000222290F6BCE0FFBF9D
:10245C00013990F69CE0FEA3E0FF90F6BFE0FCA3F0
:10246C00E0FD90F69FE0FAA3E0FBEA4B601D8E8244
:10247C008F83E0F9A3AE82AF838C828D83E9F0A3C6
:10248C00AC82AD831ABAFF011B80DF90F6A5E05435
:10249C00FDF090DE11E04408F02285820D85830E5C
:1024AC0085F00F124C3DFC20E7030225E174012559
:1024BC000DFAE4350EFBAC0F8A828B838CF0124C38
:1024CC003DFC601EBC0102802BBC0202803DBC03A3
:1024DC00028078BC0403022584BCFE030225A00202
:1024EC0025E175370275380090FAEE75F000122967
:1024FC00D80225E190DE00E0FC7B00753928753AA6
:10250C00008C828B83122A370225E17402250DFA86
:10251C00E4350EFBAC0F8A828B838CF0124C3DFAA7
:10252C00A3124C3DFB7406250DF8E4350EF9AC0FE7
:10253C00888289838CF0124C3DF539A3124C3DF501
:10254C003A8A828B83122A370225E1AA0DAB0EAC94
:10255C000F7406250DF8E4350EF9AF0F88828983C8
:10256C008FF0124C3DF537A3124C3DF5388A828B17
:10257C00838CF01229D8805D90F69CE0FDA3E0FEE0
:10258C00A3E0FF753910753A008D828E838FF0129F
:10259C002A3780417402250DFDE4350EFEAF0F7510
:1025AC00679175684D756980756A04756B008D82CD
:1025BC008E838FF01245EDE5828583F045F0601235
:1025CC00D29190012C124526C29190012C124526D5
:1025DC00800375C9839000002290DF2FE4F090DF18
:1025EC0030F090DF31F090DF00740CF090DF01746C
:1025FC004EF090DF0274FFF090DF037440F090DF38
:10260C0004E4F090DF05F090DF06F090DF0774062D
:10261C00F090DF08E4F090DF097424F090DF0A7486
:10262C003AF090DF0B74F1F090DF0C74CAF090DF8D
:10263C000D74A3F090DF0E7401F090DF0F7423F093
:10264C0090DF107411F090DF117436F090DF12747B
:10265C0007F090DF13743FF090DF147418F090DFE4
:10266C00157417F090DF16746CF090DF177403F08C
:10267C0090DF187440F090DF197491F090DF1A74A9
:10268C0056F090DF1B7410F090DF1C74E9F090DFB3
:10269C001D742AF090DF1EE4F090DF1F741FF09081
:1026AC00DF237488F090DF247431F090DF257409F7
:1026BC00F090DF2E74C0F090DF07740CF090DF09FF
:1026CC007425F090DF0A7495F090DF0B7455F09040
:1026DC00DF1A74B6F090DF1B7410F090DF1C74EAF4
:1026EC00F090DF1D742AF090DF1EE4F090DF1F7471
:1026FC001FF02212464B0246771226FF123B76122F
:10270C0046B11229A3123D10121AAD1229D2D2AF22
:10271C00122872D291900002124526C29190000AA2
:0B272C001245261238CF121AC480F8A4
:104CA00046485353786D6974206D65737361676509
:104CB00020746F6F206C6F6E6700464853532073EB
:104CC0007461746520656E746572696E67205359EE
:104CD0004E4348494E472066726F6D2077726F6E63
:104CE000672073746174650053594E43485F4D41AA
:104CF00053544552202D3E2053594E43494E474D63
:104D000041535445520046485353786D69742064AA
:104D10006F6E65006E6574776F726B207061636B88
:104D200065742873796E6329006E6574776F726B92
:104D3000207061636B657428646973636F76657254
:104D4000792900637261702C20706C656173652035
:104D50007573652046485353786D69742829206916
:104D60006E737465616421007374696C6C20776183
:104D70006974696E67206F6E20746865206C61735A
:104D800074207061636B6574004E4F204445414C44
:064D9000005253544E00D6
:10273700AF827E0190DE0E7405F0E53345347003F9
:1027470002286E7C107D2790DE11E0FB30E00D90B3
:10275700FAEF7401F01CBCFF011D80EBEC4D701407
:10276700D2919003E8124526C2919003E8124526BC
:1027770090FFFF22BE012F7E0090DE2A7440F0EF0B
:10278700F0E532F0AC337D0090DE2AECF0E534F072
:10279700C3743B9533E4953450067C3B7D00801A27
:1027A700AC33AD348014C374409533E4953450068C
:1027B7007C407D008004AC33AD347480252942D63B
:1027C700852682852783AA35AB368B01E9F08526D6
:1027D70082852783A3EAF0852682852783A3A374AE
:1027E700DEF0852682852783A3A3A3742AF0852696
:1027F70082852783A3A3A3A3A3ECFBF08526828569
:102807002783A3A3A3A3E054E0F08526828527832B
:10281700A3A3A3A3A3A3A3E0543F4440F085268228
:10282700852783A3A3A3A3A3A3A3E054CFF0E529FC
:1028370042D6E52942D7E52955D160FAE529F45270
:10284700D190DE0E7405F090DE11E0FB4401F0E557
:1028570033C39CF533E5349DF534EC2535F535ED7B
:102867003536F53602274190000022E52270051221
:1028770038CF80F722AFBE747F5FF5BE43BE80902E
:10288700DE0B74F7F090DE0774FFF090DE0974FF3B
:10289700F0438C10AF8C74FE5FF58CD2BD439A0267
:1028A700758900C2C5758B00C2E843A90243B90206
:1028B700852682852783A3A3A3A3E054E0F085267A
:1028C70082852783A3A3A3A3A3A3E0549F4420F057
:1028D700852682852783A3A3A3A3A3A3A3E04408F4
:1028E700F0852682852783A3A3A3A3A3A3A3E054EC
:1028F700FC4401F090DE01E054FEF0E4F525F523F9
:10290700F524F52290DE0EE4F090DE107404F090CA
:10291700DE137404F090F6A6E4F090F6A5F090F6B6
:102927009AF0E4A3F090F69C7473F074F4A3F0E4C7
:10293700A3F090F69FE4F0E4A3F090F6A1E4F09002
:10294700F6A2F090F6A3F0E4A3F090DE0E7405F083
:1029570090DE107408F090DE137408F090DE12E039
:102967004480F090F6B8E4F090F6B7F090F6ACF04B
:10297700E4A3F090F6AE7493F074F4A3F0E4A3F03C
:1029870090F6B1E4F0E4A3F090F6B3E4F090F6B477
:10299700F090F6B5F0E4A3F0439A0222123BA0852B
:1029A70082288528F005F07401800225E0D5F0FB28
:1029B700F529E52875F008A424C9F52674F635F03D
:1029C700F52790FAEE7402F002287CD29022C2908A
:1029D70022AD82AE83AFF090F6A6E06034D291903C
:1029E70003E8124526C2919003E8124526D291903A
:1029F70003E8124526C2919003E8124526D291902A
:102A070003E8124526C2919003E812452690FFFF7E
:102A17002290F697EDF0EEA3F0EFA3F090F69AE58B
:102A270037F0E538A3F090F6A67401F09000002285
:102A3700AE82AF8390F6A6E06034D2919003E8129D
:102A47004526C2919003E8124526D2919003E812D9
:102A57004526C2919003E8124526D2919003E812C9
:102A67004526C2919003E812452690FFFF227D007C
:102A770090F697EEF0EFA3F0EDA3F090F69AE53914
:102A8700F0E53AA3F090F6A67401F0900000227FDB
:102A97000290DE0EE4F090F69AE0FDA3E0FEC37428
:102AA700209DE49E50047C2080048D047F0A8C02C4
:102AB7007B00EDC39AFDEE9BFE90F69AEDF0EEA338
:102AC700F08C06EE603690F697E0FBA3E0FCA3E0FF
:102AD700FD8B828C838DF0124C3D90DE20F090F6BA
:102AE70097E0FBA3E0FCA3E0FD0BBB00010C90F615
:102AF70097EBF0ECA3F0EDA3F01E80C790DE11E09A
:102B07004FF090F69AE0FEA3E0FF4E700590F6A610
:102B1700E4F02290F6A67402F07582002290F69CEB
:102B2700E0FEA3E0FF90DE11E0FDB40100E433FD19
:102B370020E0F290DE0EE4F090DE16E0FD7C0090DF
:102B4700F69FEDF0ECA3F090F6A5E0FD30E11190D3
:102B5700F6A67403F090DE11E04404F090FFFF2224
:102B670043050290F6A5EDF090F69FE0FCA3E0FD8B
:102B7700C374209CE49D5018D29190012CC007C0CB
:102B870006124526C29190012C124526D006D00781
:102B970090F69FE0FCA3E0FDEC4D601690DE20E090
:102BA700FB8E828F83F0A3AE82AF831CBCFF011D17
:102BB70080E6E52C452D6009852C82852D8312142E
:102BC7008990F69FE0FEA3E0FFC3EE9420EF940008
:102BD700501CE52A452B6009852A82852B83121410
:102BE7008990DE11E0FF4408F090F6A6E4F090DE4D
:102BF70011E04440F090F69FE0FEA3E08E82F5835B
:102C07002285822E85832F22858230858331227506
:102C1700370175380090002575F0400229D8AD823C
:102C2700AE83AFF074022DFDE43EFE8D828E838F5E
:102C3700F0124C3DFDA3124C3D8D2575220122AFAC
:102C4700827DD27E4D8D828E83A3E090F6C1F0AC5B
:102C57006790F6C1E0FBBBFF02803EEBB50723ECB4
:102C6700700890F6C174FFF080E71C8D828E83E0B8
:102C77002DFDE43EFE8D828E83A3E0FB90F6C1F02E
:102C870080CF8D828E83E02DFDE43EFE8D828E8384
:102C9700A3E0FB90F6C1F080B88D828E83228582F7
:102CA7003B85833C85F03D7402253BFAE4353CFBCC
:102CB700AC3D8A828B838CF0124C3DF8A3124C3DBD
:102CC700F9893E753F007402B53E06E4B53F0280C0
:102CD700227407B53E06E4B53F028002803674AF22
:102CE70058FE7F008A828B838CF0EE124AA6A3EFF0
:102CF700124AA68A828B838CF0124C3DFAA3124C9F
:102D07003DF5828A67122C46AE82AF83A3A3E0FC0F
:102D17007D00801089828867122C46AE82AF83E0DF
:102D2700FBFC7D007406253BF9E4353CFAAB3D8995
:102D3700828A838BF0124C3DFAA3124C3DFBC3EA07
:102D47009CEB9D50048A048B05EC4D700890DE11B6
:102D5700E0FB4420F08C398D3A8E828F83022A372C
:102D67007F408F057E007F4090DE0EE4F090DE11FD
:102D7700E0FC30E40D90F6A6E4F090DE11E0FB44B1
:102D870080F0EC30E23090DE11E4F090FAEF74045A
:102D9700F090F6A6E4F0D291900014C007C006C0E8
:102DA70005C004124526C291900014124526D0048E
:102DB700D005D006D00790F6A6E0FBBB0325D2913D
:102DC700900032C007C006C005C004124526C29154
:102DD700900032124526D004D005D006D00790F6D1
:102DE700A6E4F090F6A6E060030230F6EC20E003DC
:102DF7000230F690DE0EE4F090DE16E0FCFBEB60AE
:102E07001690DE20E0FA8D828E838FF0124AA6A3F9
:102E1700AD82AE831B80E7E540FF20E703022FADBD
:102E270074605FFE6015BE2003022F64BE4003027C
:102E37002F6FBE6003022F940230E0741F5FFC7097
:102E470047AE41BE0002801CBE06028005BE0826B2
:102E5700800C90004075F040122CA50230E0122C37
:102E6700160230E0753702753800904DB075F08066
:102E77001229D80230E07E407D007B408E828D8310
:102E87008BF0123ADD0230E0BC0149AE41BE0002D0
:102E97008005BE0A268012753702753800904DB03E
:102EA70075F0801229D80230E07537017538009027
:102EB7004DB375F0801229D80230E090DE11E0445E
:102EC70020F07E407D007B408E828D838BF0123A0E
:102ED700DD0230E0BC023AAE41BE00028008BE12FD
:102EE700030230E08012753702753800904DB075D7
:102EF700F0801229D80230E090DE11E04420F07E05
:102F0700407D007B408E828D838BF0123ADD02304C
:102F1700E0BC032FE4B54112753702753800904DB8
:102F2700B075F0801229D80230E090DE11E044201D
:102F3700F07E407D007B408E828D838BF0123ADDE0
:102F47000230E07E407D007B408E828D838BF012C5
:102F57003ADD90DE11E0FE4420F00230E090DE1111
:102F6700E0FE4420F00230E0E52E452F6013122FDB
:102F77007A800BC02EC02F90004075F0402202309F
:102F8700E090004075F04012310D0230E090DE1104
:102F9700E04420F07E407D007B408E828D838BF065
:102FA700123ADD0230E074605FFE6015BE20030256
:102FB700308EBE40030230A7BE60030230CA023023
:102FC700E0741F5FFC704DAF41BF01030230E0BFEB
:102FD70003030230E0BF0502800BBF07030230E0A6
:102FE700BF0917800990DE00E542F00230E090004B
:102FF7004075F040122C250230E07F407E007D4076
:103007008F828E838DF0123ADD90DE11E0FF44202F
:10301700F00230E0BC012EAF41BF01030230E0BF38
:1030270003030230E0BF11030230E07F407E007DE2
:10303700408F828E838DF0123ADD90DE11E0FF44DF
:1030470020F00230E0BC0227AF41BF01030230E0AD
:10305700BF03030230E07F407E007D408F828E8376
:103067008DF0123ADD90DE11E0FF4420F0806A9087
:10307700DE11E04420F07F407E007D408F828E830A
:103087008DF0123ADD80527F407E007D408F828E28
:10309700838DF0123ADD90DE11E0FF4420F0803995
:1030A700E52E452F60121230B2800BC02EC02F9034
:1030B700004075F04022802190004075F0401231A9
:1030C7000D801690DE11E04420F07F407E007D40A9
:1030D7008F828E838DF0123ADD90DE11E0FF44403F
:1030E700F0E5464547700890DE11E0FF4408F09090
:1030F700F6A6E0FFBF0103122A9690F6A6E0FFBFEF
:103107000203022B242285824885834985F04A12CF
:103117004C3DFC20E70302324C74012548FAE435A4
:1031270049FBAC4A8A828B838CF0124C3DFC601EB3
:10313700BC0102802BBC0202803DBC03028078BC2C
:1031470004030231ECBCFE030232090232B67537C2
:103157000275380090FAEE75F0001229D80232B6DF
:1031670090DE00E0FC7B00753928753A008C828B75
:1031770083122A370232B674022548FAE43549FB2E
:10318700AC4A8A828B838CF0124C3DFAA3124C3DD9
:10319700FB74062548F8E43549F9AC4A88828983E7
:1031A7008CF0124C3DF539A3124C3DF53A8A828BCF
:1031B70083122A370232B6AA48AB49AC4A740625AD
:1031C70048F8E43549F9AF4A888289838FF0124C71
:1031D7003DF537A3124C3DF5388A828B838CF0126C
:1031E70029D80232B690F69CE0FDA3E0FEA3E0FFEB
:1031F700753910753A008D828E838FF0122A370247
:1032070032B674022548FDE43549FEAF4A7567B505
:1032170075684D756980756A04756B008D828E833C
:103227008FF01245EDE5828583F045F06012D2916B
:1032370090012C124526C29190012C124526806FD1
:1032470075C983806A90F6BCE0FFBF015A740225F6
:1032570048FDE43549FEAF4A8D828E838FF0124CCC
:103267003DFDA3124C3DFE90DE0EE4F090DE16E02D
:10327700FF7C00751D088F828C83C007C006C005C0
:10328700C00412456DD004D005D006D007EF4C60BE
:103297001690DE20E0FB8D828E83F0A3AD82AE8395
:1032A7001FBFFF011C80E690F6A5E054FDFFF090DC
:1032B70000002290F6B7E0FF30E10A90FAEF7405BC
:1032C700F090FFFF2290DE0E7405F090DE16E0FF0F
:1032D7008F4B754C0090DE17E0FCE4254BF54BEC6B
:1032E700354CF54C90F6B5E0FCA3E0FD4C705A90D8
:1032F700F6B1E4F0E4A3F090DE2AE090F6B3F090A4
:10330700DE2AE090F6B4F090DE2AE0FD7C0090F62D
:10331700B5EDF0ECA3F090DE2AE0FAE4FB2DFDEA30
:103327003CFC90F6B5EDF0ECA3F0E54B24FCF54B37
:10333700E54C34FFF54CC374049D74029C500A900D
:10334700F6B57404F07402A3F0E52955D16012D2E2
:1033570091900014124526C29190001412452680C0
:10336700E890F6AEE0FBA3E0FCA3E090F6B1E0FA4C
:10337700A3E0FFEA2BFBEF3CFC7480252942D685AE
:10338700268285278374DEF0852682852783A374AA
:103397002AF0852682852783A3A38C07EFF085264D
:1033A70082852783A3A3A3EBF0852682852783A3A2
:1033B700A3A3A3A3A3A3E0543FF085268285278375
:1033C700A3A3A3A3A3A3A3E054CF4410F07405259C
:1033D70026FEE43527FF90DE16E0FD8E828F83ED13
:1033E700F074042526FEE43527FF90DE17E08E8271
:1033F7008F83541FF5F0E054E045F0F090F6B1E00C
:10340700FEA3E0FFEE254BFCEF354CFDC374049C97
:1034170074029D500B7404C39EF54B74029FF54CC8
:10342700C37440954BE4954C502690FAEF7406F020
:1034370090DE14E054FEF0751D0490000512456DF2
:10344700751D10854B82854C8312456D90FFFE22BA
:10345700E52942D6E52942D7E54B2EFEE54C3FFF4D
:1034670090F6B1EEF0EFA3F0E52955D160FAE52922
:10347700F452D190F6B1E0FEA3E0FF90F6B5E0FC80
:10348700A3E0FDC3EE9CEF9D402B90F6B7E044020E
:10349700F090F6B5E4F0E4A3F090DE0E7405F0AE1C
:1034A7002374BF5524FF8E238F2490DE14E054FE2F
:1034B700F09000012290DE0E7405F0AE2374BF5524
:1034C70024FF8E238F2490DE14E054FEF09000003A
:1034D7002290F6B7E0FF20E1012290F6AEE0F54F2B
:1034E700A3E0F55090F6B3E0FCBCFF02800302387E
:1034F700B890F6B4E0FBBB80005003023899EB2488
:10350700705003023899EB2480FA240A83F582EA83
:10351700241483F583E4733EC33B55726B8BA1C4BC
:103527009999999999144D3535373736373737374C
:1035370038383838383838854F82855083E0FAA3D1
:1035470085824F8583508A017A0090F6B5E9F0EAC3
:10355700A3F0854F82855083E0F8A385824F85834A
:10356700508806E429F9EE3AFA90F6B5E9F0EAA3AD
:10357700F0854F82855083E0FEA385824F85835077
:103587008E4D754E00E0FEE4254DF54DEE354EF5BA
:103597004E854D4F854E5090F6B3E0FE90F6B4E061
:1035A700F53289338A34854F358550368E82122716
:1035B7003790F6B5E4F0E4A3F00238B0854F828582
:1035C7005083E0FEA385824F8583508E4D754E0054
:1035D700E0FEA385824F8583508E05E4254DF54D8A
:1035E700ED354EF54EAD4DAE4E90F6B9EDF0EEA37E
:1035F700F090F6B1E0FDA3E0FEED24FEF54DEE34CC
:10360700FFF54E854F53855054854D51854E52E5F4
:10361700514552603790F6B9E0F8A3E0FA740128F3
:10362700F9E43AFE90F6B9E9F0EEA3F08553828506
:103637005483E0FEA385825385835488828A83EE70
:10364700F0155174FFB55102155280C390F6B3E0DF
:10365700FE90F6B4E0F5327535B57536F67533027A
:103667007534008E821227370238B0EF20E2368594
:103677004F82855083E0FFA385824F8583508F4D0E
:10368700754E00E0FFA385824F8583508F06E4FFC8
:10369700254DF54DEE354EF54EAD4DAE4E90F6B986
:1036A700EDF0EEA3F090F6B5E0FEA3E0FF8E4D8FB0
:1036B7004EC37440954DE4954E5006754D40754E7A
:1036C70000EEC3954DFEEF954EFF90F6B5EEF0EF89
:1036D700A3F0AE4FAF50854D53854E54E553455437
:1036E700603390F6B9E0F8A3E0F9740128FAE439F9
:1036F700FD90F6B9EAF0EDA3F08E828F83E0FDA38B
:10370700AE82AF8388828983EDF0155374FFB5537A
:1037170002155480C790F6B3E0FF90F6B4E0F53297
:103727007535B57536F67533027534008F821227F5
:10373700370238B090F6B1E0F533A3E0F5348B32B9
:10374700854F358550368C821227370238B075354C
:10375700BA75364D8B3275330D7534008C8212274E
:10376700370238B090FAF0E0FAA3E0FDA3E0A3E057
:103777008A358D368B327533047534008C82122767
:10378700370238B075359D75364D8B3275331375E5
:1037970034008C821227370238B090F6B1E0F53347
:1037A700A3E0F5348B32854F358550368C8212274E
:1037B700379000C8124526123BC00238B0854F82A9
:1037C700855083E0FFA385824F858350BF02028027
:1037D7000ABF03028011BF04118005123C89800AC9
:1037E700C291123CD38003123CA690F6B3E0FF903F
:1037F700F6B4E0F53290F6B1E0F533A3E0F53485A1
:103807004F358550368F821227370238B090F6B57C
:103817007401F0E4A3F0754F367550DF90F6B3E00E
:10382700FF90F6B4E0F53290F6B5E0F533A3E0F596
:1038370034854F358550368F8212273790F6B5E499
:10384700F0E4A3F08063AD4FAE507F007567C87595
:10385700684D756980756A09756B008D828E838FD7
:10386700F01245EDE5828583F045F0703C75C9801F
:1038770090F6B3E0FF90F6B4E0F53290F6B1E0F5DC
:1038870033A3E0F534854F358550368F82122737BD
:10389700801790F6B1E0F533A3E0F5348B32854F0E
:1038A700358550368C8212273790F6B7E054FDF0F5
:1038B70022E53045316009853082853183121489CC
:1038C70090F6B7E054FDF022E52330E011752202AF
:1038D70074FE5523FEAF248E238F2443BE01E523B8
:1038E7005406602C90FAEE740AF075220374FD55A5
:1038F70023FEAF248E238F2490DE01E04404F09052
:10390700000812452690DE01E0FF54FBF075220106
:1039170090DE0EE4F090DE11E0FF30E21D90DE1144
:10392700E0FF54DBF090F69AE4F0E4A3F090F69F02
:10393700E4F0E4A3F090F6A6E4F090DE0E7405F050
:1039470090DE11E0FF30E52390DE11E0FF54CFF069
:1039570090FAEF7408F090F6ACE4F0E4A3F090F678
:10396700B1E4F0E4A3F090F6B8E4F090DE14E0FFE1
:1039770030E62390DE14E0FF549FF090FAEF7408CE
:10398700F090F6ACE4F0E4A3F090F6B1E4F0E4A331
:10399700F090F6B8E4F0E52320E2057404B52214AC
:1039A70012287C90FAEE740BF074FB5523FEAF24BB
:1039B7008E238F24E52330E411122D6774E75523F6
:1039C700FE740F5524FF8E238F24E52430E62190C3
:1039D700FAEE740CF01232BAAE82AF83E4BE010481
:1039E700BF000104FFBFFF028006BF01031234D8E6
:1039F700E52354E07006E52454BD602990FAEF747E
:103A070009F0751D0890004412456D8523828524B1
:103A170083751D1012456D74E05523FE74BD552442
:103A2700FF8E238F2422C0E0C082C083C007C00658
:103A3700C005C004C0D075D000E5BE30E6FB90DEFF
:103A470006E0FF7E00E5234207E52442068F238E2A
:103A57002490DE02E0FDE4CDC4CD6DCD54F0CD6DF4
:103A6700FCED4207EC42068F238E2490DE04E0250E
:103A7700E0FCE4FD4207EC42068F23EEF52430E13B
:103A87001290F6B7E054FEF0AE2374FD5524FF8E76
:103A9700238F24758B00C2E8D0D0D004D005D00680
:103AA700D007D083D082D0E032C0E0C007C0D07545
:103AB700D000E5BE30E6FBC2AFE58930E7037522EB
:103AC70003AFBE74FC5FF5BE758900C2C5D2AFD027
:073AD700D0D007D0E032223D
:104D960053444343764A0159415244535449434B81
:104DA6004F4E45207230333233000000000000526F
:104DB60053544E00554E494D504C454D454E544565
:104DC600440052455345545F4E4F5700120110019F
:104DD60000000020501D5B600001010203010A066D
:104DE60010010000002001000902210001010080DD
:104DF600FA090400000200000100070585024000D0
:104E060001070505024000010403090428034700C1
:104E160072006500610074002000530063006F009B
:104E2600740074002000470061006400670065009C
:104E3600740073001E035900410052004400200014
:104E460053007400690063006B0020004F006E0081
:0E4E560065000A03300030003900310000FF13
:103ADE00AE82AF837C007D008E028F038A828B8341
:103AEE00E493F9A3AA82AB83E960070CBC00ED0D49
:103AFE0080EA8E358F367532F08C338D347582FEBA
:103B0E00022737E58290F6C2F07535C27536F67526
:103B1E0032F17533017534007582FE022737AF839B
:103B2E00E58290F6C3F0EFA3F07535C37536F675E2
:103B3E0032F27533027534007582FE022737AF827A
:103B4E00AE83ADF0FC90F6C5EFF0EEA3F0EDA3F072
:103B5E00ECA3F07535C57536F67532F3753304750D
:083B6E0034007582FE022737C6
:0514E400E4F510F51114
:103B76007EC97FF68FD57EC97FF68ED47ED17FF63D
:103B86008FD37ED17FF68ED27567007568187569FA
:103B96000090F6C975F0000249E67403B51006E414
:103BA600B51102800280047582FF22AE10AF1105A6
:103BB60010E4B5100205118E822290DF46E0FFBFA9
:103BC600F00E90DF47E0FFBF0D0690DF487469F006
:103BD600C2AF759A0075B80075A8001229D5AFBE98
:103BE600747F5FF5BE75D69FC29102000022124A0D
:103BF6005AAC82AD83AEF0FFC004C005C006C00754
:103C06009037BD75F086743D1248E2AC82AD83AE46
:103C1600F0FFE58124FCF581E4C0E0C0E074C0C09B
:103C2600E07441C0E08C828D838EF0EF124B7AAC4B
:103C360082AD83AEF0FFE58124FCF5818C828D8315
:103C46008EF0EF124A6DAC82AD83AEF090DF09EED6
:103C5600F08D0390DF0AEBF090DF0BECF02275E1BC
:103C66000490DF3BE0FFBF01F890FAE8E0F5E19051
:103C7600FAE8E0FFBF04012290DF3BE0FFBF01024C
:103C860080ED2290FAE8E0FFBF02012290DF13E008
:103C960054F0F0E0440FF090FAE87402F002403B72
:103CA60090FAE8E0FFBF03012290DF13E054F0F042
:103CB600E0FF440AF090FAE87403F0D2A0C2A4C26E
:103CC600A375E10390DF3BE0FFBF13F82290FAE80B
:103CD600E0FFBF04012290DF13E054F0F0AF9174CF
:103CE600EF5FF591C2A0C2A4D2A375E10490DF3BB9
:103CF600E0FFBF01F8AF9B74FC5FF59BAFE974EF83
:103D06005FF5E990FAE87404F02290FAEBE4F0E447
:103D1600A3F090FAE2E4F0E4A3F090FAE4E4F0E42D
:103D2600A3F053C6C7759D00859E9E439E0485A934
:103D3600A943B90190FAE87404F075670075680044
:103D460075690490F6E275F0001249E61225E5D28F
:103D5600A87591D175E900751400439A01C2A0C2F5
:103D6600A4D2A375E10490DF3BE0FFBF01F8227EF9
:103D7600007F00C3EE94DCEF9405502490DF3CE016
:103D8600FD5450600490000122900032C007C00626
:103D960012454ED006D00774322EFEE43FFF80D384
:103DA6009000002285821B85831C90FAEDE4F0903A
:103DB600DF02E0FD90DF3BE0FCBC1310A291B39262
:103DC600019291C0051238CFD00580E8C29190FBD0
:103DD60005E4F090FAFBE517F0E518A3F090FB0177
:103DE600E519F0E51AA3F090FAFDE515F0E516A33E
:103DF600F090FAFFE515C39519F0E516951AA3F0AC
:103E060090FAFFE0FBA3E0FC8517678518688B82B4
:103E16008C83C005124AC1AB82AC83D00590FB03EC
:103E2600EB2515F0EC3516A3F0E5154516703F8524
:103E36001B82851C83E0FB7C008B158C1690DF04AF
:103E4600E0FA530203BA00028014BA0102800302A8
:103E56003ED974012BF515E43CF516023ED9051B37
:103E6600E4B51B02051C90DF02E515F0806590DFC6
:103E760004E0FC530403BC00028028BC01558515F0
:103E860067851668756901756A00851B82851C83BE
:103E9600C0051244F1D005AC15851B82851C83EC48
:103EA600F08030E51745187004E516602090FB0396
:103EB600E0FBA3E090DF02EBF090DF04E054FCF0BF
:103EC600E0FC4402F090FB057401F0800690DF02EE
:103ED600E515F0D2A890FB06E0FC20E303023FC6FE
:103EE60090DF04E0FC530403BC010690FAED740174
:103EF600F090FAEDE0FC251BF582E4351CF5838590
:103F06001567851668C005C0041247E4AA82AB830C
:103F1600D004D00590FB06E0F9530104B90433EC54
:103F2600251BF8E4351CF990FB06E0FF74F05FF5FD
:103F360061885D895E8A5F8B6088828983C005C0DF
:103F460004C003C00212480BD002D003D004D0052F
:103F56008031EC251BFEE4351CFF90FB06E0F9746E
:103F6600F059F5668E628F638A648B658E828F83C5
:103F7600C005C004C003C002124820D002D003D03E
:103F860004D005EC602290FB06E0FF5307F0BF501B
:103F96000B851B82851C837410F080248A07851B81
:103FA60082851C83EFF0801890FB06E0FF5307F034
:103FB600BF500890DF027410F0800590DF02EAF02F
:103FC600851B12851C1390FAF9E4F0E4A3F0D2A045
:103FD600C2A4C2A375E1037E607FEA90DF3BE0FCEA
:103FE600BC130280211EBEFF011FEE4F6018A29176
:103FF600B392019291C007C006C0051238CFD00512
:10400600D006D00780D5D291EE4F700690FAEF74A5
:1040160013F090DF3BE0FFBF1310A291B392019221
:1040260091C0051238CFD00580E8C29190DF02ED2D
:10403600F075820122D2A87567007568007569025D
:1040460090F6E275F0001249E690FAE2E4F0E4A395
:10405600F090FAE4E4F0E4A3F090FAE6E4F090FAE3
:10406600E77401F090F6E1E4F0AF9B74FC5FF59B1A
:10407600AFE974EF5FF5E9C2A0D2A4C2A375E1026D
:1040860090DF3BE0FFBF0DF84391102290FB0774D1
:1040960001F02290FB07E4F022C0E0C0F0C082C02D
:1040A60083C007C006C005C004C003C002C001C06B
:1040B60000C0D075D00090FAEE7411F0C28990DF7E
:1040C6003BE0FFBF0D0280030241DCD29190FAF47F
:1040D600E0FF602790FAF5E0FEA3E0FF90FAF5E036
:1040E60024FFFCA3E034FFFD90FAF5ECF0EDA3F01D
:1040F600EF700890DF04E0FF54FCF090FAE87402D9
:10410600F090F6E1E025E0FEE424E2FFEE34F6FE70
:1041160090F6E1E075F002A424E2FC74FA35F0FDB5
:104126008C828D83E0FAA3E0FB74012AF8E43BF964
:104136008C828D83E8F0E9A3F0EA2FF582EB3EF559
:1041460083E5D9F090F6E1E075F002A424E2F58269
:1041560074FA35F0F583E0FEA3E0FF54FE701A9082
:10416600F6E1E075F002A424E2F58274FA35F0F582
:1041760083E0FEA3E0FF4E701A90F6E1E0FF75F0D3
:1041860002A424E2F58274FA35F0F58374FFF07424
:1041960001A3F090FAF5E0FEA3E0FF4E60030242B1
:1041A6009890FAF4E0FF700302429890FAF7E0FE66
:1041B600A3E0FF90FAF5EEF0EFA3F090FAF5E0FE3B
:1041C600A3E090DF02EEF090DF04E054FCF0E0FFA5
:1041D6004402F002429890DF3BE0FFBF13028003E7
:1041E60002429890FB05E0FF700302427190FAF9D3
:1041F600E0FEA3E0FF90FAFDE0FCA3E0FDEEB504CF
:1042060043EFB5053F90FAFBE0FEA3E0FF4E6034B6
:1042160090FAFBE0FEA3E0FFBEFF05BF000280149C
:1042260090FAFBE024FFFEA3E034FFFF90FAFBEEDA
:10423600F0EFA3F090FB01E0FEA3E0FF90FAF9EEA9
:10424600F0EFA3F090FB03E0FEA3E0FF90FB03E09A
:1042560024FFFCA3E034FFFD90FB03ECF0EDA3F09C
:10426600EF700890DF04E0FF54FCF090FAE8740366
:10427600F090FAF9E0FEA3E0FF90FAF9E02401F0ED
:10428600A3E03400F0EE2512F582EF3513F583E056
:10429600F5D9D0D0D000D001D002D003D004D005BB
:1042A600D006D007D083D082D0F0D0E032C021C073
:1042B600E0C0F0C082C083C007C006C005C004C00D
:1042C60003C002C001C000C0D075D0007F0090FAC4
:1042D600EE7410F0AE9B74FC5EF59BE5E94214E5C6
:1042E600E930E02090FAE9E0FDA3E08D067D00AB21
:1042F6009C7C0090FAEBED4BF0EE4CA3F0AEE9742B
:10430600FE5EF5E9E5E95470700302448E90FAE822
:10431600E0FEBE030AAE14748F5EF5140244879065
:10432600F6E1E0FEB40100E43324E6F582E434FA73
:10433600F583E0FEBE0102800302445990FB06E0CD
:10434600FE20E10302442F90DF04E0FE530603BE85
:1043560001027F0190FB06E0FE530601BE01679055
:10436600F6E1E025E0FDE424E2FEED34F6FD8F0300
:104376007C00EB2EFEEC3DFD90F6E1E0F929FAE437
:1043860024E2F9EA34F6FAEB29F55DEC3AF55E90AB
:10439600F6E1E075F002A424E2F58274FA35F0F550
:1043A60083E0FBA3E0FC8F017A00EBC399F55FEC99
:1043B6009AF56090FB06E0FC74F05CF5618E828DE8
:1043C6008312480B806390F6E1E025E0FDE424E2E9
:1043D600FEED34F6FD8F037C00EB2EFEEC3DFD90EA
:1043E600F6E1E0F929FAE424E2F9EA34F6FAEB29EF
:1043F600F562EC3AF56390F6E1E075F002A424E28A
:10440600F58274FA35F0F583E0FBA3E0FC7A00EB65
:10441600C39FF564EC9AF56590FB06E0FF74F05FC8
:10442600F5668E828D8312482090F6E1E06401F0F5
:1044360090F6E1E0FF75F002A424E2F58274FA3505
:10444600F0F583E4F0E4A3F090FAE6E4F090FAE7FE
:10445600F0802C90FAEF7412F0A291B3920292912E
:1044660090F6E1E0FF75F002A424E2F58274FA35D5
:10447600F0F583E4F0E4A3F0A291B392029291C224
:1044860091AFE974CF5FF5E9E5E930E61E90FAEF02
:104496007410F0A291B392029291123C64A291B36D
:1044A60092029291AFE974BF5FF5E9E5E930E71E44
:1044B60090FAEF7411F0A291B392029291123C64B9
:1044C600A291B392029291AFE9747F5FF5E9D0D0E1
:1044D600D000D001D002D003D004D005D006D0073A
:1044E600D083D082D0F0D0E0D02132AE82AF83AC80
:1044F60067AD688C028D031CBCFF011DEA4B601F73
:10450600E5692CFAE56A3DFBEA2EFAEB3FFBEC2E59
:10451600F582ED3FF583E0F98A828B83F080D42221
:104E6400000000000000000000000000000000003E
:044E7400000000003A
:10452600AE82AF831EBEFF011FC3E49EE464808F8C
:10453600F063F08095F0500F7C4C7D041CBCFF01AD
:104546001DEC4D70F780DD22AE82E583CE25E0CEF0
:1045560033FF1EBEFF011FC3E49EE464808FF06339
:10456600F08095F040EC22AE82AF83D2919003E8C2
:10457600C007C006124526C2919001F4124526D006
:1045860006D007151DAD1DED20E754EE30E0249052
:104596000019C007C006C005124526D29190022612
:1045A600124526C291900019124526D005D006D094
:1045B600078022900113C007C006C005124526D207
:1045C60091900032124526C291900113124526D0D1
:1045D60005D006D007EFC313CE13CEFF1D80A8C2A9
:1045E600919003E8024526AD82AE83AFF0AA67AB91
:1045F60068AC69A86AA96BE8496046C000C0018D2D
:10460600828E838FF0124C3DF98A828B838CF01256
:104616004C3DF8E9C398F56CD001D000E56C60100C
:10462600E56CF56D3395E0F56E856D82856E8322BA
:104636000DBD00010E0ABA00010B18B8FF01198062
:10464600B690000022AFBE74FB5FF5BEE5BE30E655
:10465600FBAFC674B85FF5C6E5C620E6FB43BE04ED
:10466600E5BE30E6FB53C6C743E40C43E401D2B9CA
:104676002243FE0F43FF19C292C293C2A0C2A4D224
:10468600A3C29122C0E0C082C083C0D090FAF0E0FD
:104696002401F0A3E03400F0A3E03400F0A3E034FA
:1046A60000F0D0D0D083D082D0E032123BA08582F9
:1046B600598559F005F07401800225E0D5F0FBF527
:1046C6005AE55975F008A424C9F55574F635F0F580
:1046D60056855582855683A3A374DFF0855582855A
:1046E6005683A3A3A374B1F0855582855683A3A3ED
:1046F600A3A3A37410F0855582855683A3A3A3A311
:10470600A3A3E054E0441DF0855582855683A3A3F8
:10471600A3A3A3A3A3E0543F4440F0855582855646
:1047260083A3A3A3A3A3A3A3E054FC4401F0123BD9
:10473600A085825B855BF005F07401800225E0D5DB
:10474600F0FBF55CE55B75F008A424C9F55774F633
:1047560035F0F55885578285588374DFF085578282
:10476600855883A374B2F0855782855883A3A3A383
:10477600A3A37410F0855782855883A3A3A3A3A38C
:10478600A3E054E0441EF0855782855883A3A3A373
:10479600A3A3A3A3E054CF4410F085578285588382
:1047A600A3A3A3A3A3A3A3E054FC4401F022AE82D7
:1047B600AF83E5B330E3FB8555828556838F05EDE0
:1047C600F0855582855683A37F00EEF0E55A42D6E2
:1047D600E56745684401F5B3E5B330E3FB22AE82F5
:1047E600AF83AC67AD68EC540F60158C028D030C7B
:1047F600BC00010DEA2EF582EB3FF583E4F080E67E
:104806008C828D8322855D67855E68855F6985609C
:104816006A756B0085616C024835856267856368D9
:1048260085646985656A756B0285666C024835859F
:10483600826D85836EE5B330E3FBE56924F0FCE524
:104846006A34FFFD7450556CFBE56B456C4401FA08
:104856007401456BF9E4F56FF570C3E56F9569E58D
:1048660070956A400122C002855582855683E56FA0
:10487600256DFEE570356EFF8E008F028A00E8F02A
:10488600855582855683A3EEF0855782855883A386
:10489600A3E56F2567FEE5703568FF8E008F028AF7
:1048A60000E8F0855782855883A3A3A37F00EEF026
:1048B600E55C455A42D6D002EB600CECB56F08EDCC
:1048C600B5700489B380028AB3E5B330E3FB741094
:1048D600256FF56FE43570F570024860124985BCA6
:1048E6000003024B4CEF60FA30D502B2D1E583B437
:1048F600FF03024B62E582B4FF03024B622583404D
:10490600072482400B024B4C2483145003024B6253
:10491600F582EA8DF0A4A8F0EA8EF0A428F8E43532
:10492600F0F9EB8DF0A428E935F0F9E433CA8FF0FD
:10493600A429F9EA35F0FAEBF88EF0A429F9EA355C
:10494600F0FAE433FBEC8DF0A429F9EA35F0FAE449
:104956003BFBE88FF0A42AFAEB35F0FBE433CCFD01
:104966008EF0A42AFAEB35F0FBE43CFCED8FF0A4C4
:104976002BFBEC35F0FC20E7031249B3024B2BAAC4
:1049860082AB83A2F73392D1F5826002D2F7ACF004
:10499600E58124F9F8E6FD08E6FE0886F008E6A2B9
:0D49A600F73392D5F5836002D2F7AFF0220F
:0614BA00E478FFF6D8FD06
:1049B3007804EC7011E58224F8500AF582E4C9CA40
:1049C300CBFCD8EF22EC7820058220E713D58201B7
:1049D30022C3E933F9EA33FAEB33FBEC33FCD8EACD
:1049E300158222AC82AD83AE68AF69BE0004EF606E
:1049F3000C1F0FE567124AA6A3DEFADFF88C828D3F
:104A03008322AD82AE83AFF08D6C8E6D8F6E856722
:104A13006F856870856971A86AA96B880389041812
:104A2300B8FF0119EB4C6025856F82857083857112
:104A3300F0124C3DFCA385826F8583708D828E833B
:104A43008FF0EC124AA6A3AD82AE8380CE856C8232
:074A5300856D83856EF022E2
:101498007914E94400601B7A01904E6478F47593DE
:1014A800FAE493F2A308B800020593D9F4DAF275C6
:0214B80093FFA0
:104A5A00FCABF0AA83A982749EC2D1F5821249B333
:104A6A00024B2B7F9E124A9430D103024B4CC3EF68
:104A7A009582500974FFF5F0F583F58222790012C8
:104A8A004C5989828A838BF0EC22AA82AB83A2F7E3
:104A9A003392D1F5826002D2F7ACF02220F71130BE
:104AAA00F6138883A88220F509F6A8837583002265
:104ABA0080FEF280F5F022E5828567F0A4C582C007
:104ACA00F08568F0A4D0F025F0C5838567F0A425A9
:104ADA0083F58322E567456860467A01E56725E044
:104AEA00F567E568334012F568E5829567E58395D1
:104AFA006840030A80E6C3E56813F568E56713F5BD
:104B0A0067C3E5829567F5F0E58395684005F58307
:104B1A0085F082C3E56813F568E56713F567DAE19E
:014B2A002268
:1014C0007800E84400600A79007593F0E4F309D8E5
:1014D000FC78F4E8440A600C790B90F000E4F0A387
:0414E000D8FCD9FA61
:02148900E4730A
:104B2B00B98003EA13B34010EA2401FAE43BFBE437
:104B3B003CFC50047C800582BC000EBB000BBA0011
:104B4B0008E4F5F0F583F58222A2D1E582138CF00F
:104B5B0092F78B838A8222E4F583F58275F080F4D9
:104B6B00A2D11322E4F583F58275F0C0747F221273
:104B7B00498530D502B2D1BF0009BC0003024B6F8F
:104B8B00024B62BC0003024B4CE583B4FF0BE58286
:104B9B00B4FF03024B6F024B4CE582B4FF03024B95
:104BAB0062C395835007247F400B024B4C24801427
:104BBB005003024B62F582C3ED9AEE9BEF9C4011C2
:104BCB001582C3EA33F9EB33FAEC33FBE433FC80A5
:104BDB0005E4CCCBCAF9C08275F019C3E99DEA9EF6
:104BEB00EB9FEC9400D5F002802D400EE99DF9EA85
:104BFB009EFAEB9FFBEC9400FCC3B3E833F8E58221
:104C0B0033F582E58333F583C3E933F9EA33FAEB02
:104C1B0033FBEC33FC80C4B3E4F938FAE43582FBA4
:104C2B00E43583FCD082500405827C801249B302A8
:024C3B004B43E9
:0D148B00758171124C9CE58260030214868D
:104C3D0020F71430F6148883A88220F507E6A883A0
:104C4D0075830022E280F7E49322E0226040F8258C
:104C5D0082500274FFF582E824F8501ECCCBCAF9BD
:104C6D00E4CC24F85014CBCAF9E4CB24F8500BCA89
:104C7D00F9E4CA24F8500379002224086010F8C31F
:104C8D00EC13FCEB13FBEA13FAE913F9D8F12275D7
:034C9D0082002270
:00000001FF
